04:12:21.982724 IP 192.168.0.100.37782 > ord08s06-in-f14.1e100.net.33435: UDP, length 24
	0x0000:  f81a 67cd 576e 7cd1 c394 9eb8 0800 4500  ..g.Wn|.......E.
	0x0010:  0034 9397 0000 0111 396a c0a8 0064 4a7d  .4......9j...dJ}
	0x0020:  e12e 9396 829b 0020 fcc3 0000 0000 0000  ................
	0x0030:  0000 0000 0000 0000 0000 0000 0000 0000  ................
	0x0040:  0000                                     ..
04:12:21.986387 IP 192.168.0.1 > 192.168.0.100: ICMP time exceeded in-transit, length 60
	0x0000:  7cd1 c394 9eb8 f81a 67cd 576e 0800 45c0  |.......g.Wn..E.
	0x0010:  0050 11dd 0000 4001 e65a c0a8 0001 c0a8  .P....@..Z......
	0x0020:  0064 0b00 e1e9 0000 0000 4500 0034 9397  .d........E..4..
	0x0030:  0000 0111 396a c0a8 0064 4a7d e12e 9396  ....9j...dJ}....
	0x0040:  829b 0020 fcc3 0000 0000 0000 0000 0000  ................
	0x0050:  0000 0000 0000 0000 0000 0000 0000       ..............
04:12:21.987163 IP 192.168.0.100.37782 > ord08s06-in-f14.1e100.net.33436: UDP, length 24
	0x0000:  f81a 67cd 576e 7cd1 c394 9eb8 0800 4500  ..g.Wn|.......E.
	0x0010:  0034 9398 0000 0111 3969 c0a8 0064 4a7d  .4......9i...dJ}
	0x0020:  e12e 9396 829c 0020 fcc2 0000 0000 0000  ................
	0x0030:  0000 0000 0000 0000 0000 0000 0000 0000  ................
	0x0040:  0000                                     ..
04:12:21.987906 IP 192.168.0.1 > 192.168.0.100: ICMP time exceeded in-transit, length 60
	0x0000:  7cd1 c394 9eb8 f81a 67cd 576e 0800 45c0  |.......g.Wn..E.
	0x0010:  0050 11de 0000 4001 e659 c0a8 0001 c0a8  .P....@..Y......
	0x0020:  0064 0b00 e1e9 0000 0000 4500 0034 9398  .d........E..4..
	0x0030:  0000 0111 3969 c0a8 0064 4a7d e12e 9396  ....9i...dJ}....
	0x0040:  829c 0020 fcc2 0000 0000 0000 0000 0000  ................
	0x0050:  0000 0000 0000 0000 0000 0000 0000       ..............
04:12:21.988033 IP 192.168.0.100.37782 > ord08s06-in-f14.1e100.net.33437: UDP, length 24
	0x0000:  f81a 67cd 576e 7cd1 c394 9eb8 0800 4500  ..g.Wn|.......E.
	0x0010:  0034 9399 0000 0111 3968 c0a8 0064 4a7d  .4......9h...dJ}
	0x0020:  e12e 9396 829d 0020 fcc1 0000 0000 0000  ................
	0x0030:  0000 0000 0000 0000 0000 0000 0000 0000  ................
	0x0040:  0000                                     ..
04:12:21.988726 IP 192.168.0.1 > 192.168.0.100: ICMP time exceeded in-transit, length 60
	0x0000:  7cd1 c394 9eb8 f81a 67cd 576e 0800 45c0  |.......g.Wn..E.
	0x0010:  0050 11df 0000 4001 e658 c0a8 0001 c0a8  .P....@..X......
	0x0020:  0064 0b00 e1e9 0000 0000 4500 0034 9399  .d........E..4..
	0x0030:  0000 0111 3968 c0a8 0064 4a7d e12e 9396  ....9h...dJ}....
	0x0040:  829d 0020 fcc1 0000 0000 0000 0000 0000  ................
	0x0050:  0000 0000 0000 0000 0000 0000 0000       ..............
04:12:21.988848 IP 192.168.0.100.37782 > ord08s06-in-f14.1e100.net.33438: UDP, length 24
	0x0000:  f81a 67cd 576e 7cd1 c394 9eb8 0800 4500  ..g.Wn|.......E.
	0x0010:  0034 939a 0000 0211 3867 c0a8 0064 4a7d  .4......8g...dJ}
	0x0020:  e12e 9396 829e 0020 fcc0 0000 0000 0000  ................
	0x0030:  0000 0000 0000 0000 0000 0000 0000 0000  ................
	0x0040:  0000                                     ..
04:12:21.995775 IP 10.131.180.1 > 192.168.0.100: ICMP time exceeded in-transit, length 36
	0x0000:  7cd1 c394 9eb8 f81a 67cd 576e 0800 4500  |.......g.Wn..E.
	0x0010:  0038 939a 0000 fe01 a999 0a83 b401 c0a8  .8..............
	0x0020:  0064 0b00 e1e9 0000 0000 4500 0034 939a  .d........E..4..
	0x0030:  0000 0111 3967 c0a8 0064 4a7d e12e 9396  ....9g...dJ}....
	0x0040:  829e 0020 fcc0                           ......
04:12:21.996497 IP 192.168.0.100.37782 > ord08s06-in-f14.1e100.net.33439: UDP, length 24
	0x0000:  f81a 67cd 576e 7cd1 c394 9eb8 0800 4500  ..g.Wn|.......E.
	0x0010:  0034 939b 0000 0211 3866 c0a8 0064 4a7d  .4......8f...dJ}
	0x0020:  e12e 9396 829f 0020 fcbf 0000 0000 0000  ................
	0x0030:  0000 0000 0000 0000 0000 0000 0000 0000  ................
	0x0040:  0000                                     ..
04:12:22.003107 IP 10.131.180.1 > 192.168.0.100: ICMP time exceeded in-transit, length 36
	0x0000:  7cd1 c394 9eb8 f81a 67cd 576e 0800 4500  |.......g.Wn..E.
	0x0010:  0038 939b 0000 fe01 a998 0a83 b401 c0a8  .8..............
	0x0020:  0064 0b00 e1e9 0000 0000 4500 0034 939b  .d........E..4..
	0x0030:  0000 0111 3966 c0a8 0064 4a7d e12e 9396  ....9f...dJ}....
	0x0040:  829f 0020 fcbf                           ......
04:12:22.003342 IP 192.168.0.100.37782 > ord08s06-in-f14.1e100.net.33440: UDP, length 24
	0x0000:  f81a 67cd 576e 7cd1 c394 9eb8 0800 4500  ..g.Wn|.......E.
	0x0010:  0034 939c 0000 0211 3865 c0a8 0064 4a7d  .4......8e...dJ}
	0x0020:  e12e 9396 82a0 0020 fcbe 0000 0000 0000  ................
	0x0030:  0000 0000 0000 0000 0000 0000 0000 0000  ................
	0x0040:  0000                                     ..
04:12:22.009769 IP 10.131.180.1 > 192.168.0.100: ICMP time exceeded in-transit, length 36
	0x0000:  7cd1 c394 9eb8 f81a 67cd 576e 0800 4500  |.......g.Wn..E.
	0x0010:  0038 939c 0000 fe01 a997 0a83 b401 c0a8  .8..............
	0x0020:  0064 0b00 e1e9 0000 0000 4500 0034 939c  .d........E..4..
	0x0030:  0000 0111 3965 c0a8 0064 4a7d e12e 9396  ....9e...dJ}....
	0x0040:  82a0 0020 fcbe                           ......
04:12:22.010030 IP 192.168.0.100.37782 > ord08s06-in-f14.1e100.net.33441: UDP, length 24
	0x0000:  f81a 67cd 576e 7cd1 c394 9eb8 0800 4500  ..g.Wn|.......E.
	0x0010:  0034 939d 0000 0311 3764 c0a8 0064 4a7d  .4......7d...dJ}
	0x0020:  e12e 9396 82a1 0020 fcbd 0000 0000 0000  ................
	0x0030:  0000 0000 0000 0000 0000 0000 0000 0000  ................
	0x0040:  0000                                     ..
04:12:22.016973 IP acr11mdsnwi-tge-0-2-0-1.mdsn.wi.charter.com > 192.168.0.100: ICMP time exceeded in-transit, length 76
	0x0000:  7cd1 c394 9eb8 f81a 67cd 576e 0800 4500  |.......g.Wn..E.
	0x0010:  0060 bf8f 0000 fd01 c8ca 6022 1414 c0a8  .`........`"....
	0x0020:  0064 0b00 e1e9 0000 0000 4500 0034 939d  .d........E..4..
	0x0030:  0000 0111 3964 c0a8 0064 4a7d e12e 9396  ....9d...dJ}....
	0x0040:  82a1 0020 fcbd 0000 0000 0000 0000 0000  ................
	0x0050:  0000 0000 0000 0000 0000 0000 0000 0000  ................
	0x0060:  0000 0000 0000 0000 0000 0000 0000       ..............
04:12:22.017416 IP 192.168.0.100.37782 > ord08s06-in-f14.1e100.net.33442: UDP, length 24
	0x0000:  f81a 67cd 576e 7cd1 c394 9eb8 0800 4500  ..g.Wn|.......E.
	0x0010:  0034 939e 0000 0311 3763 c0a8 0064 4a7d  .4......7c...dJ}
	0x0020:  e12e 9396 82a2 0020 fcbc 0000 0000 0000  ................
	0x0030:  0000 0000 0000 0000 0000 0000 0000 0000  ................
	0x0040:  0000                                     ..
04:12:22.024190 IP acr11mdsnwi-tge-0-2-0-1.mdsn.wi.charter.com > 192.168.0.100: ICMP time exceeded in-transit, length 76
	0x0000:  7cd1 c394 9eb8 f81a 67cd 576e 0800 4500  |.......g.Wn..E.
	0x0010:  0060 bf90 0000 fd01 c8c9 6022 1414 c0a8  .`........`"....
	0x0020:  0064 0b00 e1e9 0000 0000 4500 0034 939e  .d........E..4..
	0x0030:  0000 0111 3963 c0a8 0064 4a7d e12e 9396  ....9c...dJ}....
	0x0040:  82a2 0020 fcbc 0000 0000 0000 0000 0000  ................
	0x0050:  0000 0000 0000 0000 0000 0000 0000 0000  ................
	0x0060:  0000 0000 0000 0000 0000 0000 0000       ..............
04:12:22.024344 IP 192.168.0.100.37782 > ord08s06-in-f14.1e100.net.33443: UDP, length 24
	0x0000:  f81a 67cd 576e 7cd1 c394 9eb8 0800 4500  ..g.Wn|.......E.
	0x0010:  0034 939f 0000 0311 3762 c0a8 0064 4a7d  .4......7b...dJ}
	0x0020:  e12e 9396 82a3 0020 fcbb 0000 0000 0000  ................
	0x0030:  0000 0000 0000 0000 0000 0000 0000 0000  ................
	0x0040:  0000                                     ..
04:12:22.030085 IP acr11mdsnwi-tge-0-2-0-1.mdsn.wi.charter.com > 192.168.0.100: ICMP time exceeded in-transit, length 76
	0x0000:  7cd1 c394 9eb8 f81a 67cd 576e 0800 4500  |.......g.Wn..E.
	0x0010:  0060 bf91 0000 fd01 c8c8 6022 1414 c0a8  .`........`"....
	0x0020:  0064 0b00 e1e9 0000 0000 4500 0034 939f  .d........E..4..
	0x0030:  0000 0111 3962 c0a8 0064 4a7d e12e 9396  ....9b...dJ}....
	0x0040:  82a3 0020 fcbb 0000 0000 0000 0000 0000  ................
	0x0050:  0000 0000 0000 0000 0000 0000 0000 0000  ................
	0x0060:  0000 0000 0000 0000 0000 0000 0000       ..............
04:12:22.030340 IP 192.168.0.100.37782 > ord08s06-in-f14.1e100.net.33444: UDP, length 24
	0x0000:  f81a 67cd 576e 7cd1 c394 9eb8 0800 4500  ..g.Wn|.......E.
	0x0010:  0034 93a0 0000 0411 3661 c0a8 0064 4a7d  .4......6a...dJ}
	0x0020:  e12e 9396 82a4 0020 fcba 0000 0000 0000  ................
	0x0030:  0000 0000 0000 0000 0000 0000 0000 0000  ................
	0x0040:  0000                                     ..
04:12:22.044661 IP dtr02ftbgwi-tge-0-6-0-4.ftbg.wi.charter.com > 192.168.0.100: ICMP time exceeded in-transit, length 36
	0x0000:  7cd1 c394 9eb8 f81a 67cd 576e 0800 4500  |.......g.Wn..E.
	0x0010:  0038 1f70 0000 fc01 6cc7 6022 115f c0a8  .8.p....l.`"._..
	0x0020:  0064 0b00 e109 0000 00e0 4500 0034 93a0  .d........E..4..
	0x0030:  0000 0111 3961 c0a8 0064 4a7d e12e 9396  ....9a...dJ}....
	0x0040:  82a4 0020 fcba                           ......
04:12:22.045254 IP 192.168.0.100.37782 > ord08s06-in-f14.1e100.net.33445: UDP, length 24
	0x0000:  f81a 67cd 576e 7cd1 c394 9eb8 0800 4500  ..g.Wn|.......E.
	0x0010:  0034 93a1 0000 0411 3660 c0a8 0064 4a7d  .4......6`...dJ}
	0x0020:  e12e 9396 82a5 0020 fcb9 0000 0000 0000  ................
	0x0030:  0000 0000 0000 0000 0000 0000 0000 0000  ................
	0x0040:  0000                                     ..
04:12:22.056580 IP dtr02ftbgwi-tge-0-6-0-4.ftbg.wi.charter.com > 192.168.0.100: ICMP time exceeded in-transit, length 36
	0x0000:  7cd1 c394 9eb8 f81a 67cd 576e 0800 4500  |.......g.Wn..E.
	0x0010:  0038 1f71 0000 fc01 6cc6 6022 115f c0a8  .8.q....l.`"._..
	0x0020:  0064 0b00 e109 0000 00e0 4500 0034 93a1  .d........E..4..
	0x0030:  0000 0111 3960 c0a8 0064 4a7d e12e 9396  ....9`...dJ}....
	0x0040:  82a5 0020 fcb9                           ......
04:12:22.056742 IP 192.168.0.100.37782 > ord08s06-in-f14.1e100.net.33446: UDP, length 24
	0x0000:  f81a 67cd 576e 7cd1 c394 9eb8 0800 4500  ..g.Wn|.......E.
	0x0010:  0034 93a2 0000 0411 365f c0a8 0064 4a7d  .4......6_...dJ}
	0x0020:  e12e 9396 82a6 0020 fcb8 0000 0000 0000  ................
	0x0030:  0000 0000 0000 0000 0000 0000 0000 0000  ................
	0x0040:  0000                                     ..
04:12:22.068477 IP dtr02ftbgwi-tge-0-6-0-4.ftbg.wi.charter.com > 192.168.0.100: ICMP time exceeded in-transit, length 36
	0x0000:  7cd1 c394 9eb8 f81a 67cd 576e 0800 4500  |.......g.Wn..E.
	0x0010:  0038 1f72 0000 fc01 6cc5 6022 115f c0a8  .8.r....l.`"._..
	0x0020:  0064 0b00 e109 0000 00e0 4500 0034 93a2  .d........E..4..
	0x0030:  0000 0111 395f c0a8 0064 4a7d e12e 9396  ....9_...dJ}....
	0x0040:  82a6 0020 fcb8                           ......
04:12:22.068736 IP 192.168.0.100.37782 > ord08s06-in-f14.1e100.net.33447: UDP, length 24
	0x0000:  f81a 67cd 576e 7cd1 c394 9eb8 0800 4500  ..g.Wn|.......E.
	0x0010:  0034 93a3 0000 0511 355e c0a8 0064 4a7d  .4......5^...dJ}
	0x0020:  e12e 9396 82a7 0020 fcb7 0000 0000 0000  ................
	0x0030:  0000 0000 0000 0000 0000 0000 0000 0000  ................
	0x0040:  0000                                     ..
04:12:22.080997 IP crr01ftbgwi-bue-2.ftbg.wi.charter.com > 192.168.0.100: ICMP time exceeded in-transit, length 36
	0x0000:  7cd1 c394 9eb8 f81a 67cd 576e 0800 4500  |.......g.Wn..E.
	0x0010:  0038 da35 0000 fb01 b3f0 6022 1070 c0a8  .8.5......`".p..
	0x0020:  0064 0b00 e109 0000 00e0 4500 0034 93a3  .d........E..4..
	0x0030:  0000 0111 395e c0a8 0064 4a7d e12e 9396  ....9^...dJ}....
	0x0040:  82a7 0020 fcb7                           ......
04:12:22.081373 IP 192.168.0.100.37782 > ord08s06-in-f14.1e100.net.33448: UDP, length 24
	0x0000:  f81a 67cd 576e 7cd1 c394 9eb8 0800 4500  ..g.Wn|.......E.
	0x0010:  0034 93a4 0000 0511 355d c0a8 0064 4a7d  .4......5]...dJ}
	0x0020:  e12e 9396 82a8 0020 fcb6 0000 0000 0000  ................
	0x0030:  0000 0000 0000 0000 0000 0000 0000 0000  ................
	0x0040:  0000                                     ..
04:12:22.093596 IP crr01ftbgwi-bue-2.ftbg.wi.charter.com > 192.168.0.100: ICMP time exceeded in-transit, length 36
	0x0000:  7cd1 c394 9eb8 f81a 67cd 576e 0800 4500  |.......g.Wn..E.
	0x0010:  0038 da36 0000 fb01 b3ef 6022 1070 c0a8  .8.6......`".p..
	0x0020:  0064 0b00 e109 0000 00e0 4500 0034 93a4  .d........E..4..
	0x0030:  0000 0111 395d c0a8 0064 4a7d e12e 9396  ....9]...dJ}....
	0x0040:  82a8 0020 fcb6                           ......
04:12:22.093836 IP 192.168.0.100.37782 > ord08s06-in-f14.1e100.net.33449: UDP, length 24
	0x0000:  f81a 67cd 576e 7cd1 c394 9eb8 0800 4500  ..g.Wn|.......E.
	0x0010:  0034 93a5 0000 0511 355c c0a8 0064 4a7d  .4......5\...dJ}
	0x0020:  e12e 9396 82a9 0020 fcb5 0000 0000 0000  ................
	0x0030:  0000 0000 0000 0000 0000 0000 0000 0000  ................
	0x0040:  0000                                     ..
04:12:22.105034 IP crr01ftbgwi-bue-2.ftbg.wi.charter.com > 192.168.0.100: ICMP time exceeded in-transit, length 36
	0x0000:  7cd1 c394 9eb8 f81a 67cd 576e 0800 4500  |.......g.Wn..E.
	0x0010:  0038 da38 0000 fb01 b3ed 6022 1070 c0a8  .8.8......`".p..
	0x0020:  0064 0b00 e109 0000 00e0 4500 0034 93a5  .d........E..4..
	0x0030:  0000 0111 395c c0a8 0064 4a7d e12e 9396  ....9\...dJ}....
	0x0040:  82a9 0020 fcb5                           ......
04:12:22.105179 IP 192.168.0.100.37782 > ord08s06-in-f14.1e100.net.33450: UDP, length 24
	0x0000:  f81a 67cd 576e 7cd1 c394 9eb8 0800 4500  ..g.Wn|.......E.
	0x0010:  0034 93a6 0000 0611 345b c0a8 0064 4a7d  .4......4[...dJ}
	0x0020:  e12e 9396 82aa 0020 fcb4 0000 0000 0000  ................
	0x0030:  0000 0000 0000 0000 0000 0000 0000 0000  ................
	0x0040:  0000                                     ..
04:12:22.129717 IP crr01euclwi-bue-1.eucl.wi.charter.com > 192.168.0.100: ICMP time exceeded in-transit, length 36
	0x0000:  7cd1 c394 9eb8 f81a 67cd 576e 0800 4500  |.......g.Wn..E.
	0x0010:  0038 7128 0000 fa01 1e21 6022 104d c0a8  .8q(.....!`".M..
	0x0020:  0064 0b00 e109 0000 00e0 4500 0034 93a6  .d........E..4..
	0x0030:  0000 0111 395b c0a8 0064 4a7d e12e 9396  ....9[...dJ}....
	0x0040:  82aa 0020 fcb4                           ......
04:12:22.130311 IP 192.168.0.100.37782 > ord08s06-in-f14.1e100.net.33451: UDP, length 24
	0x0000:  f81a 67cd 576e 7cd1 c394 9eb8 0800 4500  ..g.Wn|.......E.
	0x0010:  0034 93a7 0000 0611 345a c0a8 0064 4a7d  .4......4Z...dJ}
	0x0020:  e12e 9396 82ab 0020 fcb3 0000 0000 0000  ................
	0x0030:  0000 0000 0000 0000 0000 0000 0000 0000  ................
	0x0040:  0000                                     ..
04:12:22.153995 IP crr01euclwi-bue-1.eucl.wi.charter.com > 192.168.0.100: ICMP time exceeded in-transit, length 36
	0x0000:  7cd1 c394 9eb8 f81a 67cd 576e 0800 4500  |.......g.Wn..E.
	0x0010:  0038 712b 0000 fa01 1e1e 6022 104d c0a8  .8q+......`".M..
	0x0020:  0064 0b00 e109 0000 00e0 4500 0034 93a7  .d........E..4..
	0x0030:  0000 0111 395a c0a8 0064 4a7d e12e 9396  ....9Z...dJ}....
	0x0040:  82ab 0020 fcb3                           ......
04:12:22.154150 IP 192.168.0.100.37782 > ord08s06-in-f14.1e100.net.33452: UDP, length 24
	0x0000:  f81a 67cd 576e 7cd1 c394 9eb8 0800 4500  ..g.Wn|.......E.
	0x0010:  0034 93a8 0000 0611 3459 c0a8 0064 4a7d  .4......4Y...dJ}
	0x0020:  e12e 9396 82ac 0020 fcb2 0000 0000 0000  ................
	0x0030:  0000 0000 0000 0000 0000 0000 0000 0000  ................
	0x0040:  0000                                     ..
04:12:22.180373 IP crr01euclwi-bue-1.eucl.wi.charter.com > 192.168.0.100: ICMP time exceeded in-transit, length 36
	0x0000:  7cd1 c394 9eb8 f81a 67cd 576e 0800 4500  |.......g.Wn..E.
	0x0010:  0038 712c 0000 fa01 1e1d 6022 104d c0a8  .8q,......`".M..
	0x0020:  0064 0b00 e109 0000 00e0 4500 0034 93a8  .d........E..4..
	0x0030:  0000 0111 3959 c0a8 0064 4a7d e12e 9396  ....9Y...dJ}....
	0x0040:  82ac 0020 fcb2                           ......
04:12:22.180639 IP 192.168.0.100.37782 > ord08s06-in-f14.1e100.net.33453: UDP, length 24
	0x0000:  f81a 67cd 576e 7cd1 c394 9eb8 0800 4500  ..g.Wn|.......E.
	0x0010:  0034 93a9 0000 0711 3358 c0a8 0064 4a7d  .4......3X...dJ}
	0x0020:  e12e 9396 82ad 0020 fcb1 0000 0000 0000  ................
	0x0030:  0000 0000 0000 0000 0000 0000 0000 0000  ................
	0x0040:  0000                                     ..
04:12:22.200504 IP bbr01euclwi-bue-4.eucl.wi.charter.com > 192.168.0.100: ICMP time exceeded in-transit, length 76
	0x0000:  7cd1 c394 9eb8 f81a 67cd 576e 0800 4500  |.......g.Wn..E.
	0x0010:  0060 f3ea 0000 f901 aa7f 6022 0204 c0a8  .`........`"....
	0x0020:  0064 0b00 e109 0000 00e0 4500 0034 93a9  .d........E..4..
	0x0030:  0000 0111 3958 c0a8 0064 4a7d e12e 9396  ....9X...dJ}....
	0x0040:  82ad 0020 fcb1 0000 0000 0000 0000 0000  ................
	0x0050:  0000 0000 0000 0000 0000 0000 0000 0000  ................
	0x0060:  0000 0000 0000 0000 0000 0000 0000       ..............
04:12:22.201028 IP 192.168.0.100.37782 > ord08s06-in-f14.1e100.net.33454: UDP, length 24
	0x0000:  f81a 67cd 576e 7cd1 c394 9eb8 0800 4500  ..g.Wn|.......E.
	0x0010:  0034 93aa 0000 0711 3357 c0a8 0064 4a7d  .4......3W...dJ}
	0x0020:  e12e 9396 82ae 0020 fcb0 0000 0000 0000  ................
	0x0030:  0000 0000 0000 0000 0000 0000 0000 0000  ................
	0x0040:  0000                                     ..
04:12:22.216519 IP bbr01euclwi-bue-4.eucl.wi.charter.com > 192.168.0.100: ICMP time exceeded in-transit, length 76
	0x0000:  7cd1 c394 9eb8 f81a 67cd 576e 0800 4500  |.......g.Wn..E.
	0x0010:  0060 f3ec 0000 f901 aa7d 6022 0204 c0a8  .`.......}`"....
	0x0020:  0064 0b00 e109 0000 00e0 4500 0034 93aa  .d........E..4..
	0x0030:  0000 0111 3957 c0a8 0064 4a7d e12e 9396  ....9W...dJ}....
	0x0040:  82ae 0020 fcb0 0000 0000 0000 0000 0000  ................
	0x0050:  0000 0000 0000 0000 0000 0000 0000 0000  ................
	0x0060:  0000 0000 0000 0000 0000 0000 0000       ..............
04:12:22.216782 IP 192.168.0.100.37782 > ord08s06-in-f14.1e100.net.33455: UDP, length 24
	0x0000:  f81a 67cd 576e 7cd1 c394 9eb8 0800 4500  ..g.Wn|.......E.
	0x0010:  0034 93ab 0000 0711 3356 c0a8 0064 4a7d  .4......3V...dJ}
	0x0020:  e12e 9396 82af 0020 fcaf 0000 0000 0000  ................
	0x0030:  0000 0000 0000 0000 0000 0000 0000 0000  ................
	0x0040:  0000                                     ..
04:12:22.232753 IP bbr01euclwi-bue-4.eucl.wi.charter.com > 192.168.0.100: ICMP time exceeded in-transit, length 76
	0x0000:  7cd1 c394 9eb8 f81a 67cd 576e 0800 4500  |.......g.Wn..E.
	0x0010:  0060 f3ed 0000 f901 aa7c 6022 0204 c0a8  .`.......|`"....
	0x0020:  0064 0b00 e109 0000 00e0 4500 0034 93ab  .d........E..4..
	0x0030:  0000 0111 3956 c0a8 0064 4a7d e12e 9396  ....9V...dJ}....
	0x0040:  82af 0020 fcaf 0000 0000 0000 0000 0000  ................
	0x0050:  0000 0000 0000 0000 0000 0000 0000 0000  ................
	0x0060:  0000 0000 0000 0000 0000 0000 0000       ..............
04:12:22.233023 IP 192.168.0.100.37782 > ord08s06-in-f14.1e100.net.33456: UDP, length 24
	0x0000:  f81a 67cd 576e 7cd1 c394 9eb8 0800 4500  ..g.Wn|.......E.
	0x0010:  0034 93ac 0000 0811 3255 c0a8 0064 4a7d  .4......2U...dJ}
	0x0020:  e12e 9396 82b0 0020 fcae 0000 0000 0000  ................
	0x0030:  0000 0000 0000 0000 0000 0000 0000 0000  ................
	0x0040:  0000                                     ..
04:12:22.252384 IP bbr02euclwi-bue-5.eucl.wi.charter.com > 192.168.0.100: ICMP time exceeded in-transit, length 76
	0x0000:  7cd1 c394 9eb8 f81a 67cd 576e 0800 4500  |.......g.Wn..E.
	0x0010:  0060 ce46 0000 f801 d320 6022 0007 c0a8  .`.F......`"....
	0x0020:  0064 0b00 e109 0000 00e0 4500 0034 93ac  .d........E..4..
	0x0030:  0000 0111 3955 c0a8 0064 4a7d e12e 9396  ....9U...dJ}....
	0x0040:  82b0 0020 fcae 0000 0000 0000 0000 0000  ................
	0x0050:  0000 0000 0000 0000 0000 0000 0000 0000  ................
	0x0060:  0000 0000 0000 0000 0000 0000 0000       ..............
04:12:22.252828 IP 192.168.0.100.37782 > ord08s06-in-f14.1e100.net.33457: UDP, length 24
	0x0000:  f81a 67cd 576e 7cd1 c394 9eb8 0800 4500  ..g.Wn|.......E.
	0x0010:  0034 93ad 0000 0811 3254 c0a8 0064 4a7d  .4......2T...dJ}
	0x0020:  e12e 9396 82b1 0020 fcad 0000 0000 0000  ................
	0x0030:  0000 0000 0000 0000 0000 0000 0000 0000  ................
	0x0040:  0000                                     ..
04:12:22.268006 IP bbr02euclwi-bue-5.eucl.wi.charter.com > 192.168.0.100: ICMP time exceeded in-transit, length 76
	0x0000:  7cd1 c394 9eb8 f81a 67cd 576e 0800 4500  |.......g.Wn..E.
	0x0010:  0060 ce47 0000 f801 d31f 6022 0007 c0a8  .`.G......`"....
	0x0020:  0064 0b00 e109 0000 00e0 4500 0034 93ad  .d........E..4..
	0x0030:  0000 0111 3954 c0a8 0064 4a7d e12e 9396  ....9T...dJ}....
	0x0040:  82b1 0020 fcad 0000 0000 0000 0000 0000  ................
	0x0050:  0000 0000 0000 0000 0000 0000 0000 0000  ................
	0x0060:  0000 0000 0000 0000 0000 0000 0000       ..............
04:12:22.268265 IP 192.168.0.100.37782 > ord08s06-in-f14.1e100.net.33458: UDP, length 24
	0x0000:  f81a 67cd 576e 7cd1 c394 9eb8 0800 4500  ..g.Wn|.......E.
	0x0010:  0034 93ae 0000 0811 3253 c0a8 0064 4a7d  .4......2S...dJ}
	0x0020:  e12e 9396 82b2 0020 fcac 0000 0000 0000  ................
	0x0030:  0000 0000 0000 0000 0000 0000 0000 0000  ................
	0x0040:  0000                                     ..
04:12:22.284325 IP bbr02euclwi-bue-5.eucl.wi.charter.com > 192.168.0.100: ICMP time exceeded in-transit, length 76
	0x0000:  7cd1 c394 9eb8 f81a 67cd 576e 0800 4500  |.......g.Wn..E.
	0x0010:  0060 ce49 0000 f801 d31d 6022 0007 c0a8  .`.I......`"....
	0x0020:  0064 0b00 e109 0000 00e0 4500 0034 93ae  .d........E..4..
	0x0030:  0000 0111 3953 c0a8 0064 4a7d e12e 9396  ....9S...dJ}....
	0x0040:  82b2 0020 fcac 0000 0000 0000 0000 0000  ................
	0x0050:  0000 0000 0000 0000 0000 0000 0000 0000  ................
	0x0060:  0000 0000 0000 0000 0000 0000 0000       ..............
04:12:22.284596 IP 192.168.0.100.37782 > ord08s06-in-f14.1e100.net.33459: UDP, length 24
	0x0000:  f81a 67cd 576e 7cd1 c394 9eb8 0800 4500  ..g.Wn|.......E.
	0x0010:  0034 93af 0000 0911 3152 c0a8 0064 4a7d  .4......1R...dJ}
	0x0020:  e12e 9396 82b3 0020 fcab 0000 0000 0000  ................
	0x0030:  0000 0000 0000 0000 0000 0000 0000 0000  ................
	0x0040:  0000                                     ..
04:12:22.306509 IP bbr01chcgil-bue-1.chcg.il.charter.com > 192.168.0.100: ICMP time exceeded in-transit, length 76
	0x0000:  7cd1 c394 9eb8 f81a 67cd 576e 0800 4500  |.......g.Wn..E.
	0x0010:  0060 3797 0000 f701 6ace 6022 0009 c0a8  .`7.....j.`"....
	0x0020:  0064 0b00 e109 0000 00e0 4500 0034 93af  .d........E..4..
	0x0030:  0000 0111 3952 c0a8 0064 4a7d e12e 9396  ....9R...dJ}....
	0x0040:  82b3 0020 fcab 0000 0000 0000 0000 0000  ................
	0x0050:  0000 0000 0000 0000 0000 0000 0000 0000  ................
	0x0060:  0000 0000 0000 0000 0000 0000 0000       ..............
04:12:22.307100 IP 192.168.0.100.37782 > ord08s06-in-f14.1e100.net.33460: UDP, length 24
	0x0000:  f81a 67cd 576e 7cd1 c394 9eb8 0800 4500  ..g.Wn|.......E.
	0x0010:  0034 93b0 0000 0911 3151 c0a8 0064 4a7d  .4......1Q...dJ}
	0x0020:  e12e 9396 82b4 0020 fcaa 0000 0000 0000  ................
	0x0030:  0000 0000 0000 0000 0000 0000 0000 0000  ................
	0x0040:  0000                                     ..
04:12:22.330461 IP bbr01chcgil-bue-1.chcg.il.charter.com > 192.168.0.100: ICMP time exceeded in-transit, length 76
	0x0000:  7cd1 c394 9eb8 f81a 67cd 576e 0800 4500  |.......g.Wn..E.
	0x0010:  0060 3799 0000 f701 6acc 6022 0009 c0a8  .`7.....j.`"....
	0x0020:  0064 0b00 e109 0000 00e0 4500 0034 93b0  .d........E..4..
	0x0030:  0000 0111 3951 c0a8 0064 4a7d e12e 9396  ....9Q...dJ}....
	0x0040:  82b4 0020 fcaa 0000 0000 0000 0000 0000  ................
	0x0050:  0000 0000 0000 0000 0000 0000 0000 0000  ................
	0x0060:  0000 0000 0000 0000 0000 0000 0000       ..............
04:12:22.330724 IP 192.168.0.100.37782 > ord08s06-in-f14.1e100.net.33461: UDP, length 24
	0x0000:  f81a 67cd 576e 7cd1 c394 9eb8 0800 4500  ..g.Wn|.......E.
	0x0010:  0034 93b1 0000 0911 3150 c0a8 0064 4a7d  .4......1P...dJ}
	0x0020:  e12e 9396 82b5 0020 fca9 0000 0000 0000  ................
	0x0030:  0000 0000 0000 0000 0000 0000 0000 0000  ................
	0x0040:  0000                                     ..
04:12:22.354416 IP bbr01chcgil-bue-1.chcg.il.charter.com > 192.168.0.100: ICMP time exceeded in-transit, length 76
	0x0000:  7cd1 c394 9eb8 f81a 67cd 576e 0800 4500  |.......g.Wn..E.
	0x0010:  0060 379b 0000 f701 6aca 6022 0009 c0a8  .`7.....j.`"....
	0x0020:  0064 0b00 e109 0000 00e0 4500 0034 93b1  .d........E..4..
	0x0030:  0000 0111 3950 c0a8 0064 4a7d e12e 9396  ....9P...dJ}....
	0x0040:  82b5 0020 fca9 0000 0000 0000 0000 0000  ................
	0x0050:  0000 0000 0000 0000 0000 0000 0000 0000  ................
	0x0060:  0000 0000 0000 0000 0000 0000 0000       ..............
04:12:22.354675 IP 192.168.0.100.37782 > ord08s06-in-f14.1e100.net.33462: UDP, length 24
	0x0000:  f81a 67cd 576e 7cd1 c394 9eb8 0800 4500  ..g.Wn|.......E.
	0x0010:  0034 93b2 0000 0a11 304f c0a8 0064 4a7d  .4......0O...dJ}
	0x0020:  e12e 9396 82b6 0020 fca8 0000 0000 0000  ................
	0x0030:  0000 0000 0000 0000 0000 0000 0000 0000  ................
	0x0040:  0000                                     ..
04:12:22.377241 IP prr01chcgil-bue-2.chcg.il.charter.com > 192.168.0.100: ICMP time exceeded in-transit, length 76
	0x0000:  7cd1 c394 9eb8 f81a 67cd 576e 0800 4500  |.......g.Wn..E.
	0x0010:  0060 509c 0000 f601 4fc9 6022 0309 c0a8  .`P.....O.`"....
	0x0020:  0064 0b00 e1e9 0000 0000 4500 0034 93b2  .d........E..4..
	0x0030:  0000 0111 394f c0a8 0064 4a7d e12e 9396  ....9O...dJ}....
	0x0040:  82b6 0020 fca8 0000 0000 0000 0000 0000  ................
	0x0050:  0000 0000 0000 0000 0000 0000 0000 0000  ................
	0x0060:  0000 0000 0000 0000 0000 0000 0000       ..............
04:12:22.377828 IP 192.168.0.100.37782 > ord08s06-in-f14.1e100.net.33463: UDP, length 24
	0x0000:  f81a 67cd 576e 7cd1 c394 9eb8 0800 4500  ..g.Wn|.......E.
	0x0010:  0034 93b3 0000 0a11 304e c0a8 0064 4a7d  .4......0N...dJ}
	0x0020:  e12e 9396 82b7 0020 fca7 0000 0000 0000  ................
	0x0030:  0000 0000 0000 0000 0000 0000 0000 0000  ................
	0x0040:  0000                                     ..
04:12:22.400355 IP prr01chcgil-bue-2.chcg.il.charter.com > 192.168.0.100: ICMP time exceeded in-transit, length 76
	0x0000:  7cd1 c394 9eb8 f81a 67cd 576e 0800 4500  |.......g.Wn..E.
	0x0010:  0060 509d 0000 f601 4fc8 6022 0309 c0a8  .`P.....O.`"....
	0x0020:  0064 0b00 e1e9 0000 0000 4500 0034 93b3  .d........E..4..
	0x0030:  0000 0111 394e c0a8 0064 4a7d e12e 9396  ....9N...dJ}....
	0x0040:  82b7 0020 fca7 0000 0000 0000 0000 0000  ................
	0x0050:  0000 0000 0000 0000 0000 0000 0000 0000  ................
	0x0060:  0000 0000 0000 0000 0000 0000 0000       ..............
04:12:22.400579 IP 192.168.0.100.37782 > ord08s06-in-f14.1e100.net.33464: UDP, length 24
	0x0000:  f81a 67cd 576e 7cd1 c394 9eb8 0800 4500  ..g.Wn|.......E.
	0x0010:  0034 93b4 0000 0a11 304d c0a8 0064 4a7d  .4......0M...dJ}
	0x0020:  e12e 9396 82b8 0020 fca6 0000 0000 0000  ................
	0x0030:  0000 0000 0000 0000 0000 0000 0000 0000  ................
	0x0040:  0000                                     ..
04:12:22.423936 IP prr01chcgil-bue-2.chcg.il.charter.com > 192.168.0.100: ICMP time exceeded in-transit, length 76
	0x0000:  7cd1 c394 9eb8 f81a 67cd 576e 0800 4500  |.......g.Wn..E.
	0x0010:  0060 50a1 0000 f601 4fc4 6022 0309 c0a8  .`P.....O.`"....
	0x0020:  0064 0b00 e1e9 0000 0000 4500 0034 93b4  .d........E..4..
	0x0030:  0000 0111 394d c0a8 0064 4a7d e12e 9396  ....9M...dJ}....
	0x0040:  82b8 0020 fca6 0000 0000 0000 0000 0000  ................
	0x0050:  0000 0000 0000 0000 0000 0000 0000 0000  ................
	0x0060:  0000 0000 0000 0000 0000 0000 0000       ..............
04:12:22.424199 IP 192.168.0.100.37782 > ord08s06-in-f14.1e100.net.33465: UDP, length 24
	0x0000:  f81a 67cd 576e 7cd1 c394 9eb8 0800 4500  ..g.Wn|.......E.
	0x0010:  0034 93b5 0000 0b11 2f4c c0a8 0064 4a7d  .4....../L...dJ}
	0x0020:  e12e 9396 82b9 0020 fca5 0000 0000 0000  ................
	0x0030:  0000 0000 0000 0000 0000 0000 0000 0000  ................
	0x0040:  0000                                     ..
04:12:22.447316 IP 96-34-152-30.static.unas.mo.charter.com > 192.168.0.100: ICMP time exceeded in-transit, length 36
	0x0000:  7cd1 c394 9eb8 f81a 67cd 576e 0800 4500  |.......g.Wn..E.
	0x0010:  0038 0000 0000 f501 0c78 6022 981e c0a8  .8.......x`"....
	0x0020:  0064 0b00 e1e9 0000 0000 4500 0034 93b5  .d........E..4..
	0x0030:  0000 0111 394c c0a8 0064 4a7d e12e 9396  ....9L...dJ}....
	0x0040:  82b9 0020 fca5                           ......
04:12:22.447607 IP 192.168.0.100.37782 > ord08s06-in-f14.1e100.net.33466: UDP, length 24
	0x0000:  f81a 67cd 576e 7cd1 c394 9eb8 0800 4500  ..g.Wn|.......E.
	0x0010:  0034 93b6 0000 0b11 2f4b c0a8 0064 4a7d  .4....../K...dJ}
	0x0020:  e12e 9396 82ba 0020 fca4 0000 0000 0000  ................
	0x0030:  0000 0000 0000 0000 0000 0000 0000 0000  ................
	0x0040:  0000                                     ..
04:12:22.468717 IP 96-34-152-30.static.unas.mo.charter.com > 192.168.0.100: ICMP time exceeded in-transit, length 36
	0x0000:  7cd1 c394 9eb8 f81a 67cd 576e 0800 4500  |.......g.Wn..E.
	0x0010:  0038 0000 0000 f501 0c78 6022 981e c0a8  .8.......x`"....
	0x0020:  0064 0b00 e1e9 0000 0000 4500 0034 93b6  .d........E..4..
	0x0030:  0000 0111 394b c0a8 0064 4a7d e12e 9396  ....9K...dJ}....
	0x0040:  82ba 0020 fca4                           ......
04:12:22.468808 IP 192.168.0.100.37782 > ord08s06-in-f14.1e100.net.33467: UDP, length 24
	0x0000:  f81a 67cd 576e 7cd1 c394 9eb8 0800 4500  ..g.Wn|.......E.
	0x0010:  0034 93b7 0000 0b11 2f4a c0a8 0064 4a7d  .4....../J...dJ}
	0x0020:  e12e 9396 82bb 0020 fca3 0000 0000 0000  ................
	0x0030:  0000 0000 0000 0000 0000 0000 0000 0000  ................
	0x0040:  0000                                     ..
04:12:22.490988 IP 96-34-152-30.static.unas.mo.charter.com > 192.168.0.100: ICMP time exceeded in-transit, length 36
	0x0000:  7cd1 c394 9eb8 f81a 67cd 576e 0800 4500  |.......g.Wn..E.
	0x0010:  0038 0000 0000 f501 0c78 6022 981e c0a8  .8.......x`"....
	0x0020:  0064 0b00 e1e9 0000 0000 4500 0034 93b7  .d........E..4..
	0x0030:  0000 0111 394a c0a8 0064 4a7d e12e 9396  ....9J...dJ}....
	0x0040:  82bb 0020 fca3                           ......
04:12:22.491113 IP 192.168.0.100.37782 > ord08s06-in-f14.1e100.net.33468: UDP, length 24
	0x0000:  f81a 67cd 576e 7cd1 c394 9eb8 0800 4500  ..g.Wn|.......E.
	0x0010:  0034 93b8 0000 0c11 2e49 c0a8 0064 4a7d  .4.......I...dJ}
	0x0020:  e12e 9396 82bc 0020 fca2 0000 0000 0000  ................
	0x0030:  0000 0000 0000 0000 0000 0000 0000 0000  ................
	0x0040:  0000                                     ..
04:12:22.512803 IP 209.85.254.120 > 192.168.0.100: ICMP time exceeded in-transit, length 36
	0x0000:  7cd1 c394 9eb8 f81a 67cd 576e 0800 4500  |.......g.Wn..E.
	0x0010:  0038 0000 0000 f401 35ea d155 fe78 c0a8  .8......5..U.x..
	0x0020:  0064 0b00 e1e9 0000 0000 4580 0034 93b8  .d........E..4..
	0x0030:  0000 0111 38c9 c0a8 0064 4a7d e12e 9396  ....8....dJ}....
	0x0040:  82bc 0020 fca2                           ......
04:12:22.513395 IP 192.168.0.100.37782 > ord08s06-in-f14.1e100.net.33469: UDP, length 24
	0x0000:  f81a 67cd 576e 7cd1 c394 9eb8 0800 4500  ..g.Wn|.......E.
	0x0010:  0034 93b9 0000 0c11 2e48 c0a8 0064 4a7d  .4.......H...dJ}
	0x0020:  e12e 9396 82bd 0020 fca1 0000 0000 0000  ................
	0x0030:  0000 0000 0000 0000 0000 0000 0000 0000  ................
	0x0040:  0000                                     ..
04:12:22.534718 IP 209.85.254.120 > 192.168.0.100: ICMP time exceeded in-transit, length 36
	0x0000:  7cd1 c394 9eb8 f81a 67cd 576e 0800 4500  |.......g.Wn..E.
	0x0010:  0038 0000 0000 f401 35ea d155 fe78 c0a8  .8......5..U.x..
	0x0020:  0064 0b00 e1e9 0000 0000 4580 0034 93b9  .d........E..4..
	0x0030:  0000 0111 38c8 c0a8 0064 4a7d e12e 9396  ....8....dJ}....
	0x0040:  82bd 0020 fca1                           ......
04:12:22.534957 IP 192.168.0.100.37782 > ord08s06-in-f14.1e100.net.33470: UDP, length 24
	0x0000:  f81a 67cd 576e 7cd1 c394 9eb8 0800 4500  ..g.Wn|.......E.
	0x0010:  0034 93ba 0000 0c11 2e47 c0a8 0064 4a7d  .4.......G...dJ}
	0x0020:  e12e 9396 82be 0020 fca0 0000 0000 0000  ................
	0x0030:  0000 0000 0000 0000 0000 0000 0000 0000  ................
	0x0040:  0000                                     ..
04:12:22.561546 IP 209.85.254.120 > 192.168.0.100: ICMP time exceeded in-transit, length 36
	0x0000:  7cd1 c394 9eb8 f81a 67cd 576e 0800 4500  |.......g.Wn..E.
	0x0010:  0038 0000 0000 f401 35ea d155 fe78 c0a8  .8......5..U.x..
	0x0020:  0064 0b00 e1e9 0000 0000 4580 0034 93ba  .d........E..4..
	0x0030:  0000 0111 38c7 c0a8 0064 4a7d e12e 9396  ....8....dJ}....
	0x0040:  82be 0020 fca0                           ......
04:12:22.561814 IP 192.168.0.100.37782 > ord08s06-in-f14.1e100.net.33471: UDP, length 24
	0x0000:  f81a 67cd 576e 7cd1 c394 9eb8 0800 4500  ..g.Wn|.......E.
	0x0010:  0034 93bb 0000 0d11 2d46 c0a8 0064 4a7d  .4......-F...dJ}
	0x0020:  e12e 9396 82bf 0020 fc9f 0000 0000 0000  ................
	0x0030:  0000 0000 0000 0000 0000 0000 0000 0000  ................
	0x0040:  0000                                     ..
04:12:22.583759 IP 209.85.250.28 > 192.168.0.100: ICMP time exceeded in-transit, length 36
	0x0000:  7cd1 c394 9eb8 f81a 67cd 576e 0800 4500  |.......g.Wn..E.
	0x0010:  0038 e454 0000 f301 56f1 d155 fa1c c0a8  .8.T....V..U....
	0x0020:  0064 0b00 e1e9 0000 0000 4580 0034 93bb  .d........E..4..
	0x0030:  0000 0111 38c6 c0a8 0064 4a7d e12e 9396  ....8....dJ}....
	0x0040:  82bf 0020 fc9f                           ......
04:12:22.584391 IP 192.168.0.100.37782 > ord08s06-in-f14.1e100.net.33472: UDP, length 24
	0x0000:  f81a 67cd 576e 7cd1 c394 9eb8 0800 4500  ..g.Wn|.......E.
	0x0010:  0034 93bc 0000 0d11 2d45 c0a8 0064 4a7d  .4......-E...dJ}
	0x0020:  e12e 9396 82c0 0020 fc9e 0000 0000 0000  ................
	0x0030:  0000 0000 0000 0000 0000 0000 0000 0000  ................
	0x0040:  0000                                     ..
04:12:22.605753 IP 209.85.250.28 > 192.168.0.100: ICMP time exceeded in-transit, length 36
	0x0000:  7cd1 c394 9eb8 f81a 67cd 576e 0800 4500  |.......g.Wn..E.
	0x0010:  0038 e455 0000 f301 56f0 d155 fa1c c0a8  .8.U....V..U....
	0x0020:  0064 0b00 e1e9 0000 0000 4580 0034 93bc  .d........E..4..
	0x0030:  0000 0111 38c5 c0a8 0064 4a7d e12e 9396  ....8....dJ}....
	0x0040:  82c0 0020 fc9e                           ......
04:12:22.606015 IP 192.168.0.100.37782 > ord08s06-in-f14.1e100.net.33473: UDP, length 24
	0x0000:  f81a 67cd 576e 7cd1 c394 9eb8 0800 4500  ..g.Wn|.......E.
	0x0010:  0034 93bd 0000 0d11 2d44 c0a8 0064 4a7d  .4......-D...dJ}
	0x0020:  e12e 9396 82c1 0020 fc9d 0000 0000 0000  ................
	0x0030:  0000 0000 0000 0000 0000 0000 0000 0000  ................
	0x0040:  0000                                     ..
04:12:22.628562 IP 209.85.250.28 > 192.168.0.100: ICMP time exceeded in-transit, length 36
	0x0000:  7cd1 c394 9eb8 f81a 67cd 576e 0800 4500  |.......g.Wn..E.
	0x0010:  0038 e456 0000 f301 56ef d155 fa1c c0a8  .8.V....V..U....
	0x0020:  0064 0b00 e1e9 0000 0000 4580 0034 93bd  .d........E..4..
	0x0030:  0000 0111 38c4 c0a8 0064 4a7d e12e 9396  ....8....dJ}....
	0x0040:  82c1 0020 fc9d                           ......
04:12:22.628816 IP 192.168.0.100.37782 > ord08s06-in-f14.1e100.net.33474: UDP, length 24
	0x0000:  f81a 67cd 576e 7cd1 c394 9eb8 0800 4500  ..g.Wn|.......E.
	0x0010:  0034 93be 0000 0e11 2c43 c0a8 0064 4a7d  .4......,C...dJ}
	0x0020:  e12e 9396 82c2 0020 fc9c 0000 0000 0000  ................
	0x0030:  0000 0000 0000 0000 0000 0000 0000 0000  ................
	0x0040:  0000                                     ..
04:12:22.650444 IP ord08s06-in-f14.1e100.net > 192.168.0.100: ICMP ord08s06-in-f14.1e100.net udp port 33474 unreachable, length 60
	0x0000:  7cd1 c394 9eb8 f81a 67cd 576e 0800 4500  |.......g.Wn..E.
	0x0010:  0050 908d 0000 3301 0a68 4a7d e12e c0a8  .P....3..hJ}....
	0x0020:  0064 0303 e9e6 0000 0000 4580 0034 93be  .d........E..4..
	0x0030:  0000 0111 38c3 c0a8 0064 4a7d e12e 9396  ....8....dJ}....
	0x0040:  82c2 0020 fc9c 0000 0000 0000 0000 0000  ................
	0x0050:  0000 0000 0000 0000 0000 0000 0000       ..............
04:12:22.651037 IP 192.168.0.100.37782 > ord08s06-in-f14.1e100.net.33475: UDP, length 24
	0x0000:  f81a 67cd 576e 7cd1 c394 9eb8 0800 4500  ..g.Wn|.......E.
	0x0010:  0034 93bf 0000 0e11 2c42 c0a8 0064 4a7d  .4......,B...dJ}
	0x0020:  e12e 9396 82c3 0020 fc9b 0000 0000 0000  ................
	0x0030:  0000 0000 0000 0000 0000 0000 0000 0000  ................
	0x0040:  0000                                     ..
04:12:22.672457 IP ord08s06-in-f14.1e100.net > 192.168.0.100: ICMP ord08s06-in-f14.1e100.net udp port 33475 unreachable, length 60
	0x0000:  7cd1 c394 9eb8 f81a 67cd 576e 0800 4500  |.......g.Wn..E.
	0x0010:  0050 1c47 0000 3301 7eae 4a7d e12e c0a8  .P.G..3.~.J}....
	0x0020:  0064 0303 e9e6 0000 0000 4580 0034 93bf  .d........E..4..
	0x0030:  0000 0111 38c2 c0a8 0064 4a7d e12e 9396  ....8....dJ}....
	0x0040:  82c3 0020 fc9b 0000 0000 0000 0000 0000  ................
	0x0050:  0000 0000 0000 0000 0000 0000 0000       ..............
04:12:22.672626 IP 192.168.0.100.37782 > ord08s06-in-f14.1e100.net.33476: UDP, length 24
	0x0000:  f81a 67cd 576e 7cd1 c394 9eb8 0800 4500  ..g.Wn|.......E.
	0x0010:  0034 93c0 0000 0e11 2c41 c0a8 0064 4a7d  .4......,A...dJ}
	0x0020:  e12e 9396 82c4 0020 fc9a 0000 0000 0000  ................
	0x0030:  0000 0000 0000 0000 0000 0000 0000 0000  ................
	0x0040:  0000                                     ..
04:12:22.692514 IP ord08s06-in-f14.1e100.net > 192.168.0.100: ICMP ord08s06-in-f14.1e100.net udp port 33476 unreachable, length 60
	0x0000:  7cd1 c394 9eb8 f81a 67cd 576e 0800 4500  |.......g.Wn..E.
	0x0010:  0050 bb19 0000 3301 dfdb 4a7d e12e c0a8  .P....3...J}....
	0x0020:  0064 0303 e9e6 0000 0000 4580 0034 93c0  .d........E..4..
	0x0030:  0000 0111 38c1 c0a8 0064 4a7d e12e 9396  ....8....dJ}....
	0x0040:  82c4 0020 fc9a 0000 0000 0000 0000 0000  ................
	0x0050:  0000 0000 0000 0000 0000 0000 0000       ..............
04:12:33.878675 IP 192.168.0.104.mdns > 224.0.0.251.mdns: 0*- [0q] 1/0/0 TXT "model=N51AP" (80)
	0x0000:  0100 5e00 00fb e498 d624 7f3a 0800 4500  ..^......$.:..E.
	0x0010:  006c ddc8 0000 ff11 3bac c0a8 0068 e000  .l......;....h..
	0x0020:  00fb 14e9 14e9 0058 62c0 0000 8400 0000  .......Xb.......
	0x0030:  0001 0000 0000 1453 6861 776e 2058 4941  .......Shawn.XIA
	0x0040:  e280 9973 2069 5068 6f6e 650c 5f64 6576  ...s.iPhone._dev
	0x0050:  6963 652d 696e 666f 045f 7463 7005 6c6f  ice-info._tcp.lo
	0x0060:  6361 6c00 0010 0001 0000 1194 000c 0b6d  cal............m
	0x0070:  6f64 656c 3d4e 3531 4150                 odel=N51AP
04:12:33.878966 IP6 fe80::c2f:f80d:116b:e77.mdns > ff02::fb.mdns: 0*- [0q] 1/0/0 TXT "model=N51AP" (80)
	0x0000:  3333 0000 00fb e498 d624 7f3a 86dd 6003  33.......$.:..`.
	0x0010:  f248 0058 11ff fe80 0000 0000 0000 0c2f  .H.X.........../
	0x0020:  f80d 116b 0e77 ff02 0000 0000 0000 0000  ...k.w..........
	0x0030:  0000 0000 00fb 14e9 14e9 0058 e22e 0000  ...........X....
	0x0040:  8400 0000 0001 0000 0000 1453 6861 776e  ...........Shawn
	0x0050:  2058 4941 e280 9973 2069 5068 6f6e 650c  .XIA...s.iPhone.
	0x0060:  5f64 6576 6963 652d 696e 666f 045f 7463  _device-info._tc
	0x0070:  7005 6c6f 6361 6c00 0010 0001 0000 1194  p.local.........
	0x0080:  000c 0b6d 6f64 656c 3d4e 3531 4150       ...model=N51AP
04:12:34.799111 IP 192.168.0.104.mdns > 224.0.0.251.mdns: 0*- [0q] 1/0/0 TXT "model=N51AP" (80)
	0x0000:  0100 5e00 00fb e498 d624 7f3a 0800 4500  ..^......$.:..E.
	0x0010:  006c feae 0000 ff11 1ac6 c0a8 0068 e000  .l...........h..
	0x0020:  00fb 14e9 14e9 0058 62c0 0000 8400 0000  .......Xb.......
	0x0030:  0001 0000 0000 1453 6861 776e 2058 4941  .......Shawn.XIA
	0x0040:  e280 9973 2069 5068 6f6e 650c 5f64 6576  ...s.iPhone._dev
	0x0050:  6963 652d 696e 666f 045f 7463 7005 6c6f  ice-info._tcp.lo
	0x0060:  6361 6c00 0010 0001 0000 1194 000c 0b6d  cal............m
	0x0070:  6f64 656c 3d4e 3531 4150                 odel=N51AP
