04:45:49.765344 IP 192.168.0.100.58757 > 202.120.2.2.ftp: Flags [S], seq 3837929012, win 65535, options [mss 1460,nop,wscale 4,nop,nop,TS val 71620437 ecr 0,sackOK,eol], length 0
	0x0000:  f81a 67cd 576e 7cd1 c394 9eb8 0800 4500  ..g.Wn|.......E.
	0x0010:  0040 199a 4000 4006 9397 c0a8 0064 ca78  .@..@.@......d.x
	0x0020:  0202 e585 0015 e4c2 2634 0000 0000 b002  ........&4......
	0x0030:  ffff dd4b 0000 0204 05b4 0103 0304 0101  ...K............
	0x0040:  080a 0444 d755 0000 0000 0402 0000       ...D.U........
04:45:50.168960 IP 202.120.2.2.ftp > 192.168.0.100.58757: Flags [S.], seq 308496191, ack 3837929013, win 5792, options [mss 1448,sackOK,TS val 3100691707 ecr 71620437,nop,wscale 7], length 0
	0x0000:  7cd1 c394 9eb8 f81a 67cd 576e 0800 4500  |.......g.Wn..E.
	0x0010:  003c 0000 4000 1e06 cf35 ca78 0202 c0a8  .<..@....5.x....
	0x0020:  0064 0015 e585 1263 473f e4c2 2635 a012  .d.....cG?..&5..
	0x0030:  16a0 f839 0000 0204 05a8 0402 080a b8d0  ...9............
	0x0040:  ccfb 0444 d755 0103 0307                 ...D.U....
04:45:50.169037 IP 192.168.0.100.58757 > 202.120.2.2.ftp: Flags [.], ack 1, win 8257, options [nop,nop,TS val 71620840 ecr 3100691707], length 0
	0x0000:  f81a 67cd 576e 7cd1 c394 9eb8 0800 4500  ..g.Wn|.......E.
	0x0010:  0034 8fb8 4000 4006 1d85 c0a8 0064 ca78  .4..@.@......d.x
	0x0020:  0202 e585 0015 e4c2 2635 1263 4740 8010  ........&5.cG@..
	0x0030:  2041 1bc6 0000 0101 080a 0444 d8e8 b8d0  .A.........D....
	0x0040:  ccfb                                     ..
04:45:50.578031 IP 202.120.2.2.ftp > 192.168.0.100.58757: Flags [P.], seq 1:7, ack 1, win 46, options [nop,nop,TS val 3100692121 ecr 71620840], length 6
	0x0000:  7cd1 c394 9eb8 f81a 67cd 576e 0800 4500  |.......g.Wn..E.
	0x0010:  003a 89ca 4000 1e06 456d ca78 0202 c0a8  .:..@...Em.x....
	0x0020:  0064 0015 e585 1263 4740 e4c2 2635 8018  .d.....cG@..&5..
	0x0030:  002e cac3 0000 0101 080a b8d0 ce99 0444  ...............D
	0x0040:  d8e8 3232 302d 0d0a                      ..220-..
04:45:50.578115 IP 192.168.0.100.58757 > 202.120.2.2.ftp: Flags [.], ack 7, win 8256, options [nop,nop,TS val 71621249 ecr 3100692121], length 0
	0x0000:  f81a 67cd 576e 7cd1 c394 9eb8 0800 4500  ..g.Wn|.......E.
	0x0010:  0034 96eb 4000 4006 1652 c0a8 0064 ca78  .4..@.@..R...d.x
	0x0020:  0202 e585 0015 e4c2 2635 1263 4746 8010  ........&5.cGF..
	0x0030:  2040 188a 0000 0101 080a 0444 da81 b8d0  .@.........D....
	0x0040:  ce99                                     ..
04:45:50.987257 IP 202.120.2.2.ftp > 192.168.0.100.58757: Flags [P.], seq 7:418, ack 1, win 46, options [nop,nop,TS val 3100692516 ecr 71621249], length 411
	0x0000:  7cd1 c394 9eb8 f81a 67cd 576e 0800 4500  |.......g.Wn..E.
	0x0010:  01cf 89cb 4000 1e06 43d7 ca78 0202 c0a8  ....@...C..x....
	0x0020:  0064 0015 e585 1263 4746 e4c2 2635 8018  .d.....cGF..&5..
	0x0030:  002e c380 0000 0101 080a b8d0 d024 0444  .............$.D
	0x0040:  da81 3232 302d 2020 2d2d 2057 656c 636f  ..220-..--.Welco
	0x0050:  6d65 2074 6f20 506f 7274 616c 206f 6620  me.to.Portal.of.
	0x0060:  5368 616e 6768 6169 204a 6961 6f20 546f  Shanghai.Jiao.To
	0x0070:  6e67 2055 6e69 7665 7273 6974 7920 2d2d  ng.University.--
	0x0080:  0d0a 3232 302d 2020 2d59 6f75 2061 7265  ..220-..-You.are
	0x0090:  206e 756d 6265 7220 3232 206f 6620 3132  .number.22.of.12
	0x00a0:  3030 2061 6c6c 6f77 6564 2075 7365 7273  00.allowed.users
	0x00b0:  2e0d 0a32 3230 2d20 202d 4c6f 6361 6c20  ...220-..-Local.
	0x00c0:  7469 6d65 2069 7320 4d6f 6e20 4665 6220  time.is.Mon.Feb.
	0x00d0:  3234 2031 363a 3435 3a35 3020 3230 3134  24.16:45:50.2014
	0x00e0:  206e 6f77 2e0d 0a32 3230 2d20 202d 5468  .now...220-..-Th
	0x00f0:  6973 2069 7320 6120 7072 6976 6174 6520  is.is.a.private.
	0x0100:  7379 7374 656d 202d 204e 6f20 616e 6f6e  system.-.No.anon
	0x0110:  796d 6f75 7320 6c6f 6769 6e20 616c 6c6f  ymous.login.allo
	0x0120:  7765 640d 0a32 3230 2d20 202d 596f 7520  wed..220-..-You.
	0x0130:  7769 6c6c 2062 6520 6469 7363 6f6e 6e65  will.be.disconne
	0x0140:  6374 6564 2061 6674 6572 2031 3520 6d69  cted.after.15.mi
	0x0150:  6e75 7465 7320 6f66 2069 6e61 6374 6976  nutes.of.inactiv
	0x0160:  6974 792e 0d0a 3232 302d 2020 2d2d 2d2d  ity...220-..----
	0x0170:  2d2d 2d2d 2d2d 2d2d 2d2d 2d2d 2d2d 2d2d  ----------------
	0x0180:  2d2d 2d2d 2d2d 2d2d 2d2d 2d2d 2d2d 2d2d  ----------------
	0x0190:  2d2d 2d2d 2d2d 2d2d 2d2d 2d2d 2d2d 2d2d  ----------------
	0x01a0:  2d2d 2d2d 2d0d 0a32 3230 2050 726f 4654  -----..220.ProFT
	0x01b0:  5044 2031 2e33 2e32 2053 6572 7665 7220  PD.1.3.2.Server.
	0x01c0:  2870 7562 6c69 635f 534a 5455 2920 5b32  (public_SJTU).[2
	0x01d0:  3032 2e31 3230 2e32 2e32 5d0d 0a         02.120.2.2]..
04:45:50.987330 IP 192.168.0.100.58757 > 202.120.2.2.ftp: Flags [.], ack 418, win 8230, options [nop,nop,TS val 71621656 ecr 3100692516], length 0
	0x0000:  f81a 67cd 576e 7cd1 c394 9eb8 0800 4500  ..g.Wn|.......E.
	0x0010:  0034 67fe 4000 4006 453f c0a8 0064 ca78  .4g.@.@.E?...d.x
	0x0020:  0202 e585 0015 e4c2 2635 1263 48e1 8010  ........&5.cH...
	0x0030:  2026 13e7 0000 0101 080a 0444 dc18 b8d0  .&.........D....
	0x0040:  d024                                     .$
04:45:50.987636 IP 192.168.0.100.58757 > 202.120.2.2.ftp: Flags [P.], seq 1:19, ack 418, win 8230, options [nop,nop,TS val 71621656 ecr 3100692516], length 18
	0x0000:  f81a 67cd 576e 7cd1 c394 9eb8 0800 4500  ..g.Wn|.......E.
	0x0010:  0046 44bf 4000 4006 686c c0a8 0064 ca78  .FD.@.@.hl...d.x
	0x0020:  0202 e585 0015 e4c2 2635 1263 48e1 8018  ........&5.cH...
	0x0030:  2026 2992 0000 0101 080a 0444 dc18 b8d0  .&)........D....
	0x0040:  d024 5553 4552 2073 6869 6e69 6e67 6d6f  .$USER.shiningmo
	0x0050:  6f6e 0d0a                                on..
04:45:51.396462 IP 202.120.2.2.ftp > 192.168.0.100.58757: Flags [.], ack 19, win 46, options [nop,nop,TS val 3100692929 ecr 71621656], length 0
	0x0000:  7cd1 c394 9eb8 f81a 67cd 576e 0800 4500  |.......g.Wn..E.
	0x0010:  0034 89cc 4000 1e06 4571 ca78 0202 c0a8  .4..@...Eq.x....
	0x0020:  0064 0015 e585 1263 48e1 e4c2 2647 8010  .d.....cH...&G..
	0x0030:  002e 3230 0000 0101 080a b8d0 d1c1 0444  ..20...........D
	0x0040:  dc18                                     ..
04:45:51.396526 IP 202.120.2.2.ftp > 192.168.0.100.58757: Flags [P.], seq 418:457, ack 19, win 46, options [nop,nop,TS val 3100692931 ecr 71621656], length 39
	0x0000:  7cd1 c394 9eb8 f81a 67cd 576e 0800 4500  |.......g.Wn..E.
	0x0010:  005b 89cd 4000 1e06 4549 ca78 0202 c0a8  .[..@...EI.x....
	0x0020:  0064 0015 e585 1263 48e1 e4c2 2647 8018  .d.....cH...&G..
	0x0030:  002e e070 0000 0101 080a b8d0 d1c3 0444  ...p...........D
	0x0040:  dc18 3333 3120 5061 7373 776f 7264 2072  ..331.Password.r
	0x0050:  6571 7569 7265 6420 666f 7220 7368 696e  equired.for.shin
	0x0060:  696e 676d 6f6f 6e0d 0a                   ingmoon..
04:45:51.396594 IP 192.168.0.100.58757 > 202.120.2.2.ftp: Flags [.], ack 457, win 8228, options [nop,nop,TS val 71622063 ecr 3100692931], length 0
	0x0000:  f81a 67cd 576e 7cd1 c394 9eb8 0800 4500  ..g.Wn|.......E.
	0x0010:  0034 4398 4000 4006 69a5 c0a8 0064 ca78  .4C.@.@.i....d.x
	0x0020:  0202 e585 0015 e4c2 2647 1263 4908 8010  ........&G.cI...
	0x0030:  2024 107a 0000 0101 080a 0444 ddaf b8d0  .$.z.......D....
	0x0040:  d1c3                                     ..
04:45:51.396838 IP 192.168.0.100.58757 > 202.120.2.2.ftp: Flags [P.], seq 19:32, ack 457, win 8228, options [nop,nop,TS val 71622063 ecr 3100692931], length 13
	0x0000:  f81a 67cd 576e 7cd1 c394 9eb8 0800 4500  ..g.Wn|.......E.
	0x0010:  0041 33c3 4000 4006 796d c0a8 0064 ca78  .A3.@.@.ym...d.x
	0x0020:  0202 e585 0015 e4c2 2647 1263 4908 8018  ........&G.cI...
	0x0030:  2024 fd86 0000 0101 080a 0444 ddaf b8d0  .$.........D....
	0x0040:  d1c3 5041 5353 2070 7562 6c69 630d 0a    ..PASS.public..
04:45:51.805337 IP 202.120.2.2.ftp > 192.168.0.100.58757: Flags [P.], seq 457:495, ack 32, win 46, options [nop,nop,TS val 3100693374 ecr 71622063], length 38
	0x0000:  7cd1 c394 9eb8 f81a 67cd 576e 0800 4500  |.......g.Wn..E.
	0x0010:  005a 89ce 4000 1e06 4549 ca78 0202 c0a8  .Z..@...EI.x....
	0x0020:  0064 0015 e585 1263 4908 e4c2 2654 8018  .d.....cI...&T..
	0x0030:  002e 04e0 0000 0101 080a b8d0 d37e 0444  .............~.D
	0x0040:  ddaf 3233 302d 2020 5175 6f74 6173 206f  ..230-..Quotas.o
	0x0050:  6e3a 2031 372e 3731 204d 422f 3530 302e  n:.17.71.MB/500.
	0x0060:  3030 204d 4220 0d0a                      00.MB...
04:45:51.805405 IP 192.168.0.100.58757 > 202.120.2.2.ftp: Flags [.], ack 495, win 8226, options [nop,nop,TS val 71622470 ecr 3100693374], length 0
	0x0000:  f81a 67cd 576e 7cd1 c394 9eb8 0800 4500  ..g.Wn|.......E.
	0x0010:  0034 599b 4000 4006 53a2 c0a8 0064 ca78  .4Y.@.@.S....d.x
	0x0020:  0202 e585 0015 e4c2 2654 1263 492e 8010  ........&T.cI...
	0x0030:  2022 0cf7 0000 0101 080a 0444 df46 b8d0  .".........D.F..
	0x0040:  d37e                                     .~
04:45:52.215464 IP 202.120.2.2.ftp > 192.168.0.100.58757: Flags [P.], seq 495:527, ack 32, win 46, options [nop,nop,TS val 3100693743 ecr 71622470], length 32
	0x0000:  7cd1 c394 9eb8 f81a 67cd 576e 0800 4500  |.......g.Wn..E.
	0x0010:  0054 89cf 4000 1e06 454e ca78 0202 c0a8  .T..@...EN.x....
	0x0020:  0064 0015 e585 1263 492e e4c2 2654 8018  .d.....cI...&T..
	0x0030:  002e f9bb 0000 0101 080a b8d0 d4ef 0444  ...............D
	0x0040:  df46 3233 3020 5573 6572 2073 6869 6e69  .F230.User.shini
	0x0050:  6e67 6d6f 6f6e 206c 6f67 6765 6420 696e  ngmoon.logged.in
	0x0060:  0d0a                                     ..
04:45:52.215539 IP 192.168.0.100.58757 > 202.120.2.2.ftp: Flags [.], ack 527, win 8224, options [nop,nop,TS val 71622879 ecr 3100693743], length 0
	0x0000:  f81a 67cd 576e 7cd1 c394 9eb8 0800 4500  ..g.Wn|.......E.
	0x0010:  0034 c5a4 4000 4006 e798 c0a8 0064 ca78  .4..@.@......d.x
	0x0020:  0202 e585 0015 e4c2 2654 1263 494e 8010  ........&T.cIN..
	0x0030:  2020 09cf 0000 0101 080a 0444 e0df b8d0  ...........D....
	0x0040:  d4ef                                     ..
04:45:52.215768 IP 192.168.0.100.58757 > 202.120.2.2.ftp: Flags [P.], seq 32:38, ack 527, win 8224, options [nop,nop,TS val 71622879 ecr 3100693743], length 6
	0x0000:  f81a 67cd 576e 7cd1 c394 9eb8 0800 4500  ..g.Wn|.......E.
	0x0010:  003a 8188 4000 4006 2baf c0a8 0064 ca78  .:..@.@.+....d.x
	0x0020:  0202 e585 0015 e4c2 2654 1263 494e 8018  ........&T.cIN..
	0x0030:  2020 5609 0000 0101 080a 0444 e0df b8d0  ..V........D....
	0x0040:  d4ef 5359 5354 0d0a                      ..SYST..
04:45:52.623349 IP 202.120.2.2.ftp > 192.168.0.100.58757: Flags [P.], seq 527:546, ack 38, win 46, options [nop,nop,TS val 3100694157 ecr 71622879], length 19
	0x0000:  7cd1 c394 9eb8 f81a 67cd 576e 0800 4500  |.......g.Wn..E.
	0x0010:  0047 89d0 4000 1e06 455a ca78 0202 c0a8  .G..@...EZ.x....
	0x0020:  0064 0015 e585 1263 494e e4c2 265a 8018  .d.....cIN..&Z..
	0x0030:  002e c0b1 0000 0101 080a b8d0 d68d 0444  ...............D
	0x0040:  e0df 3231 3520 554e 4958 2054 7970 653a  ..215.UNIX.Type:
	0x0050:  204c 380d 0a                             .L8..
04:45:52.623440 IP 192.168.0.100.58757 > 202.120.2.2.ftp: Flags [.], ack 546, win 8222, options [nop,nop,TS val 71623285 ecr 3100694157], length 0
	0x0000:  f81a 67cd 576e 7cd1 c394 9eb8 0800 4500  ..g.Wn|.......E.
	0x0010:  0034 90bc 4000 4006 1c81 c0a8 0064 ca78  .4..@.@......d.x
	0x0020:  0202 e585 0015 e4c2 265a 1263 4961 8010  ........&Z.cIa..
	0x0030:  201e 0684 0000 0101 080a 0444 e275 b8d0  ...........D.u..
	0x0040:  d68d                                     ..
04:45:52.623846 IP 192.168.0.100.58757 > 202.120.2.2.ftp: Flags [P.], seq 38:44, ack 546, win 8222, options [nop,nop,TS val 71623285 ecr 3100694157], length 6
	0x0000:  f81a 67cd 576e 7cd1 c394 9eb8 0800 4500  ..g.Wn|.......E.
	0x0010:  003a 5b19 4000 4006 521e c0a8 0064 ca78  .:[.@.@.R....d.x
	0x0020:  0202 e585 0015 e4c2 265a 1263 4961 8018  ........&Z.cIa..
	0x0030:  201e 71d2 0000 0101 080a 0444 e275 b8d0  ..q........D.u..
	0x0040:  d68d 4645 4154 0d0a                      ..FEAT..
04:45:53.032891 IP 202.120.2.2.ftp > 192.168.0.100.58757: Flags [P.], seq 546:581, ack 44, win 46, options [nop,nop,TS val 3100694568 ecr 71623285], length 35
	0x0000:  7cd1 c394 9eb8 f81a 67cd 576e 0800 4500  |.......g.Wn..E.
	0x0010:  0057 89d1 4000 1e06 4549 ca78 0202 c0a8  .W..@...EI.x....
	0x0020:  0064 0015 e585 1263 4961 e4c2 2660 8018  .d.....cIa..&`..
	0x0030:  002e fe67 0000 0101 080a b8d0 d828 0444  ...g.........(.D
	0x0040:  e275 3535 3020 4645 4154 3a20 4f70 6572  .u550.FEAT:.Oper
	0x0050:  6174 696f 6e20 6e6f 7420 7065 726d 6974  ation.not.permit
	0x0060:  7465 640d 0a                             ted..
04:45:53.032970 IP 192.168.0.100.58757 > 202.120.2.2.ftp: Flags [.], ack 581, win 8220, options [nop,nop,TS val 71623693 ecr 3100694568], length 0
	0x0000:  f81a 67cd 576e 7cd1 c394 9eb8 0800 4500  ..g.Wn|.......E.
	0x0010:  0034 ff55 4000 4006 ade7 c0a8 0064 ca78  .4.U@.@......d.x
	0x0020:  0202 e585 0015 e4c2 2660 1263 4984 8010  ........&`.cI...
	0x0030:  201c 032a 0000 0101 080a 0444 e40d b8d0  ...*.......D....
	0x0040:  d828                                     .(
04:45:53.034375 IP 192.168.0.100.58757 > 202.120.2.2.ftp: Flags [P.], seq 44:49, ack 581, win 8220, options [nop,nop,TS val 71623694 ecr 3100694568], length 5
	0x0000:  f81a 67cd 576e 7cd1 c394 9eb8 0800 4500  ..g.Wn|.......E.
	0x0010:  0039 8ac1 4000 4006 2277 c0a8 0064 ca78  .9..@.@."w...d.x
	0x0020:  0202 e585 0015 e4c2 2660 1263 4984 8018  ........&`.cI...
	0x0030:  201c 64b7 0000 0101 080a 0444 e40e b8d0  ..d........D....
	0x0040:  d828 5057 440d 0a                        .(PWD..
04:45:53.544362 IP 202.120.2.2.ftp > 192.168.0.100.58757: Flags [P.], seq 581:615, ack 49, win 46, options [nop,nop,TS val 3100694975 ecr 71623694], length 34
	0x0000:  7cd1 c394 9eb8 f81a 67cd 576e 0800 4500  |.......g.Wn..E.
	0x0010:  0056 89d2 4000 1e06 4549 ca78 0202 c0a8  .V..@...EI.x....
	0x0020:  0064 0015 e585 1263 4984 e4c2 2665 8018  .d.....cI...&e..
	0x0030:  002e 2783 0000 0101 080a b8d0 d9bf 0444  ..'............D
	0x0040:  e40e 3235 3720 222f 2220 6973 2074 6865  ..257."/".is.the
	0x0050:  2063 7572 7265 6e74 2064 6972 6563 746f  .current.directo
	0x0060:  7279 0d0a                                ry..
04:45:53.544439 IP 192.168.0.100.58757 > 202.120.2.2.ftp: Flags [.], ack 615, win 8218, options [nop,nop,TS val 71624202 ecr 3100694975], length 0
	0x0000:  f81a 67cd 576e 7cd1 c394 9eb8 0800 4500  ..g.Wn|.......E.
	0x0010:  0034 67fa 4000 4006 4543 c0a8 0064 ca78  .4g.@.@.EC...d.x
	0x0020:  0202 e585 0015 e4c2 2665 1263 49a6 8010  ........&e.cI...
	0x0030:  201a ff70 0000 0101 080a 0444 e60a b8d0  ...p.......D....
	0x0040:  d9bf                                     ..
04:45:53.546933 IP 192.168.0.100.58757 > 202.120.2.2.ftp: Flags [P.], seq 49:57, ack 615, win 8218, options [nop,nop,TS val 71624204 ecr 3100694975], length 8
	0x0000:  f81a 67cd 576e 7cd1 c394 9eb8 0800 4500  ..g.Wn|.......E.
	0x0010:  003c 4357 4000 4006 69de c0a8 0064 ca78  .<CW@.@.i....d.x
	0x0020:  0202 e585 0015 e4c2 2665 1263 49a6 8018  ........&e.cI...
	0x0030:  201a 2d6d 0000 0101 080a 0444 e60c b8d0  ..-m.......D....
	0x0040:  d9bf 5459 5045 2049 0d0a                 ..TYPE.I..
04:45:53.927674 IP 202.120.2.2.ftp > 192.168.0.100.58757: Flags [P.], seq 615:634, ack 57, win 46, options [nop,nop,TS val 3100695485 ecr 71624204], length 19
	0x0000:  7cd1 c394 9eb8 f81a 67cd 576e 0800 4500  |.......g.Wn..E.
	0x0010:  0047 89d3 4000 1e06 4557 ca78 0202 c0a8  .G..@...EW.x....
	0x0020:  0064 0015 e585 1263 49a6 e4c2 266d 8018  .d.....cI...&m..
	0x0030:  002e 8d81 0000 0101 080a b8d0 dbbd 0444  ...............D
	0x0040:  e60c 3230 3020 5479 7065 2073 6574 2074  ..200.Type.set.t
	0x0050:  6f20 490d 0a                             o.I..
04:45:53.927752 IP 192.168.0.100.58757 > 202.120.2.2.ftp: Flags [.], ack 634, win 8217, options [nop,nop,TS val 71624584 ecr 3100695485], length 0
	0x0000:  f81a 67cd 576e 7cd1 c394 9eb8 0800 4500  ..g.Wn|.......E.
	0x0010:  0034 95a5 4000 4006 1798 c0a8 0064 ca78  .4..@.@......d.x
	0x0020:  0202 e585 0015 e4c2 266d 1263 49b9 8010  ........&m.cI...
	0x0030:  2019 fbda 0000 0101 080a 0444 e788 b8d0  ...........D....
	0x0040:  dbbd                                     ..
04:45:53.928024 IP 192.168.0.100.58757 > 202.120.2.2.ftp: Flags [P.], seq 57:63, ack 634, win 8217, options [nop,nop,TS val 71624584 ecr 3100695485], length 6
	0x0000:  f81a 67cd 576e 7cd1 c394 9eb8 0800 4500  ..g.Wn|.......E.
	0x0010:  003a a5f1 4000 4006 0746 c0a8 0064 ca78  .:..@.@..F...d.x
	0x0020:  0202 e585 0015 e4c2 266d 1263 49b9 8018  ........&m.cI...
	0x0030:  2019 4b2b 0000 0101 080a 0444 e788 b8d0  ..K+.......D....
	0x0040:  dbbd 5041 5356 0d0a                      ..PASV..
04:45:54.260357 IP 202.120.2.2.ftp > 192.168.0.100.58757: Flags [P.], seq 634:684, ack 63, win 46, options [nop,nop,TS val 3100695871 ecr 71624584], length 50
	0x0000:  7cd1 c394 9eb8 f81a 67cd 576e 0800 4500  |.......g.Wn..E.
	0x0010:  0066 89d4 4000 1e06 4537 ca78 0202 c0a8  .f..@...E7.x....
	0x0020:  0064 0015 e585 1263 49b9 e4c2 2673 8018  .d.....cI...&s..
	0x0030:  002e b574 0000 0101 080a b8d0 dd3f 0444  ...t.........?.D
	0x0040:  e788 3232 3720 456e 7465 7269 6e67 2050  ..227.Entering.P
	0x0050:  6173 7369 7665 204d 6f64 6520 2832 3032  assive.Mode.(202
	0x0060:  2c31 3230 2c32 2c32 2c32 3136 2c32 3137  ,120,2,2,216,217
	0x0070:  292e 0d0a                                )...
04:45:54.260434 IP 192.168.0.100.58757 > 202.120.2.2.ftp: Flags [.], ack 684, win 8214, options [nop,nop,TS val 71624916 ecr 3100695871], length 0
	0x0000:  f81a 67cd 576e 7cd1 c394 9eb8 0800 4500  ..g.Wn|.......E.
	0x0010:  0034 c589 4000 4006 e7b3 c0a8 0064 ca78  .4..@.@......d.x
	0x0020:  0202 e585 0015 e4c2 2673 1263 49eb 8010  ........&s.cI...
	0x0030:  2016 f8d7 0000 0101 080a 0444 e8d4 b8d0  ...........D....
	0x0040:  dd3f                                     .?
04:45:54.261429 IP 192.168.0.100.58757 > 202.120.2.2.ftp: Flags [P.], seq 63:69, ack 684, win 8214, options [nop,nop,TS val 71624916 ecr 3100695871], length 6
	0x0000:  f81a 67cd 576e 7cd1 c394 9eb8 0800 4500  ..g.Wn|.......E.
	0x0010:  003a ddf8 4000 4006 cf3e c0a8 0064 ca78  .:..@.@..>...d.x
	0x0020:  0202 e585 0015 e4c2 2673 1263 49eb 8018  ........&s.cI...
	0x0030:  2016 4c22 0000 0101 080a 0444 e8d4 b8d0  ..L".......D....
	0x0040:  dd3f 4c49 5354 0d0a                      .?LIST..
04:45:54.670031 IP 202.120.2.2.ftp > 192.168.0.100.58757: Flags [.], ack 69, win 46, options [nop,nop,TS val 3100696244 ecr 71624916], length 0
	0x0000:  7cd1 c394 9eb8 f81a 67cd 576e 0800 4500  |.......g.Wn..E.
	0x0010:  0034 89d5 4000 1e06 4568 ca78 0202 c0a8  .4..@...Eh.x....
	0x0020:  0064 0015 e585 1263 49eb e4c2 2679 8010  .d.....cI...&y..
	0x0030:  002e 1745 0000 0101 080a b8d0 deb4 0444  ...E...........D
	0x0040:  e8d4                                     ..
04:45:55.077775 IP 202.120.2.2.ftp > 192.168.0.100.58757: Flags [P.], seq 684:738, ack 69, win 46, options [nop,nop,TS val 3100696608 ecr 71624916], length 54
	0x0000:  7cd1 c394 9eb8 f81a 67cd 576e 0800 4500  |.......g.Wn..E.
	0x0010:  006a 89d6 4000 1e06 4531 ca78 0202 c0a8  .j..@...E1.x....
	0x0020:  0064 0015 e585 1263 49eb e4c2 2679 8018  .d.....cI...&y..
	0x0030:  002e 2581 0000 0101 080a b8d0 e020 0444  ..%............D
	0x0040:  e8d4 3135 3020 4f70 656e 696e 6720 4153  ..150.Opening.AS
	0x0050:  4349 4920 6d6f 6465 2064 6174 6120 636f  CII.mode.data.co
	0x0060:  6e6e 6563 7469 6f6e 2066 6f72 2066 696c  nnection.for.fil
	0x0070:  6520 6c69 7374 0d0a                      e.list..
04:45:55.077848 IP 192.168.0.100.58757 > 202.120.2.2.ftp: Flags [.], ack 738, win 8210, options [nop,nop,TS val 71625730 ecr 3100696608], length 0
	0x0000:  f81a 67cd 576e 7cd1 c394 9eb8 0800 4500  ..g.Wn|.......E.
	0x0010:  0034 024c 4000 4006 aaf1 c0a8 0064 ca78  .4.L@.@......d.x
	0x0020:  0202 e585 0015 e4c2 2679 1263 4a21 8010  ........&y.cJ!..
	0x0030:  2012 f290 0000 0101 080a 0444 ec02 b8d0  ...........D....
	0x0040:  e020                                     ..
04:45:55.487094 IP 202.120.2.2.ftp > 192.168.0.100.58757: Flags [P.], seq 738:761, ack 69, win 46, options [nop,nop,TS val 3100697034 ecr 71625730], length 23
	0x0000:  7cd1 c394 9eb8 f81a 67cd 576e 0800 4500  |.......g.Wn..E.
	0x0010:  004b 89d7 4000 1e06 454f ca78 0202 c0a8  .K..@...EO.x....
	0x0020:  0064 0015 e585 1263 4a21 e4c2 2679 8018  .d.....cJ!..&y..
	0x0030:  002e 44e1 0000 0101 080a b8d0 e1ca 0444  ..D............D
	0x0040:  ec02 3232 3620 5472 616e 7366 6572 2063  ..226.Transfer.c
	0x0050:  6f6d 706c 6574 650d 0a                   omplete..
04:45:55.487207 IP 192.168.0.100.58757 > 202.120.2.2.ftp: Flags [.], ack 761, win 8209, options [nop,nop,TS val 71626136 ecr 3100697034], length 0
	0x0000:  f81a 67cd 576e 7cd1 c394 9eb8 0800 4500  ..g.Wn|.......E.
	0x0010:  0034 caa6 4000 4006 e296 c0a8 0064 ca78  .4..@.@......d.x
	0x0020:  0202 e585 0015 e4c2 2679 1263 4a38 8010  ........&y.cJ8..
	0x0030:  2011 ef3a 0000 0101 080a 0444 ed98 b8d0  ...:.......D....
	0x0040:  e1ca                                     ..
04:46:13.843817 IP 192.168.0.100.58759 > 202.120.2.2.ftp: Flags [S], seq 679660869, win 65535, options [mss 1460,nop,wscale 4,nop,nop,TS val 71644480 ecr 0,sackOK,eol], length 0
	0x0000:  f81a 67cd 576e 7cd1 c394 9eb8 0800 4500  ..g.Wn|.......E.
	0x0010:  0040 8dae 4000 4006 1f83 c0a8 0064 ca78  .@..@.@......d.x
	0x0020:  0202 e587 0015 2882 cd45 0000 0000 b002  ......(..E......
	0x0030:  ffff 948d 0000 0204 05b4 0103 0304 0101  ................
	0x0040:  080a 0445 3540 0000 0000 0402 0000       ...E5@........
04:46:14.203272 IP 202.120.2.2.ftp > 192.168.0.100.58759: Flags [S.], seq 332086014, ack 679660870, win 5792, options [mss 1448,sackOK,TS val 3100715791 ecr 71644480,nop,wscale 7], length 0
	0x0000:  7cd1 c394 9eb8 f81a 67cd 576e 0800 4500  |.......g.Wn..E.
	0x0010:  003c 0000 4000 1e06 cf35 ca78 0202 c0a8  .<..@....5.x....
	0x0020:  0064 0015 e587 13cb 3afe 2882 cd46 a012  .d......:.(..F..
	0x0030:  16a0 5c40 0000 0204 05a8 0402 080a b8d1  ..\@............
	0x0040:  2b0f 0445 3540 0103 0307                 +..E5@....
04:46:14.203344 IP 192.168.0.100.58759 > 202.120.2.2.ftp: Flags [.], ack 1, win 8257, options [nop,nop,TS val 71644839 ecr 3100715791], length 0
	0x0000:  f81a 67cd 576e 7cd1 c394 9eb8 0800 4500  ..g.Wn|.......E.
	0x0010:  0034 b91a 4000 4006 f422 c0a8 0064 ca78  .4..@.@.."...d.x
	0x0020:  0202 e587 0015 2882 cd46 13cb 3aff 8010  ......(..F..:...
	0x0030:  2041 7ff8 0000 0101 080a 0445 36a7 b8d1  .A.........E6...
	0x0040:  2b0f                                     +.
04:46:14.612298 IP 202.120.2.2.ftp > 192.168.0.100.58759: Flags [P.], seq 1:7, ack 1, win 46, options [nop,nop,TS val 3100716167 ecr 71644839], length 6
	0x0000:  7cd1 c394 9eb8 f81a 67cd 576e 0800 4500  |.......g.Wn..E.
	0x0010:  003a 1685 4000 1e06 b8b2 ca78 0202 c0a8  .:..@......x....
	0x0020:  0064 0015 e587 13cb 3aff 2882 cd46 8018  .d......:.(..F..
	0x0030:  002e 2f1c 0000 0101 080a b8d1 2c87 0445  ../.........,..E
	0x0040:  36a7 3232 302d 0d0a                      6.220-..
04:46:14.612383 IP 192.168.0.100.58759 > 202.120.2.2.ftp: Flags [.], ack 7, win 8256, options [nop,nop,TS val 71645247 ecr 3100716167], length 0
	0x0000:  f81a 67cd 576e 7cd1 c394 9eb8 0800 4500  ..g.Wn|.......E.
	0x0010:  0034 28b0 4000 4006 848d c0a8 0064 ca78  .4(.@.@......d.x
	0x0020:  0202 e587 0015 2882 cd46 13cb 3b05 8010  ......(..F..;...
	0x0030:  2040 7ce3 0000 0101 080a 0445 383f b8d1  .@|........E8?..
	0x0040:  2c87                                     ,.
04:46:15.021501 IP 202.120.2.2.ftp > 192.168.0.100.58759: Flags [P.], seq 7:418, ack 1, win 46, options [nop,nop,TS val 3100716566 ecr 71645247], length 411
	0x0000:  7cd1 c394 9eb8 f81a 67cd 576e 0800 4500  |.......g.Wn..E.
	0x0010:  01cf 1686 4000 1e06 b71c ca78 0202 c0a8  ....@......x....
	0x0020:  0064 0015 e587 13cb 3b05 2882 cd46 8018  .d......;.(..F..
	0x0030:  002e 23d7 0000 0101 080a b8d1 2e16 0445  ..#............E
	0x0040:  383f 3232 302d 2020 2d2d 2057 656c 636f  8?220-..--.Welco
	0x0050:  6d65 2074 6f20 506f 7274 616c 206f 6620  me.to.Portal.of.
	0x0060:  5368 616e 6768 6169 204a 6961 6f20 546f  Shanghai.Jiao.To
	0x0070:  6e67 2055 6e69 7665 7273 6974 7920 2d2d  ng.University.--
	0x0080:  0d0a 3232 302d 2020 2d59 6f75 2061 7265  ..220-..-You.are
	0x0090:  206e 756d 6265 7220 3234 206f 6620 3132  .number.24.of.12
	0x00a0:  3030 2061 6c6c 6f77 6564 2075 7365 7273  00.allowed.users
	0x00b0:  2e0d 0a32 3230 2d20 202d 4c6f 6361 6c20  ...220-..-Local.
	0x00c0:  7469 6d65 2069 7320 4d6f 6e20 4665 6220  time.is.Mon.Feb.
	0x00d0:  3234 2031 363a 3436 3a31 3420 3230 3134  24.16:46:14.2014
	0x00e0:  206e 6f77 2e0d 0a32 3230 2d20 202d 5468  .now...220-..-Th
	0x00f0:  6973 2069 7320 6120 7072 6976 6174 6520  is.is.a.private.
	0x0100:  7379 7374 656d 202d 204e 6f20 616e 6f6e  system.-.No.anon
	0x0110:  796d 6f75 7320 6c6f 6769 6e20 616c 6c6f  ymous.login.allo
	0x0120:  7765 640d 0a32 3230 2d20 202d 596f 7520  wed..220-..-You.
	0x0130:  7769 6c6c 2062 6520 6469 7363 6f6e 6e65  will.be.disconne
	0x0140:  6374 6564 2061 6674 6572 2031 3520 6d69  cted.after.15.mi
	0x0150:  6e75 7465 7320 6f66 2069 6e61 6374 6976  nutes.of.inactiv
	0x0160:  6974 792e 0d0a 3232 302d 2020 2d2d 2d2d  ity...220-..----
	0x0170:  2d2d 2d2d 2d2d 2d2d 2d2d 2d2d 2d2d 2d2d  ----------------
	0x0180:  2d2d 2d2d 2d2d 2d2d 2d2d 2d2d 2d2d 2d2d  ----------------
	0x0190:  2d2d 2d2d 2d2d 2d2d 2d2d 2d2d 2d2d 2d2d  ----------------
	0x01a0:  2d2d 2d2d 2d0d 0a32 3230 2050 726f 4654  -----..220.ProFT
	0x01b0:  5044 2031 2e33 2e32 2053 6572 7665 7220  PD.1.3.2.Server.
	0x01c0:  2870 7562 6c69 635f 534a 5455 2920 5b32  (public_SJTU).[2
	0x01d0:  3032 2e31 3230 2e32 2e32 5d0d 0a         02.120.2.2]..
04:46:15.021571 IP 192.168.0.100.58759 > 202.120.2.2.ftp: Flags [.], ack 418, win 8230, options [nop,nop,TS val 71645655 ecr 3100716566], length 0
	0x0000:  f81a 67cd 576e 7cd1 c394 9eb8 0800 4500  ..g.Wn|.......E.
	0x0010:  0034 8928 4000 4006 2415 c0a8 0064 ca78  .4.(@.@.$....d.x
	0x0020:  0202 e587 0015 2882 cd46 13cb 3ca0 8010  ......(..F..<...
	0x0030:  2026 783b 0000 0101 080a 0445 39d7 b8d1  .&x;.......E9...
	0x0040:  2e16                                     ..
04:46:15.021969 IP 192.168.0.100.58759 > 202.120.2.2.ftp: Flags [P.], seq 1:19, ack 418, win 8230, options [nop,nop,TS val 71645655 ecr 3100716566], length 18
	0x0000:  f81a 67cd 576e 7cd1 c394 9eb8 0800 4500  ..g.Wn|.......E.
	0x0010:  0046 2f7f 4000 4006 7dac c0a8 0064 ca78  .F/.@.@.}....d.x
	0x0020:  0202 e587 0015 2882 cd46 13cb 3ca0 8018  ......(..F..<...
	0x0030:  2026 8de6 0000 0101 080a 0445 39d7 b8d1  .&.........E9...
	0x0040:  2e16 5553 4552 2073 6869 6e69 6e67 6d6f  ..USER.shiningmo
	0x0050:  6f6e 0d0a                                on..
04:46:15.430623 IP 202.120.2.2.ftp > 192.168.0.100.58759: Flags [.], ack 19, win 46, options [nop,nop,TS val 3100716969 ecr 71645655], length 0
	0x0000:  7cd1 c394 9eb8 f81a 67cd 576e 0800 4500  |.......g.Wn..E.
	0x0010:  0034 1687 4000 1e06 b8b6 ca78 0202 c0a8  .4..@......x....
	0x0020:  0064 0015 e587 13cb 3ca0 2882 cd58 8010  .d......<.(..X..
	0x0030:  002e 968e 0000 0101 080a b8d1 2fa9 0445  ............/..E
	0x0040:  39d7                                     9.
04:46:15.430739 IP 202.120.2.2.ftp > 192.168.0.100.58759: Flags [P.], seq 418:457, ack 19, win 46, options [nop,nop,TS val 3100716972 ecr 71645655], length 39
	0x0000:  7cd1 c394 9eb8 f81a 67cd 576e 0800 4500  |.......g.Wn..E.
	0x0010:  005b 1688 4000 1e06 b88e ca78 0202 c0a8  .[..@......x....
	0x0020:  0064 0015 e587 13cb 3ca0 2882 cd58 8018  .d......<.(..X..
	0x0030:  002e 44ce 0000 0101 080a b8d1 2fac 0445  ..D........./..E
	0x0040:  39d7 3333 3120 5061 7373 776f 7264 2072  9.331.Password.r
	0x0050:  6571 7569 7265 6420 666f 7220 7368 696e  equired.for.shin
	0x0060:  696e 676d 6f6f 6e0d 0a                   ingmoon..
04:46:15.430793 IP 192.168.0.100.58759 > 202.120.2.2.ftp: Flags [.], ack 457, win 8228, options [nop,nop,TS val 71646061 ecr 3100716972], length 0
	0x0000:  f81a 67cd 576e 7cd1 c394 9eb8 0800 4500  ..g.Wn|.......E.
	0x0010:  0034 a044 4000 4006 0cf9 c0a8 0064 ca78  .4.D@.@......d.x
	0x0020:  0202 e587 0015 2882 cd58 13cb 3cc7 8010  ......(..X..<...
	0x0030:  2024 74d8 0000 0101 080a 0445 3b6d b8d1  .$t........E;m..
	0x0040:  2fac                                     /.
04:46:15.431055 IP 192.168.0.100.58759 > 202.120.2.2.ftp: Flags [P.], seq 19:32, ack 457, win 8228, options [nop,nop,TS val 71646061 ecr 3100716972], length 13
	0x0000:  f81a 67cd 576e 7cd1 c394 9eb8 0800 4500  ..g.Wn|.......E.
	0x0010:  0041 e1a2 4000 4006 cb8d c0a8 0064 ca78  .A..@.@......d.x
	0x0020:  0202 e587 0015 2882 cd58 13cb 3cc7 8018  ......(..X..<...
	0x0030:  2024 61e5 0000 0101 080a 0445 3b6d b8d1  .$a........E;m..
	0x0040:  2fac 5041 5353 2070 7562 6c69 630d 0a    /.PASS.public..
04:46:15.839536 IP 202.120.2.2.ftp > 192.168.0.100.58759: Flags [P.], seq 457:495, ack 32, win 46, options [nop,nop,TS val 3100717402 ecr 71646061], length 38
	0x0000:  7cd1 c394 9eb8 f81a 67cd 576e 0800 4500  |.......g.Wn..E.
	0x0010:  005a 1689 4000 1e06 b88e ca78 0202 c0a8  .Z..@......x....
	0x0020:  0064 0015 e587 13cb 3cc7 2882 cd65 8018  .d......<.(..e..
	0x0030:  002e 694b 0000 0101 080a b8d1 315a 0445  ..iK........1Z.E
	0x0040:  3b6d 3233 302d 2020 5175 6f74 6173 206f  ;m230-..Quotas.o
	0x0050:  6e3a 2031 372e 3731 204d 422f 3530 302e  n:.17.71.MB/500.
	0x0060:  3030 204d 4220 0d0a                      00.MB...
04:46:15.839615 IP 192.168.0.100.58759 > 202.120.2.2.ftp: Flags [.], ack 495, win 8226, options [nop,nop,TS val 71646468 ecr 3100717402], length 0
	0x0000:  f81a 67cd 576e 7cd1 c394 9eb8 0800 4500  ..g.Wn|.......E.
	0x0010:  0034 6baf 4000 4006 418e c0a8 0064 ca78  .4k.@.@.A....d.x
	0x0020:  0202 e587 0015 2882 cd65 13cb 3ced 8010  ......(..e..<...
	0x0030:  2022 7162 0000 0101 080a 0445 3d04 b8d1  ."qb.......E=...
	0x0040:  315a                                     1Z
04:46:16.248553 IP 202.120.2.2.ftp > 192.168.0.100.58759: Flags [P.], seq 495:527, ack 32, win 46, options [nop,nop,TS val 3100717783 ecr 71646468], length 32
	0x0000:  7cd1 c394 9eb8 f81a 67cd 576e 0800 4500  |.......g.Wn..E.
	0x0010:  0054 168a 4000 1e06 b893 ca78 0202 c0a8  .T..@......x....
	0x0020:  0064 0015 e587 13cb 3ced 2882 cd65 8018  .d......<.(..e..
	0x0030:  002e 5e1b 0000 0101 080a b8d1 32d7 0445  ..^.........2..E
	0x0040:  3d04 3233 3020 5573 6572 2073 6869 6e69  =.230.User.shini
	0x0050:  6e67 6d6f 6f6e 206c 6f67 6765 6420 696e  ngmoon.logged.in
	0x0060:  0d0a                                     ..
04:46:16.248632 IP 192.168.0.100.58759 > 202.120.2.2.ftp: Flags [.], ack 527, win 8224, options [nop,nop,TS val 71646876 ecr 3100717783], length 0
	0x0000:  f81a 67cd 576e 7cd1 c394 9eb8 0800 4500  ..g.Wn|.......E.
	0x0010:  0034 1b58 4000 4006 91e5 c0a8 0064 ca78  .4.X@.@......d.x
	0x0020:  0202 e587 0015 2882 cd65 13cb 3d0d 8010  ......(..e..=...
	0x0030:  2020 6e2f 0000 0101 080a 0445 3e9c b8d1  ..n/.......E>...
	0x0040:  32d7                                     2.
04:46:16.249838 IP 192.168.0.100.58759 > 202.120.2.2.ftp: Flags [P.], seq 32:39, ack 527, win 8224, options [nop,nop,TS val 71646877 ecr 3100717783], length 7
	0x0000:  f81a 67cd 576e 7cd1 c394 9eb8 0800 4500  ..g.Wn|.......E.
	0x0010:  003b 9cc6 4000 4006 1070 c0a8 0064 ca78  .;..@.@..p...d.x
	0x0020:  0202 e587 0015 2882 cd65 13cb 3d0d 8018  ......(..e..=...
	0x0030:  2020 ad9a 0000 0101 080a 0445 3e9d b8d1  ...........E>...
	0x0040:  32d7 4357 4420 2f0d 0a                   2.CWD./..
04:46:16.657879 IP 202.120.2.2.ftp > 192.168.0.100.58759: Flags [P.], seq 527:555, ack 39, win 46, options [nop,nop,TS val 3100718200 ecr 71646877], length 28
	0x0000:  7cd1 c394 9eb8 f81a 67cd 576e 0800 4500  |.......g.Wn..E.
	0x0010:  0050 168b 4000 1e06 b896 ca78 0202 c0a8  .P..@......x....
	0x0020:  0064 0015 e587 13cb 3d0d 2882 cd6c 8018  .d......=.(..l..
	0x0030:  002e d9f2 0000 0101 080a b8d1 3478 0445  ............4x.E
	0x0040:  3e9d 3235 3020 4357 4420 636f 6d6d 616e  >.250.CWD.comman
	0x0050:  6420 7375 6363 6573 7366 756c 0d0a       d.successful..
04:46:16.657962 IP 192.168.0.100.58759 > 202.120.2.2.ftp: Flags [.], ack 555, win 8222, options [nop,nop,TS val 71647283 ecr 3100718200], length 0
	0x0000:  f81a 67cd 576e 7cd1 c394 9eb8 0800 4500  ..g.Wn|.......E.
	0x0010:  0034 c326 4000 4006 ea16 c0a8 0064 ca78  .4.&@.@......d.x
	0x0020:  0202 e587 0015 2882 cd6c 13cb 3d29 8010  ......(..l..=)..
	0x0030:  201e 6ad6 0000 0101 080a 0445 4033 b8d1  ..j........E@3..
	0x0040:  3478                                     4x
04:46:16.658167 IP 192.168.0.100.58759 > 202.120.2.2.ftp: Flags [P.], seq 39:44, ack 555, win 8222, options [nop,nop,TS val 71647283 ecr 3100718200], length 5
	0x0000:  f81a 67cd 576e 7cd1 c394 9eb8 0800 4500  ..g.Wn|.......E.
	0x0010:  0039 d7fa 4000 4006 d53d c0a8 0064 ca78  .9..@.@..=...d.x
	0x0020:  0202 e587 0015 2882 cd6c 13cb 3d29 8018  ......(..l..=)..
	0x0030:  201e cc64 0000 0101 080a 0445 4033 b8d1  ...d.......E@3..
	0x0040:  3478 5057 440d 0a                        4xPWD..
04:46:17.066988 IP 202.120.2.2.ftp > 192.168.0.100.58759: Flags [P.], seq 555:589, ack 44, win 46, options [nop,nop,TS val 3100718608 ecr 71647283], length 34
	0x0000:  7cd1 c394 9eb8 f81a 67cd 576e 0800 4500  |.......g.Wn..E.
	0x0010:  0056 168c 4000 1e06 b88f ca78 0202 c0a8  .V..@......x....
	0x0020:  0064 0015 e587 13cb 3d29 2882 cd71 8018  .d......=)(..q..
	0x0030:  002e 8f31 0000 0101 080a b8d1 3610 0445  ...1........6..E
	0x0040:  4033 3235 3720 222f 2220 6973 2074 6865  @3257."/".is.the
	0x0050:  2063 7572 7265 6e74 2064 6972 6563 746f  .current.directo
	0x0060:  7279 0d0a                                ry..
04:46:17.067067 IP 192.168.0.100.58759 > 202.120.2.2.ftp: Flags [.], ack 589, win 8220, options [nop,nop,TS val 71647691 ecr 3100718608], length 0
	0x0000:  f81a 67cd 576e 7cd1 c394 9eb8 0800 4500  ..g.Wn|.......E.
	0x0010:  0034 2d51 4000 4006 7fec c0a8 0064 ca78  .4-Q@.@......d.x
	0x0020:  0202 e587 0015 2882 cd71 13cb 3d4b 8010  ......(..q..=K..
	0x0030:  201c 6781 0000 0101 080a 0445 41cb b8d1  ..g........EA...
	0x0040:  3610                                     6.
04:46:17.067954 IP 192.168.0.100.58759 > 202.120.2.2.ftp: Flags [P.], seq 44:52, ack 589, win 8220, options [nop,nop,TS val 71647691 ecr 3100718608], length 8
	0x0000:  f81a 67cd 576e 7cd1 c394 9eb8 0800 4500  ..g.Wn|.......E.
	0x0010:  003c a96c 4000 4006 03c9 c0a8 0064 ca78  .<.l@.@......d.x
	0x0020:  0202 e587 0015 2882 cd71 13cb 3d4b 8018  ......(..q..=K..
	0x0030:  201c 957f 0000 0101 080a 0445 41cb b8d1  ...........EA...
	0x0040:  3610 5459 5045 2049 0d0a                 6.TYPE.I..
04:46:17.476357 IP 202.120.2.2.ftp > 192.168.0.100.58759: Flags [P.], seq 589:608, ack 52, win 46, options [nop,nop,TS val 3100719017 ecr 71647691], length 19
	0x0000:  7cd1 c394 9eb8 f81a 67cd 576e 0800 4500  |.......g.Wn..E.
	0x0010:  0047 168d 4000 1e06 b89d ca78 0202 c0a8  .G..@......x....
	0x0020:  0064 0015 e587 13cb 3d4b 2882 cd79 8018  .d......=K(..y..
	0x0030:  002e f5fa 0000 0101 080a b8d1 37a9 0445  ............7..E
	0x0040:  41cb 3230 3020 5479 7065 2073 6574 2074  A.200.Type.set.t
	0x0050:  6f20 490d 0a                             o.I..
04:46:17.476451 IP 192.168.0.100.58759 > 202.120.2.2.ftp: Flags [.], ack 608, win 8219, options [nop,nop,TS val 71648098 ecr 3100719017], length 0
	0x0000:  f81a 67cd 576e 7cd1 c394 9eb8 0800 4500  ..g.Wn|.......E.
	0x0010:  0034 6643 4000 4006 46fa c0a8 0064 ca78  .4fC@.@.F....d.x
	0x0020:  0202 e587 0015 2882 cd79 13cb 3d5e 8010  ......(..y..=^..
	0x0030:  201b 6437 0000 0101 080a 0445 4362 b8d1  ..d7.......ECb..
	0x0040:  37a9                                     7.
04:46:17.477892 IP 192.168.0.100.58759 > 202.120.2.2.ftp: Flags [P.], seq 52:58, ack 608, win 8219, options [nop,nop,TS val 71648099 ecr 3100719017], length 6
	0x0000:  f81a 67cd 576e 7cd1 c394 9eb8 0800 4500  ..g.Wn|.......E.
	0x0010:  003a b7ae 4000 4006 f588 c0a8 0064 ca78  .:..@.@......d.x
	0x0020:  0202 e587 0015 2882 cd79 13cb 3d5e 8018  ......(..y..=^..
	0x0030:  201b b386 0000 0101 080a 0445 4363 b8d1  ...........ECc..
	0x0040:  37a9 5041 5356 0d0a                      7.PASV..
04:46:17.885229 IP 202.120.2.2.ftp > 192.168.0.100.58759: Flags [P.], seq 608:658, ack 58, win 46, options [nop,nop,TS val 3100719425 ecr 71648099], length 50
	0x0000:  7cd1 c394 9eb8 f81a 67cd 576e 0800 4500  |.......g.Wn..E.
	0x0010:  0066 168e 4000 1e06 b87d ca78 0202 c0a8  .f..@....}.x....
	0x0020:  0064 0015 e587 13cb 3d5e 2882 cd7f 8018  .d......=^(.....
	0x0030:  002e 15c1 0000 0101 080a b8d1 3941 0445  ............9A.E
	0x0040:  4363 3232 3720 456e 7465 7269 6e67 2050  Cc227.Entering.P
	0x0050:  6173 7369 7665 204d 6f64 6520 2832 3032  assive.Mode.(202
	0x0060:  2c31 3230 2c32 2c32 2c31 3938 2c31 3132  ,120,2,2,198,112
	0x0070:  292e 0d0a                                )...
04:46:17.885304 IP 192.168.0.100.58759 > 202.120.2.2.ftp: Flags [.], ack 658, win 8215, options [nop,nop,TS val 71648505 ecr 3100719425], length 0
	0x0000:  f81a 67cd 576e 7cd1 c394 9eb8 0800 4500  ..g.Wn|.......E.
	0x0010:  0034 f1e5 4000 4006 bb57 c0a8 0064 ca78  .4..@.@..W...d.x
	0x0020:  0202 e587 0015 2882 cd7f 13cb 3d90 8010  ......(.....=...
	0x0030:  2017 60d4 0000 0101 080a 0445 44f9 b8d1  ..`........ED...
	0x0040:  3941                                     9A
04:46:17.886113 IP 192.168.0.100.58759 > 202.120.2.2.ftp: Flags [P.], seq 58:75, ack 658, win 8215, options [nop,nop,TS val 71648505 ecr 3100719425], length 17
	0x0000:  f81a 67cd 576e 7cd1 c394 9eb8 0800 4500  ..g.Wn|.......E.
	0x0010:  0045 09b6 4000 4006 a376 c0a8 0064 ca78  .E..@.@..v...d.x
	0x0020:  0202 e587 0015 2882 cd7f 13cb 3d90 8018  ......(.....=...
	0x0030:  2017 5d49 0000 0101 080a 0445 44f9 b8d1  ..]I.......ED...
	0x0040:  3941 5245 5452 2064 7261 676f 6e2e 7a69  9ARETR.dragon.zi
	0x0050:  700d 0a                                  p..
04:46:18.294605 IP 202.120.2.2.ftp > 192.168.0.100.58759: Flags [.], ack 75, win 46, options [nop,nop,TS val 3100719871 ecr 71648505], length 0
	0x0000:  7cd1 c394 9eb8 f81a 67cd 576e 0800 4500  |.......g.Wn..E.
	0x0010:  0034 168f 4000 1e06 b8ae ca78 0202 c0a8  .4..@......x....
	0x0020:  0064 0015 e587 13cb 3d90 2882 cd90 8010  .d......=.(.....
	0x0030:  002e 7eee 0000 0101 080a b8d1 3aff 0445  ..~.........:..E
	0x0040:  44f9                                     D.
04:46:18.703170 IP 202.120.2.2.ftp > 192.168.0.100.58759: Flags [P.], seq 658:727, ack 75, win 46, options [nop,nop,TS val 3100720233 ecr 71648505], length 69
	0x0000:  7cd1 c394 9eb8 f81a 67cd 576e 0800 4500  |.......g.Wn..E.
	0x0010:  0079 1690 4000 1e06 b868 ca78 0202 c0a8  .y..@....h.x....
	0x0020:  0064 0015 e587 13cb 3d90 2882 cd90 8018  .d......=.(.....
	0x0030:  002e 49f1 0000 0101 080a b8d1 3c69 0445  ..I.........<i.E
	0x0040:  44f9 3135 3020 4f70 656e 696e 6720 4249  D.150.Opening.BI
	0x0050:  4e41 5259 206d 6f64 6520 6461 7461 2063  NARY.mode.data.c
	0x0060:  6f6e 6e65 6374 696f 6e20 666f 7220 6472  onnection.for.dr
	0x0070:  6167 6f6e 2e7a 6970 2028 3939 3134 2062  agon.zip.(9914.b
	0x0080:  7974 6573 290d 0a                        ytes)..
04:46:18.703244 IP 192.168.0.100.58759 > 202.120.2.2.ftp: Flags [.], ack 727, win 8211, options [nop,nop,TS val 71649320 ecr 3100720233], length 0
	0x0000:  f81a 67cd 576e 7cd1 c394 9eb8 0800 4500  ..g.Wn|.......E.
	0x0010:  0034 3fd9 4000 4006 6d64 c0a8 0064 ca78  .4?.@.@.md...d.x
	0x0020:  0202 e587 0015 2882 cd90 13cb 3dd5 8010  ......(.....=...
	0x0030:  2013 5a2b 0000 0101 080a 0445 4828 b8d1  ..Z+.......EH(..
	0x0040:  3c69                                     <i
04:46:19.188619 IP 202.120.2.2.ftp > 192.168.0.100.58759: Flags [P.], seq 727:750, ack 75, win 46, options [nop,nop,TS val 3100720828 ecr 71649320], length 23
	0x0000:  7cd1 c394 9eb8 f81a 67cd 576e 0800 4500  |.......g.Wn..E.
	0x0010:  004b 1691 4000 1e06 b895 ca78 0202 c0a8  .K..@......x....
	0x0020:  0064 0015 e587 13cb 3dd5 2882 cd90 8018  .d......=.(.....
	0x0030:  002e abd3 0000 0101 080a b8d1 3ebc 0445  ............>..E
	0x0040:  4828 3232 3620 5472 616e 7366 6572 2063  H(226.Transfer.c
	0x0050:  6f6d 706c 6574 650d 0a                   omplete..
04:46:19.188748 IP 192.168.0.100.58759 > 202.120.2.2.ftp: Flags [.], ack 750, win 8210, options [nop,nop,TS val 71649802 ecr 3100720828], length 0
	0x0000:  f81a 67cd 576e 7cd1 c394 9eb8 0800 4500  ..g.Wn|.......E.
	0x0010:  0034 d1b0 4000 4006 db8c c0a8 0064 ca78  .4..@.@......d.x
	0x0020:  0202 e587 0015 2882 cd90 13cb 3dec 8010  ......(.....=...
	0x0030:  2012 55e0 0000 0101 080a 0445 4a0a b8d1  ..U........EJ...
	0x0040:  3ebc                                     >.
04:46:24.693479 IP 192.168.0.100.58757 > 202.120.2.2.ftp: Flags [P.], seq 69:81, ack 761, win 8209, options [nop,nop,TS val 71655299 ecr 3100697034], length 12
	0x0000:  f81a 67cd 576e 7cd1 c394 9eb8 0800 4500  ..g.Wn|.......E.
	0x0010:  0040 2b75 4000 4006 81bc c0a8 0064 ca78  .@+u@.@......d.x
	0x0020:  0202 e585 0015 e4c2 2679 1263 4a38 8018  ........&y.cJ8..
	0x0030:  2011 b1ac 0000 0101 080a 0445 5f83 b8d0  ...........E_...
	0x0040:  e1ca 4357 4420 7068 6173 6531 0d0a       ..CWD.phase1..
04:46:25.044321 IP 202.120.2.2.ftp > 192.168.0.100.58757: Flags [.], ack 81, win 46, options [nop,nop,TS val 3100726642 ecr 71655299], length 0
	0x0000:  7cd1 c394 9eb8 f81a 67cd 576e 0800 4500  |.......g.Wn..E.
	0x0010:  0034 89d8 4000 1e06 4565 ca78 0202 c0a8  .4..@...Ee.x....
	0x0020:  0064 0015 e585 1263 4a38 e4c2 2685 8010  .d.....cJ8..&...
	0x0030:  002e 297e 0000 0101 080a b8d1 5572 0445  ..)~........Ur.E
	0x0040:  5f83                                     _.
04:46:25.044422 IP 202.120.2.2.ftp > 192.168.0.100.58757: Flags [P.], seq 761:789, ack 81, win 46, options [nop,nop,TS val 3100726644 ecr 71655299], length 28
	0x0000:  7cd1 c394 9eb8 f81a 67cd 576e 0800 4500  |.......g.Wn..E.
	0x0010:  0050 89d9 4000 1e06 4548 ca78 0202 c0a8  .P..@...EH.x....
	0x0020:  0064 0015 e585 1263 4a38 e4c2 2685 8018  .d.....cJ8..&...
	0x0030:  002e 76f6 0000 0101 080a b8d1 5574 0445  ..v.........Ut.E
	0x0040:  5f83 3235 3020 4357 4420 636f 6d6d 616e  _.250.CWD.comman
	0x0050:  6420 7375 6363 6573 7366 756c 0d0a       d.successful..
04:46:25.044479 IP 192.168.0.100.58757 > 202.120.2.2.ftp: Flags [.], ack 789, win 8207, options [nop,nop,TS val 71655648 ecr 3100726644], length 0
	0x0000:  f81a 67cd 576e 7cd1 c394 9eb8 0800 4500  ..g.Wn|.......E.
	0x0010:  0034 9cb1 4000 4006 108c c0a8 0064 ca78  .4..@.@......d.x
	0x0020:  0202 e585 0015 e4c2 2685 1263 4a54 8010  ........&..cJT..
	0x0030:  200f 0822 0000 0101 080a 0445 60e0 b8d1  ...".......E`...
	0x0040:  5574                                     Ut
04:46:25.044727 IP 192.168.0.100.58757 > 202.120.2.2.ftp: Flags [P.], seq 81:86, ack 789, win 8207, options [nop,nop,TS val 71655648 ecr 3100726644], length 5
	0x0000:  f81a 67cd 576e 7cd1 c394 9eb8 0800 4500  ..g.Wn|.......E.
	0x0010:  0039 e8fa 4000 4006 c43d c0a8 0064 ca78  .9..@.@..=...d.x
	0x0020:  0202 e585 0015 e4c2 2685 1263 4a54 8018  ........&..cJT..
	0x0030:  200f 69b0 0000 0101 080a 0445 60e0 b8d1  ..i........E`...
	0x0040:  5574 5057 440d 0a                        UtPWD..
04:46:25.453322 IP 202.120.2.2.ftp > 192.168.0.100.58757: Flags [P.], seq 789:829, ack 86, win 46, options [nop,nop,TS val 3100726991 ecr 71655648], length 40
	0x0000:  7cd1 c394 9eb8 f81a 67cd 576e 0800 4500  |.......g.Wn..E.
	0x0010:  005c 89da 4000 1e06 453b ca78 0202 c0a8  .\..@...E;.x....
	0x0020:  0064 0015 e585 1263 4a54 e4c2 268a 8018  .d.....cJT..&...
	0x0030:  002e f597 0000 0101 080a b8d1 56cf 0445  ............V..E
	0x0040:  60e0 3235 3720 222f 7068 6173 6531 2220  `.257."/phase1".
	0x0050:  6973 2074 6865 2063 7572 7265 6e74 2064  is.the.current.d
	0x0060:  6972 6563 746f 7279 0d0a                 irectory..
04:46:25.453386 IP 192.168.0.100.58757 > 202.120.2.2.ftp: Flags [.], ack 829, win 8205, options [nop,nop,TS val 71656056 ecr 3100726991], length 0
	0x0000:  f81a 67cd 576e 7cd1 c394 9eb8 0800 4500  ..g.Wn|.......E.
	0x0010:  0034 d6e9 4000 4006 d653 c0a8 0064 ca78  .4..@.@..S...d.x
	0x0020:  0202 e585 0015 e4c2 268a 1263 4a7c 8010  ........&..cJ|..
	0x0030:  200d 0504 0000 0101 080a 0445 6278 b8d1  ...........Ebx..
	0x0040:  56cf                                     V.
04:46:25.453647 IP 192.168.0.100.58757 > 202.120.2.2.ftp: Flags [P.], seq 86:92, ack 829, win 8205, options [nop,nop,TS val 71656056 ecr 3100726991], length 6
	0x0000:  f81a 67cd 576e 7cd1 c394 9eb8 0800 4500  ..g.Wn|.......E.
	0x0010:  003a eb94 4000 4006 c1a2 c0a8 0064 ca78  .:..@.@......d.x
	0x0020:  0202 e585 0015 e4c2 268a 1263 4a7c 8018  ........&..cJ|..
	0x0030:  200d 5454 0000 0101 080a 0445 6278 b8d1  ..TT.......Ebx..
	0x0040:  56cf 5041 5356 0d0a                      V.PASV..
04:46:25.862500 IP 202.120.2.2.ftp > 192.168.0.100.58757: Flags [P.], seq 829:879, ack 92, win 46, options [nop,nop,TS val 3100727399 ecr 71656056], length 50
	0x0000:  7cd1 c394 9eb8 f81a 67cd 576e 0800 4500  |.......g.Wn..E.
	0x0010:  0066 89db 4000 1e06 4530 ca78 0202 c0a8  .f..@...E0.x....
	0x0020:  0064 0015 e585 1263 4a7c e4c2 2690 8018  .d.....cJ|..&...
	0x0030:  002e b980 0000 0101 080a b8d1 5867 0445  ............Xg.E
	0x0040:  6278 3232 3720 456e 7465 7269 6e67 2050  bx227.Entering.P
	0x0050:  6173 7369 7665 204d 6f64 6520 2832 3032  assive.Mode.(202
	0x0060:  2c31 3230 2c32 2c32 2c32 3239 2c31 3530  ,120,2,2,229,150
	0x0070:  292e 0d0a                                )...
04:46:25.862591 IP 192.168.0.100.58757 > 202.120.2.2.ftp: Flags [.], ack 879, win 8202, options [nop,nop,TS val 71656464 ecr 3100727399], length 0
	0x0000:  f81a 67cd 576e 7cd1 c394 9eb8 0800 4500  ..g.Wn|.......E.
	0x0010:  0034 4f5c 4000 4006 5de1 c0a8 0064 ca78  .4O\@.@.]....d.x
	0x0020:  0202 e585 0015 e4c2 2690 1263 4aae 8010  ........&..cJ...
	0x0030:  200a 019f 0000 0101 080a 0445 6410 b8d1  ...........Ed...
	0x0040:  5867                                     Xg
04:46:25.864439 IP 192.168.0.100.58757 > 202.120.2.2.ftp: Flags [P.], seq 92:98, ack 879, win 8202, options [nop,nop,TS val 71656465 ecr 3100727399], length 6
	0x0000:  f81a 67cd 576e 7cd1 c394 9eb8 0800 4500  ..g.Wn|.......E.
	0x0010:  003a 2124 4000 4006 8c13 c0a8 0064 ca78  .:!$@.@......d.x
	0x0020:  0202 e585 0015 e4c2 2690 1263 4aae 8018  ........&..cJ...
	0x0030:  200a 54e8 0000 0101 080a 0445 6411 b8d1  ..T........Ed...
	0x0040:  5867 4c49 5354 0d0a                      XgLIST..
04:46:26.271773 IP 202.120.2.2.ftp > 192.168.0.100.58757: Flags [.], ack 98, win 46, options [nop,nop,TS val 3100727848 ecr 71656465], length 0
	0x0000:  7cd1 c394 9eb8 f81a 67cd 576e 0800 4500  |.......g.Wn..E.
	0x0010:  0034 89dc 4000 1e06 4561 ca78 0202 c0a8  .4..@...Ea.x....
	0x0020:  0064 0015 e585 1263 4aae e4c2 2696 8010  .d.....cJ...&...
	0x0030:  002e 1fb3 0000 0101 080a b8d1 5a28 0445  ............Z(.E
	0x0040:  6411                                     d.
04:46:26.683343 IP 202.120.2.2.ftp > 192.168.0.100.58757: Flags [P.], seq 879:933, ack 98, win 46, options [nop,nop,TS val 3100728214 ecr 71656465], length 54
	0x0000:  7cd1 c394 9eb8 f81a 67cd 576e 0800 4500  |.......g.Wn..E.
	0x0010:  006a 89dd 4000 1e06 452a ca78 0202 c0a8  .j..@...E*.x....
	0x0020:  0064 0015 e585 1263 4aae e4c2 2696 8018  .d.....cJ...&...
	0x0030:  002e 2ded 0000 0101 080a b8d1 5b96 0445  ..-.........[..E
	0x0040:  6411 3135 3020 4f70 656e 696e 6720 4153  d.150.Opening.AS
	0x0050:  4349 4920 6d6f 6465 2064 6174 6120 636f  CII.mode.data.co
	0x0060:  6e6e 6563 7469 6f6e 2066 6f72 2066 696c  nnection.for.fil
	0x0070:  6520 6c69 7374 0d0a                      e.list..
04:46:26.683471 IP 192.168.0.100.58757 > 202.120.2.2.ftp: Flags [.], ack 933, win 8198, options [nop,nop,TS val 71657280 ecr 3100728214], length 0
	0x0000:  f81a 67cd 576e 7cd1 c394 9eb8 0800 4500  ..g.Wn|.......E.
	0x0010:  0034 91b1 4000 4006 1b8c c0a8 0064 ca78  .4..@.@......d.x
	0x0020:  0202 e585 0015 e4c2 2696 1263 4ae4 8010  ........&..cJ...
	0x0030:  2006 fb07 0000 0101 080a 0445 6740 b8d1  ...........Eg@..
	0x0040:  5b96                                     [.
04:46:27.090131 IP 202.120.2.2.ftp > 192.168.0.100.58757: Flags [P.], seq 933:956, ack 98, win 46, options [nop,nop,TS val 3100728629 ecr 71657280], length 23
	0x0000:  7cd1 c394 9eb8 f81a 67cd 576e 0800 4500  |.......g.Wn..E.
	0x0010:  004b 89de 4000 1e06 4548 ca78 0202 c0a8  .K..@...EH.x....
	0x0020:  0064 0015 e585 1263 4ae4 e4c2 2696 8018  .d.....cJ...&...
	0x0030:  002e 4d57 0000 0101 080a b8d1 5d35 0445  ..MW........]5.E
	0x0040:  6740 3232 3620 5472 616e 7366 6572 2063  g@226.Transfer.c
	0x0050:  6f6d 706c 6574 650d 0a                   omplete..
04:46:27.090193 IP 192.168.0.100.58757 > 202.120.2.2.ftp: Flags [.], ack 956, win 8197, options [nop,nop,TS val 71657686 ecr 3100728629], length 0
	0x0000:  f81a 67cd 576e 7cd1 c394 9eb8 0800 4500  ..g.Wn|.......E.
	0x0010:  0034 b0bf 4000 4006 fc7d c0a8 0064 ca78  .4..@.@..}...d.x
	0x0020:  0202 e585 0015 e4c2 2696 1263 4afb 8010  ........&..cJ...
	0x0030:  2005 f7bc 0000 0101 080a 0445 68d6 b8d1  ...........Eh...
	0x0040:  5d35                                     ]5
04:46:31.350352 IP 192.168.0.100.58759 > 202.120.2.2.ftp: Flags [P.], seq 75:88, ack 750, win 8210, options [nop,nop,TS val 71661944 ecr 3100720828], length 13
	0x0000:  f81a 67cd 576e 7cd1 c394 9eb8 0800 4500  ..g.Wn|.......E.
	0x0010:  0041 e5b9 4000 4006 c776 c0a8 0064 ca78  .A..@.@..v...d.x
	0x0020:  0202 e587 0015 2882 cd90 13cb 3dec 8018  ......(.....=...
	0x0030:  2012 58a1 0000 0101 080a 0445 7978 b8d1  ..X........Eyx..
	0x0040:  3ebc 4357 4420 2f70 6861 7365 310d 0a    >.CWD./phase1..
04:46:31.351188 IP 192.168.0.100.58762 > 202.120.2.2.ftp: Flags [S], seq 2119708603, win 65535, options [mss 1460,nop,wscale 4,nop,nop,TS val 71661944 ecr 0,sackOK,eol], length 0
	0x0000:  f81a 67cd 576e 7cd1 c394 9eb8 0800 4500  ..g.Wn|.......E.
	0x0010:  0040 af8e 4000 4006 fda2 c0a8 0064 ca78  .@..@.@......d.x
	0x0020:  0202 e58a 0015 7e58 2fbb 0000 0000 b002  ......~X/.......
	0x0030:  ffff 9806 0000 0204 05b4 0103 0304 0101  ................
	0x0040:  080a 0445 7978 0000 0000 0402 0000       ...Eyx........
04:46:31.692021 IP 202.120.2.2.ftp > 192.168.0.100.58759: Flags [.], ack 88, win 46, options [nop,nop,TS val 3100733294 ecr 71661944], length 0
	0x0000:  7cd1 c394 9eb8 f81a 67cd 576e 0800 4500  |.......g.Wn..E.
	0x0010:  0034 1692 4000 1e06 b8ab ca78 0202 c0a8  .4..@......x....
	0x0020:  0064 0015 e587 13cb 3dec 2882 cd9d 8010  .d......=.(.....
	0x0030:  002e 1597 0000 0101 080a b8d1 6f6e 0445  ............on.E
	0x0040:  7978                                     yx
04:46:31.692147 IP 202.120.2.2.ftp > 192.168.0.100.58759: Flags [P.], seq 750:778, ack 88, win 46, options [nop,nop,TS val 3100733296 ecr 71661944], length 28
	0x0000:  7cd1 c394 9eb8 f81a 67cd 576e 0800 4500  |.......g.Wn..E.
	0x0010:  0050 1693 4000 1e06 b88e ca78 0202 c0a8  .P..@......x....
	0x0020:  0064 0015 e587 13cb 3dec 2882 cd9d 8018  .d......=.(.....
	0x0030:  002e 630f 0000 0101 080a b8d1 6f70 0445  ..c.........op.E
	0x0040:  7978 3235 3020 4357 4420 636f 6d6d 616e  yx250.CWD.comman
	0x0050:  6420 7375 6363 6573 7366 756c 0d0a       d.successful..
04:46:31.692151 IP 202.120.2.2.ftp > 192.168.0.100.58762: Flags [S.], seq 352023725, ack 2119708604, win 5792, options [mss 1448,sackOK,TS val 3100733298 ecr 71661944,nop,wscale 7], length 0
	0x0000:  7cd1 c394 9eb8 f81a 67cd 576e 0800 4500  |.......g.Wn..E.
	0x0010:  003c 0000 4000 1e06 cf35 ca78 0202 c0a8  .<..@....5.x....
	0x0020:  0064 0015 e58a 14fb 74ad 7e58 2fbc a012  .d......t.~X/...
	0x0030:  16a0 e076 0000 0204 05a8 0402 080a b8d1  ...v............
	0x0040:  6f72 0445 7978 0103 0307                 or.Eyx....
04:46:31.692216 IP 192.168.0.100.58759 > 202.120.2.2.ftp: Flags [.], ack 778, win 8208, options [nop,nop,TS val 71662285 ecr 3100733296], length 0
	0x0000:  f81a 67cd 576e 7cd1 c394 9eb8 0800 4500  ..g.Wn|.......E.
	0x0010:  0034 6f34 4000 4006 3e09 c0a8 0064 ca78  .4o4@.@.>....d.x
	0x0020:  0202 e587 0015 2882 cd9d 13cb 3e08 8010  ......(.....>...
	0x0030:  2010 f441 0000 0101 080a 0445 7acd b8d1  ...A.......Ez...
	0x0040:  6f70                                     op
04:46:31.692261 IP 192.168.0.100.58762 > 202.120.2.2.ftp: Flags [.], ack 1, win 8257, options [nop,nop,TS val 71662285 ecr 3100733298], length 0
	0x0000:  f81a 67cd 576e 7cd1 c394 9eb8 0800 4500  ..g.Wn|.......E.
	0x0010:  0034 3c46 4000 4006 70f7 c0a8 0064 ca78  .4<F@.@.p....d.x
	0x0020:  0202 e58a 0015 7e58 2fbc 14fb 74ae 8010  ......~X/...t...
	0x0030:  2041 0441 0000 0101 080a 0445 7acd b8d1  .A.A.......Ez...
	0x0040:  6f72                                     or
04:46:31.692433 IP 192.168.0.100.58759 > 202.120.2.2.ftp: Flags [P.], seq 88:93, ack 778, win 8208, options [nop,nop,TS val 71662285 ecr 3100733296], length 5
	0x0000:  f81a 67cd 576e 7cd1 c394 9eb8 0800 4500  ..g.Wn|.......E.
	0x0010:  0039 a7b7 4000 4006 0581 c0a8 0064 ca78  .9..@.@......d.x
	0x0020:  0202 e587 0015 2882 cd9d 13cb 3e08 8018  ......(.....>...
	0x0030:  2010 55d0 0000 0101 080a 0445 7acd b8d1  ..U........Ez...
	0x0040:  6f70 5057 440d 0a                        opPWD..
04:46:32.101221 IP 202.120.2.2.ftp > 192.168.0.100.58759: Flags [P.], seq 778:818, ack 93, win 46, options [nop,nop,TS val 3100733641 ecr 71662285], length 40
	0x0000:  7cd1 c394 9eb8 f81a 67cd 576e 0800 4500  |.......g.Wn..E.
	0x0010:  005c 1694 4000 1e06 b881 ca78 0202 c0a8  .\..@......x....
	0x0020:  0064 0015 e587 13cb 3e08 2882 cda2 8018  .d......>.(.....
	0x0030:  002e e1ba 0000 0101 080a b8d1 70c9 0445  ............p..E
	0x0040:  7acd 3235 3720 222f 7068 6173 6531 2220  z.257."/phase1".
	0x0050:  6973 2074 6865 2063 7572 7265 6e74 2064  is.the.current.d
	0x0060:  6972 6563 746f 7279 0d0a                 irectory..
04:46:32.101284 IP 202.120.2.2.ftp > 192.168.0.100.58762: Flags [P.], seq 1:7, ack 1, win 46, options [nop,nop,TS val 3100733652 ecr 71662285], length 6
	0x0000:  7cd1 c394 9eb8 f81a 67cd 576e 0800 4500  |.......g.Wn..E.
	0x0010:  003a 0466 4000 1e06 cad1 ca78 0202 c0a8  .:.f@......x....
	0x0020:  0064 0015 e58a 14fb 74ae 7e58 2fbc 8018  .d......t.~X/...
	0x0030:  002e b37a 0000 0101 080a b8d1 70d4 0445  ...z........p..E
	0x0040:  7acd 3232 302d 0d0a                      z.220-..
04:46:32.101337 IP 192.168.0.100.58759 > 202.120.2.2.ftp: Flags [.], ack 818, win 8205, options [nop,nop,TS val 71662693 ecr 3100733641], length 0
	0x0000:  f81a 67cd 576e 7cd1 c394 9eb8 0800 4500  ..g.Wn|.......E.
	0x0010:  0034 d3aa 4000 4006 d992 c0a8 0064 ca78  .4..@.@......d.x
	0x0020:  0202 e587 0015 2882 cda2 13cb 3e30 8010  ......(.....>0..
	0x0030:  200d f126 0000 0101 080a 0445 7c65 b8d1  ...&.......E|e..
	0x0040:  70c9                                     p.
04:46:32.101385 IP 192.168.0.100.58762 > 202.120.2.2.ftp: Flags [.], ack 7, win 8256, options [nop,nop,TS val 71662693 ecr 3100733652], length 0
	0x0000:  f81a 67cd 576e 7cd1 c394 9eb8 0800 4500  ..g.Wn|.......E.
	0x0010:  0034 61a0 4000 4006 4b9d c0a8 0064 ca78  .4a.@.@.K....d.x
	0x0020:  0202 e58a 0015 7e58 2fbc 14fb 74b4 8010  ......~X/...t...
	0x0030:  2040 0142 0000 0101 080a 0445 7c65 b8d1  .@.B.......E|e..
	0x0040:  70d4                                     p.
04:46:32.101927 IP 192.168.0.100.58759 > 202.120.2.2.ftp: Flags [P.], seq 93:101, ack 818, win 8205, options [nop,nop,TS val 71662693 ecr 3100733641], length 8
	0x0000:  f81a 67cd 576e 7cd1 c394 9eb8 0800 4500  ..g.Wn|.......E.
	0x0010:  003c 3c6d 4000 4006 70c8 c0a8 0064 ca78  .<<m@.@.p....d.x
	0x0020:  0202 e587 0015 2882 cda2 13cb 3e30 8018  ......(.....>0..
	0x0030:  200d 1f2d 0000 0101 080a 0445 7c65 b8d1  ...-.......E|e..
	0x0040:  70c9 5459 5045 2041 0d0a                 p.TYPE.A..
04:46:32.406322 IP 202.120.2.2.ftp > 192.168.0.100.58759: Flags [P.], seq 818:837, ack 101, win 46, options [nop,nop,TS val 3100734048 ecr 71662693], length 19
	0x0000:  7cd1 c394 9eb8 f81a 67cd 576e 0800 4500  |.......g.Wn..E.
	0x0010:  0047 1695 4000 1e06 b895 ca78 0202 c0a8  .G..@......x....
	0x0020:  0064 0015 e587 13cb 3e30 2882 cdaa 8018  .d......>0(.....
	0x0030:  002e 8793 0000 0101 080a b8d1 7260 0445  ............r`.E
	0x0040:  7c65 3230 3020 5479 7065 2073 6574 2074  |e200.Type.set.t
	0x0050:  6f20 410d 0a                             o.A..
04:46:32.406404 IP 192.168.0.100.58759 > 202.120.2.2.ftp: Flags [.], ack 837, win 8204, options [nop,nop,TS val 71662997 ecr 3100734048], length 0
	0x0000:  f81a 67cd 576e 7cd1 c394 9eb8 0800 4500  ..g.Wn|.......E.
	0x0010:  0034 9a59 4000 4006 12e4 c0a8 0064 ca78  .4.Y@.@......d.x
	0x0020:  0202 e587 0015 2882 cdaa 13cb 3e43 8010  ......(.....>C..
	0x0030:  200c ee45 0000 0101 080a 0445 7d95 b8d1  ...E.......E}...
	0x0040:  7260                                     r`
04:46:32.406523 IP 202.120.2.2.ftp > 192.168.0.100.58762: Flags [P.], seq 7:418, ack 1, win 46, options [nop,nop,TS val 3100734048 ecr 71662693], length 411
	0x0000:  7cd1 c394 9eb8 f81a 67cd 576e 0800 4500  |.......g.Wn..E.
	0x0010:  01cf 0467 4000 1e06 c93b ca78 0202 c0a8  ...g@....;.x....
	0x0020:  0064 0015 e58a 14fb 74b4 7e58 2fbc 8018  .d......t.~X/...
	0x0030:  002e ab37 0000 0101 080a b8d1 7260 0445  ...7........r`.E
	0x0040:  7c65 3232 302d 2020 2d2d 2057 656c 636f  |e220-..--.Welco
	0x0050:  6d65 2074 6f20 506f 7274 616c 206f 6620  me.to.Portal.of.
	0x0060:  5368 616e 6768 6169 204a 6961 6f20 546f  Shanghai.Jiao.To
	0x0070:  6e67 2055 6e69 7665 7273 6974 7920 2d2d  ng.University.--
	0x0080:  0d0a 3232 302d 2020 2d59 6f75 2061 7265  ..220-..-You.are
	0x0090:  206e 756d 6265 7220 3233 206f 6620 3132  .number.23.of.12
	0x00a0:  3030 2061 6c6c 6f77 6564 2075 7365 7273  00.allowed.users
	0x00b0:  2e0d 0a32 3230 2d20 202d 4c6f 6361 6c20  ...220-..-Local.
	0x00c0:  7469 6d65 2069 7320 4d6f 6e20 4665 6220  time.is.Mon.Feb.
	0x00d0:  3234 2031 363a 3436 3a33 3120 3230 3134  24.16:46:31.2014
	0x00e0:  206e 6f77 2e0d 0a32 3230 2d20 202d 5468  .now...220-..-Th
	0x00f0:  6973 2069 7320 6120 7072 6976 6174 6520  is.is.a.private.
	0x0100:  7379 7374 656d 202d 204e 6f20 616e 6f6e  system.-.No.anon
	0x0110:  796d 6f75 7320 6c6f 6769 6e20 616c 6c6f  ymous.login.allo
	0x0120:  7765 640d 0a32 3230 2d20 202d 596f 7520  wed..220-..-You.
	0x0130:  7769 6c6c 2062 6520 6469 7363 6f6e 6e65  will.be.disconne
	0x0140:  6374 6564 2061 6674 6572 2031 3520 6d69  cted.after.15.mi
	0x0150:  6e75 7465 7320 6f66 2069 6e61 6374 6976  nutes.of.inactiv
	0x0160:  6974 792e 0d0a 3232 302d 2020 2d2d 2d2d  ity...220-..----
	0x0170:  2d2d 2d2d 2d2d 2d2d 2d2d 2d2d 2d2d 2d2d  ----------------
	0x0180:  2d2d 2d2d 2d2d 2d2d 2d2d 2d2d 2d2d 2d2d  ----------------
	0x0190:  2d2d 2d2d 2d2d 2d2d 2d2d 2d2d 2d2d 2d2d  ----------------
	0x01a0:  2d2d 2d2d 2d0d 0a32 3230 2050 726f 4654  -----..220.ProFT
	0x01b0:  5044 2031 2e33 2e32 2053 6572 7665 7220  PD.1.3.2.Server.
	0x01c0:  2870 7562 6c69 635f 534a 5455 2920 5b32  (public_SJTU).[2
	0x01d0:  3032 2e31 3230 2e32 2e32 5d0d 0a         02.120.2.2]..
04:46:32.406611 IP 192.168.0.100.58762 > 202.120.2.2.ftp: Flags [.], ack 418, win 8230, options [nop,nop,TS val 71662997 ecr 3100734048], length 0
	0x0000:  f81a 67cd 576e 7cd1 c394 9eb8 0800 4500  ..g.Wn|.......E.
	0x0010:  0034 0d49 4000 4006 9ff4 c0a8 0064 ca78  .4.I@.@......d.x
	0x0020:  0202 e58a 0015 7e58 2fbc 14fb 764f 8010  ......~X/...vO..
	0x0030:  2026 fd04 0000 0101 080a 0445 7d95 b8d1  .&.........E}...
	0x0040:  7260                                     r`
04:46:32.406830 IP 192.168.0.100.58759 > 202.120.2.2.ftp: Flags [P.], seq 101:107, ack 837, win 8204, options [nop,nop,TS val 71662997 ecr 3100734048], length 6
	0x0000:  f81a 67cd 576e 7cd1 c394 9eb8 0800 4500  ..g.Wn|.......E.
	0x0010:  003a a672 4000 4006 06c5 c0a8 0064 ca78  .:.r@.@......d.x
	0x0020:  0202 e587 0015 2882 cdaa 13cb 3e43 8018  ......(.....>C..
	0x0030:  200c 3d96 0000 0101 080a 0445 7d95 b8d1  ..=........E}...
	0x0040:  7260 5041 5356 0d0a                      r`PASV..
04:46:32.406895 IP 192.168.0.100.58762 > 202.120.2.2.ftp: Flags [P.], seq 1:19, ack 418, win 8230, options [nop,nop,TS val 71662997 ecr 3100734048], length 18
	0x0000:  f81a 67cd 576e 7cd1 c394 9eb8 0800 4500  ..g.Wn|.......E.
	0x0010:  0046 f0d0 4000 4006 bc5a c0a8 0064 ca78  .F..@.@..Z...d.x
	0x0020:  0202 e58a 0015 7e58 2fbc 14fb 764f 8018  ......~X/...vO..
	0x0030:  2026 12b0 0000 0101 080a 0445 7d95 b8d1  .&.........E}...
	0x0040:  7260 5553 4552 2073 6869 6e69 6e67 6d6f  r`USER.shiningmo
	0x0050:  6f6e 0d0a                                on..
04:46:32.816987 IP 202.120.2.2.ftp > 192.168.0.100.58762: Flags [.], ack 19, win 46, options [nop,nop,TS val 3100734352 ecr 71662997], length 0
	0x0000:  7cd1 c394 9eb8 f81a 67cd 576e 0800 4500  |.......g.Wn..E.
	0x0010:  0034 0468 4000 1e06 cad5 ca78 0202 c0a8  .4.h@......x....
	0x0020:  0064 0015 e58a 14fb 764f 7e58 2fce 8010  .d......vO~X/...
	0x0030:  002e 1bbb 0000 0101 080a b8d1 7390 0445  ............s..E
	0x0040:  7d95                                     }.
04:46:32.817580 IP 202.120.2.2.ftp > 192.168.0.100.58762: Flags [P.], seq 418:457, ack 19, win 46, options [nop,nop,TS val 3100734354 ecr 71662997], length 39
	0x0000:  7cd1 c394 9eb8 f81a 67cd 576e 0800 4500  |.......g.Wn..E.
	0x0010:  005b 0469 4000 1e06 caad ca78 0202 c0a8  .[.i@......x....
	0x0020:  0064 0015 e58a 14fb 764f 7e58 2fce 8018  .d......vO~X/...
	0x0030:  002e c9fb 0000 0101 080a b8d1 7392 0445  ............s..E
	0x0040:  7d95 3333 3120 5061 7373 776f 7264 2072  }.331.Password.r
	0x0050:  6571 7569 7265 6420 666f 7220 7368 696e  equired.for.shin
	0x0060:  696e 676d 6f6f 6e0d 0a                   ingmoon..
04:46:32.817649 IP 192.168.0.100.58762 > 202.120.2.2.ftp: Flags [.], ack 457, win 8228, options [nop,nop,TS val 71663406 ecr 3100734354], length 0
	0x0000:  f81a 67cd 576e 7cd1 c394 9eb8 0800 4500  ..g.Wn|.......E.
	0x0010:  0034 33de 4000 4006 795f c0a8 0064 ca78  .43.@.@.y_...d.x
	0x0020:  0202 e58a 0015 7e58 2fce 14fb 7676 8010  ......~X/...vv..
	0x0030:  2024 fa02 0000 0101 080a 0445 7f2e b8d1  .$.........E....
	0x0040:  7392                                     s.
04:46:32.817761 IP 202.120.2.2.ftp > 192.168.0.100.58759: Flags [P.], seq 837:887, ack 107, win 46, options [nop,nop,TS val 3100734354 ecr 71662997], length 50
	0x0000:  7cd1 c394 9eb8 f81a 67cd 576e 0800 4500  |.......g.Wn..E.
	0x0010:  0066 1696 4000 1e06 b875 ca78 0202 c0a8  .f..@....u.x....
	0x0020:  0064 0015 e587 13cb 3e43 2882 cdb0 8018  .d......>C(.....
	0x0030:  002e 9f2a 0000 0101 080a b8d1 7392 0445  ...*........s..E
	0x0040:  7d95 3232 3720 456e 7465 7269 6e67 2050  }.227.Entering.P
	0x0050:  6173 7369 7665 204d 6f64 6520 2832 3032  assive.Mode.(202
	0x0060:  2c31 3230 2c32 2c32 2c31 3935 2c31 3232  ,120,2,2,195,122
	0x0070:  292e 0d0a                                )...
04:46:32.817846 IP 192.168.0.100.58759 > 202.120.2.2.ftp: Flags [.], ack 887, win 8201, options [nop,nop,TS val 71663406 ecr 3100734354], length 0
	0x0000:  f81a 67cd 576e 7cd1 c394 9eb8 0800 4500  ..g.Wn|.......E.
	0x0010:  0034 1b97 4000 4006 91a6 c0a8 0064 ca78  .4..@.@......d.x
	0x0020:  0202 e587 0015 2882 cdb0 13cb 3e75 8010  ......(.....>u..
	0x0030:  2009 eb45 0000 0101 080a 0445 7f2e b8d1  ...E.......E....
	0x0040:  7392                                     s.
04:46:32.817865 IP 192.168.0.100.58762 > 202.120.2.2.ftp: Flags [P.], seq 19:32, ack 457, win 8228, options [nop,nop,TS val 71663406 ecr 3100734354], length 13
	0x0000:  f81a 67cd 576e 7cd1 c394 9eb8 0800 4500  ..g.Wn|.......E.
	0x0010:  0041 9684 4000 4006 16ac c0a8 0064 ca78  .A..@.@......d.x
	0x0020:  0202 e58a 0015 7e58 2fce 14fb 7676 8018  ......~X/...vv..
	0x0030:  2024 e70f 0000 0101 080a 0445 7f2e b8d1  .$.........E....
	0x0040:  7392 5041 5353 2070 7562 6c69 630d 0a    s.PASS.public..
04:46:32.818798 IP 192.168.0.100.58759 > 202.120.2.2.ftp: Flags [P.], seq 107:122, ack 887, win 8201, options [nop,nop,TS val 71663407 ecr 3100734354], length 15
	0x0000:  f81a 67cd 576e 7cd1 c394 9eb8 0800 4500  ..g.Wn|.......E.
	0x0010:  0043 200b 4000 4006 8d23 c0a8 0064 ca78  .C..@.@..#...d.x
	0x0020:  0202 e587 0015 2882 cdb0 13cb 3e75 8018  ......(.....>u..
	0x0030:  2009 d716 0000 0101 080a 0445 7f2f b8d1  ...........E./..
	0x0040:  7392 5245 5452 2041 5250 2e6a 6176 610d  s.RETR.ARP.java.
	0x0050:  0a                                       .
04:46:33.226762 IP 202.120.2.2.ftp > 192.168.0.100.58762: Flags [P.], seq 457:495, ack 32, win 46, options [nop,nop,TS val 3100734786 ecr 71663406], length 38
	0x0000:  7cd1 c394 9eb8 f81a 67cd 576e 0800 4500  |.......g.Wn..E.
	0x0010:  005a 046a 4000 1e06 caad ca78 0202 c0a8  .Z.j@......x....
	0x0020:  0064 0015 e58a 14fb 7676 7e58 2fdb 8018  .d......vv~X/...
	0x0030:  002e ee73 0000 0101 080a b8d1 7542 0445  ...s........uB.E
	0x0040:  7f2e 3233 302d 2020 5175 6f74 6173 206f  ..230-..Quotas.o
	0x0050:  6e3a 2031 372e 3731 204d 422f 3530 302e  n:.17.71.MB/500.
	0x0060:  3030 204d 4220 0d0a                      00.MB...
04:46:33.226764 IP 202.120.2.2.ftp > 192.168.0.100.58759: Flags [.], ack 122, win 46, options [nop,nop,TS val 3100734805 ecr 71663407], length 0
	0x0000:  7cd1 c394 9eb8 f81a 67cd 576e 0800 4500  |.......g.Wn..E.
	0x0010:  0034 1697 4000 1e06 b8a6 ca78 0202 c0a8  .4..@......x....
	0x0020:  0064 0015 e587 13cb 3e75 2882 cdbf 8010  .d......>u(.....
	0x0030:  002e 094e 0000 0101 080a b8d1 7555 0445  ...N........uU.E
	0x0040:  7f2f                                     ./
04:46:33.226806 IP 192.168.0.100.58762 > 202.120.2.2.ftp: Flags [.], ack 495, win 8226, options [nop,nop,TS val 71663813 ecr 3100734786], length 0
	0x0000:  f81a 67cd 576e 7cd1 c394 9eb8 0800 4500  ..g.Wn|.......E.
	0x0010:  0034 74c5 4000 4006 3878 c0a8 0064 ca78  .4t.@.@.8x...d.x
	0x0020:  0202 e58a 0015 7e58 2fdb 14fb 769c 8010  ......~X/...v...
	0x0030:  2022 f68a 0000 0101 080a 0445 80c5 b8d1  .".........E....
	0x0040:  7542                                     uB
04:46:33.635392 IP 202.120.2.2.ftp > 192.168.0.100.58759: Flags [P.], seq 887:953, ack 122, win 46, options [nop,nop,TS val 3100735169 ecr 71663407], length 66
	0x0000:  7cd1 c394 9eb8 f81a 67cd 576e 0800 4500  |.......g.Wn..E.
	0x0010:  0076 1698 4000 1e06 b863 ca78 0202 c0a8  .v..@....c.x....
	0x0020:  0064 0015 e587 13cb 3e75 2882 cdbf 8018  .d......>u(.....
	0x0030:  002e ab29 0000 0101 080a b8d1 76c1 0445  ...)........v..E
	0x0040:  7f2f 3135 3020 4f70 656e 696e 6720 4153  ./150.Opening.AS
	0x0050:  4349 4920 6d6f 6465 2064 6174 6120 636f  CII.mode.data.co
	0x0060:  6e6e 6563 7469 6f6e 2066 6f72 2041 5250  nnection.for.ARP
	0x0070:  2e6a 6176 6120 2832 3238 3320 6279 7465  .java.(2283.byte
	0x0080:  7329 0d0a                                s)..
04:46:33.635522 IP 202.120.2.2.ftp > 192.168.0.100.58762: Flags [P.], seq 495:527, ack 32, win 46, options [nop,nop,TS val 3100735172 ecr 71663813], length 32
	0x0000:  7cd1 c394 9eb8 f81a 67cd 576e 0800 4500  |.......g.Wn..E.
	0x0010:  0054 046b 4000 1e06 cab2 ca78 0202 c0a8  .T.k@......x....
	0x0020:  0064 0015 e58a 14fb 769c 7e58 2fdb 8018  .d......v.~X/...
	0x0030:  002e e33e 0000 0101 080a b8d1 76c4 0445  ...>........v..E
	0x0040:  80c5 3233 3020 5573 6572 2073 6869 6e69  ..230.User.shini
	0x0050:  6e67 6d6f 6f6e 206c 6f67 6765 6420 696e  ngmoon.logged.in
	0x0060:  0d0a                                     ..
04:46:33.635541 IP 192.168.0.100.58759 > 202.120.2.2.ftp: Flags [.], ack 953, win 8197, options [nop,nop,TS val 71664221 ecr 3100735169], length 0
	0x0000:  f81a 67cd 576e 7cd1 c394 9eb8 0800 4500  ..g.Wn|.......E.
	0x0010:  0034 690d 4000 4006 4430 c0a8 0064 ca78  .4i.@.@.D0...d.x
	0x0020:  0202 e587 0015 2882 cdbf 13cb 3eb7 8010  ......(.....>...
	0x0030:  2005 e49a 0000 0101 080a 0445 825d b8d1  ...........E.]..
	0x0040:  76c1                                     v.
04:46:33.635610 IP 192.168.0.100.58762 > 202.120.2.2.ftp: Flags [.], ack 527, win 8224, options [nop,nop,TS val 71664221 ecr 3100735172], length 0
	0x0000:  f81a 67cd 576e 7cd1 c394 9eb8 0800 4500  ..g.Wn|.......E.
	0x0010:  0034 6920 4000 4006 441d c0a8 0064 ca78  .4i.@.@.D....d.x
	0x0020:  0202 e58a 0015 7e58 2fdb 14fb 76bc 8010  ......~X/...v...
	0x0030:  2020 f352 0000 0101 080a 0445 825d b8d1  ...R.......E.]..
	0x0040:  76c4                                     v.
04:46:33.636978 IP 192.168.0.100.58762 > 202.120.2.2.ftp: Flags [P.], seq 32:45, ack 527, win 8224, options [nop,nop,TS val 71664222 ecr 3100735172], length 13
	0x0000:  f81a 67cd 576e 7cd1 c394 9eb8 0800 4500  ..g.Wn|.......E.
	0x0010:  0041 0e57 4000 4006 9ed9 c0a8 0064 ca78  .A.W@.@......d.x
	0x0020:  0202 e58a 0015 7e58 2fdb 14fb 76bc 8018  ......~X/...v...
	0x0030:  2020 2581 0000 0101 080a 0445 825e b8d1  ..%........E.^..
	0x0040:  76c4 4357 4420 2f70 6861 7365 310d 0a    v.CWD./phase1..
04:46:34.044268 IP 202.120.2.2.ftp > 192.168.0.100.58762: Flags [P.], seq 527:555, ack 45, win 46, options [nop,nop,TS val 3100735585 ecr 71664222], length 28
	0x0000:  7cd1 c394 9eb8 f81a 67cd 576e 0800 4500  |.......g.Wn..E.
	0x0010:  0050 046c 4000 1e06 cab5 ca78 0202 c0a8  .P.l@......x....
	0x0020:  0064 0015 e58a 14fb 76bc 7e58 2fe8 8018  .d......v.~X/...
	0x0030:  002e 5f14 0000 0101 080a b8d1 7861 0445  .._.........xa.E
	0x0040:  825e 3235 3020 4357 4420 636f 6d6d 616e  .^250.CWD.comman
	0x0050:  6420 7375 6363 6573 7366 756c 0d0a       d.successful..
04:46:34.044384 IP 192.168.0.100.58762 > 202.120.2.2.ftp: Flags [.], ack 555, win 8222, options [nop,nop,TS val 71664628 ecr 3100735585], length 0
	0x0000:  f81a 67cd 576e 7cd1 c394 9eb8 0800 4500  ..g.Wn|.......E.
	0x0010:  0034 dab6 4000 4006 d286 c0a8 0064 ca78  .4..@.@......d.x
	0x0020:  0202 e58a 0015 7e58 2fe8 14fb 76d8 8010  ......~X/...v...
	0x0030:  201e eff7 0000 0101 080a 0445 83f4 b8d1  ...........E....
	0x0040:  7861                                     xa
04:46:34.045065 IP 192.168.0.100.58762 > 202.120.2.2.ftp: Flags [P.], seq 45:53, ack 555, win 8222, options [nop,nop,TS val 71664628 ecr 3100735585], length 8
	0x0000:  f81a 67cd 576e 7cd1 c394 9eb8 0800 4500  ..g.Wn|.......E.
	0x0010:  003c 6c94 4000 4006 40a1 c0a8 0064 ca78  .<l.@.@.@....d.x
	0x0020:  0202 e58a 0015 7e58 2fe8 14fb 76d8 8018  ......~X/...v...
	0x0030:  201e 1dfe 0000 0101 080a 0445 83f4 b8d1  ...........E....
	0x0040:  7861 5459 5045 2041 0d0a                 xaTYPE.A..
04:46:34.053021 IP 202.120.2.2.ftp > 192.168.0.100.58759: Flags [P.], seq 953:976, ack 122, win 46, options [nop,nop,TS val 3100735695 ecr 71664221], length 23
	0x0000:  7cd1 c394 9eb8 f81a 67cd 576e 0800 4500  |.......g.Wn..E.
	0x0010:  004b 1699 4000 1e06 b88d ca78 0202 c0a8  .K..@......x....
	0x0020:  0064 0015 e587 13cb 3eb7 2882 cdbf 8018  .d......>.(.....
	0x0030:  002e 367a 0000 0101 080a b8d1 78cf 0445  ..6z........x..E
	0x0040:  825d 3232 3620 5472 616e 7366 6572 2063  .]226.Transfer.c
	0x0050:  6f6d 706c 6574 650d 0a                   omplete..
04:46:34.053117 IP 192.168.0.100.58759 > 202.120.2.2.ftp: Flags [.], ack 976, win 8196, options [nop,nop,TS val 71664636 ecr 3100735695], length 0
	0x0000:  f81a 67cd 576e 7cd1 c394 9eb8 0800 4500  ..g.Wn|.......E.
	0x0010:  0034 dbe4 4000 4006 d158 c0a8 0064 ca78  .4..@.@..X...d.x
	0x0020:  0202 e587 0015 2882 cdbf 13cb 3ece 8010  ......(.....>...
	0x0030:  2004 e0d7 0000 0101 080a 0445 83fc b8d1  ...........E....
	0x0040:  78cf                                     x.
04:46:34.453134 IP 202.120.2.2.ftp > 192.168.0.100.58762: Flags [P.], seq 555:574, ack 53, win 46, options [nop,nop,TS val 3100735992 ecr 71664628], length 19
	0x0000:  7cd1 c394 9eb8 f81a 67cd 576e 0800 4500  |.......g.Wn..E.
	0x0010:  0047 046d 4000 1e06 cabd ca78 0202 c0a8  .G.m@......x....
	0x0020:  0064 0015 e58a 14fb 76d8 7e58 2ff0 8018  .d......v.~X/...
	0x0030:  002e 8675 0000 0101 080a b8d1 79f8 0445  ...u........y..E
	0x0040:  83f4 3230 3020 5479 7065 2073 6574 2074  ..200.Type.set.t
	0x0050:  6f20 410d 0a                             o.A..
04:46:34.453218 IP 192.168.0.100.58762 > 202.120.2.2.ftp: Flags [.], ack 574, win 8221, options [nop,nop,TS val 71665036 ecr 3100735992], length 0
	0x0000:  f81a 67cd 576e 7cd1 c394 9eb8 0800 4500  ..g.Wn|.......E.
	0x0010:  0034 fda6 4000 4006 af96 c0a8 0064 ca78  .4..@.@......d.x
	0x0020:  0202 e58a 0015 7e58 2ff0 14fb 76eb 8010  ......~X/...v...
	0x0030:  201d ecae 0000 0101 080a 0445 858c b8d1  ...........E....
	0x0040:  79f8                                     y.
04:46:34.453335 IP 192.168.0.100.58762 > 202.120.2.2.ftp: Flags [P.], seq 53:59, ack 574, win 8221, options [nop,nop,TS val 71665036 ecr 3100735992], length 6
	0x0000:  f81a 67cd 576e 7cd1 c394 9eb8 0800 4500  ..g.Wn|.......E.
	0x0010:  003a 630b 4000 4006 4a2c c0a8 0064 ca78  .:c.@.@.J,...d.x
	0x0020:  0202 e58a 0015 7e58 2ff0 14fb 76eb 8018  ......~X/...v...
	0x0030:  201d 3bff 0000 0101 080a 0445 858c b8d1  ..;........E....
	0x0040:  79f8 5041 5356 0d0a                      y.PASV..
04:46:34.862368 IP 202.120.2.2.ftp > 192.168.0.100.58762: Flags [P.], seq 574:624, ack 59, win 46, options [nop,nop,TS val 3100736401 ecr 71665036], length 50
	0x0000:  7cd1 c394 9eb8 f81a 67cd 576e 0800 4500  |.......g.Wn..E.
	0x0010:  0066 046e 4000 1e06 ca9d ca78 0202 c0a8  .f.n@......x....
	0x0020:  0064 0015 e58a 14fb 76eb 7e58 2ff6 8018  .d......v.~X/...
	0x0030:  002e a03e 0000 0101 080a b8d1 7b91 0445  ...>........{..E
	0x0040:  858c 3232 3720 456e 7465 7269 6e67 2050  ..227.Entering.P
	0x0050:  6173 7369 7665 204d 6f64 6520 2832 3032  assive.Mode.(202
	0x0060:  2c31 3230 2c32 2c32 2c31 3531 2c32 3334  ,120,2,2,151,234
	0x0070:  292e 0d0a                                )...
04:46:34.862449 IP 192.168.0.100.58762 > 202.120.2.2.ftp: Flags [.], ack 624, win 8218, options [nop,nop,TS val 71665444 ecr 3100736401], length 0
	0x0000:  f81a 67cd 576e 7cd1 c394 9eb8 0800 4500  ..g.Wn|.......E.
	0x0010:  0034 f90e 4000 4006 b42e c0a8 0064 ca78  .4..@.@......d.x
	0x0020:  0202 e58a 0015 7e58 2ff6 14fb 771d 8010  ......~X/...w...
	0x0030:  201a e948 0000 0101 080a 0445 8724 b8d1  ...H.......E.$..
	0x0040:  7b91                                     {.
04:46:34.864297 IP 192.168.0.100.58762 > 202.120.2.2.ftp: Flags [P.], seq 59:79, ack 624, win 8218, options [nop,nop,TS val 71665445 ecr 3100736401], length 20
	0x0000:  f81a 67cd 576e 7cd1 c394 9eb8 0800 4500  ..g.Wn|.......E.
	0x0010:  0048 9d2c 4000 4006 0ffd c0a8 0064 ca78  .H.,@.@......d.x
	0x0020:  0202 e58a 0015 7e58 2ff6 14fb 771d 8018  ......~X/...w...
	0x0030:  201a ae2c 0000 0101 080a 0445 8725 b8d1  ...,.......E.%..
	0x0040:  7b91 5245 5452 204c 3253 7769 7463 682e  {.RETR.L2Switch.
	0x0050:  6a61 7661 0d0a                           java..
04:46:35.272859 IP 202.120.2.2.ftp > 192.168.0.100.58762: Flags [.], ack 79, win 46, options [nop,nop,TS val 3100736849 ecr 71665445], length 0
	0x0000:  7cd1 c394 9eb8 f81a 67cd 576e 0800 4500  |.......g.Wn..E.
	0x0010:  0034 046f 4000 1e06 cace ca78 0202 c0a8  .4.o@......x....
	0x0020:  0064 0015 e58a 14fb 771d 7e58 300a 8010  .d......w.~X0...
	0x0030:  002e 0760 0000 0101 080a b8d1 7d51 0445  ...`........}Q.E
	0x0040:  8725                                     .%
04:46:35.680912 IP 202.120.2.2.ftp > 192.168.0.100.58762: Flags [P.], seq 624:695, ack 79, win 46, options [nop,nop,TS val 3100737215 ecr 71665445], length 71
	0x0000:  7cd1 c394 9eb8 f81a 67cd 576e 0800 4500  |.......g.Wn..E.
	0x0010:  007b 0470 4000 1e06 ca86 ca78 0202 c0a8  .{.p@......x....
	0x0020:  0064 0015 e58a 14fb 771d 7e58 300a 8018  .d......w.~X0...
	0x0030:  002e b11d 0000 0101 080a b8d1 7ebf 0445  ............~..E
	0x0040:  8725 3135 3020 4f70 656e 696e 6720 4153  .%150.Opening.AS
	0x0050:  4349 4920 6d6f 6465 2064 6174 6120 636f  CII.mode.data.co
	0x0060:  6e6e 6563 7469 6f6e 2066 6f72 204c 3253  nnection.for.L2S
	0x0070:  7769 7463 682e 6a61 7661 2028 3331 3338  witch.java.(3138
	0x0080:  2062 7974 6573 290d 0a                   .bytes)..
04:46:35.680986 IP 192.168.0.100.58762 > 202.120.2.2.ftp: Flags [.], ack 695, win 8213, options [nop,nop,TS val 71666261 ecr 3100737215], length 0
	0x0000:  f81a 67cd 576e 7cd1 c394 9eb8 0800 4500  ..g.Wn|.......E.
	0x0010:  0034 e2d8 4000 4006 ca64 c0a8 0064 ca78  .4..@.@..d...d.x
	0x0020:  0202 e58a 0015 7e58 300a 14fb 7764 8010  ......~X0...wd..
	0x0030:  2015 e293 0000 0101 080a 0445 8a55 b8d1  ...........E.U..
	0x0040:  7ebf                                     ~.
04:46:36.108728 IP 202.120.2.2.ftp > 192.168.0.100.58762: Flags [P.], seq 695:718, ack 79, win 46, options [nop,nop,TS val 3100737751 ecr 71666261], length 23
	0x0000:  7cd1 c394 9eb8 f81a 67cd 576e 0800 4500  |.......g.Wn..E.
	0x0010:  004b 0471 4000 1e06 cab5 ca78 0202 c0a8  .K.q@......x....
	0x0020:  0064 0015 e58a 14fb 7764 7e58 300a 8018  .d......wd~X0...
	0x0030:  002e 3479 0000 0101 080a b8d1 80d7 0445  ..4y...........E
	0x0040:  8a55 3232 3620 5472 616e 7366 6572 2063  .U226.Transfer.c
	0x0050:  6f6d 706c 6574 650d 0a                   omplete..
04:46:36.108801 IP 192.168.0.100.58762 > 202.120.2.2.ftp: Flags [.], ack 718, win 8212, options [nop,nop,TS val 71666685 ecr 3100737751], length 0
	0x0000:  f81a 67cd 576e 7cd1 c394 9eb8 0800 4500  ..g.Wn|.......E.
	0x0010:  0034 dcb0 4000 4006 d08c c0a8 0064 ca78  .4..@.@......d.x
	0x0020:  0202 e58a 0015 7e58 300a 14fb 777b 8010  ......~X0...w{..
	0x0030:  2014 debd 0000 0101 080a 0445 8bfd b8d1  ...........E....
	0x0040:  80d7                                     ..
04:46:37.617048 IP 192.168.0.100.58757 > 202.120.2.2.ftp: Flags [P.], seq 98:104, ack 956, win 8197, options [nop,nop,TS val 71668188 ecr 3100728629], length 6
	0x0000:  f81a 67cd 576e 7cd1 c394 9eb8 0800 4500  ..g.Wn|.......E.
	0x0010:  003a 7ea3 4000 4006 2e94 c0a8 0064 ca78  .:~.@.@......d.x
	0x0020:  0202 e585 0015 e4c2 2696 1263 4afb 8018  ........&..cJ...
	0x0030:  2005 290a 0000 0101 080a 0445 91dc b8d1  ..)........E....
	0x0040:  5d35 4344 5550 0d0a                      ]5CDUP..
04:46:38.032891 IP 202.120.2.2.ftp > 192.168.0.100.58757: Flags [.], ack 104, win 46, options [nop,nop,TS val 3100739561 ecr 71668188], length 0
	0x0000:  7cd1 c394 9eb8 f81a 67cd 576e 0800 4500  |.......g.Wn..E.
	0x0010:  0034 89df 4000 1e06 455e ca78 0202 c0a8  .4..@...E^.x....
	0x0020:  0064 0015 e585 1263 4afb e4c2 269c 8010  .d.....cJ...&...
	0x0030:  002e c3d3 0000 0101 080a b8d1 87e9 0445  ...............E
	0x0040:  91dc                                     ..
04:46:38.033325 IP 202.120.2.2.ftp > 192.168.0.100.58757: Flags [P.], seq 956:985, ack 104, win 46, options [nop,nop,TS val 3100739561 ecr 71668188], length 29
	0x0000:  7cd1 c394 9eb8 f81a 67cd 576e 0800 4500  |.......g.Wn..E.
	0x0010:  0051 89e0 4000 1e06 4540 ca78 0202 c0a8  .Q..@...E@.x....
	0x0020:  0064 0015 e585 1263 4afb e4c2 269c 8018  .d.....cJ...&...
	0x0030:  002e 13fc 0000 0101 080a b8d1 87e9 0445  ...............E
	0x0040:  91dc 3235 3020 4344 5550 2063 6f6d 6d61  ..250.CDUP.comma
	0x0050:  6e64 2073 7563 6365 7373 6675 6c0d 0a    nd.successful..
04:46:38.033396 IP 192.168.0.100.58757 > 202.120.2.2.ftp: Flags [.], ack 985, win 8195, options [nop,nop,TS val 71668603 ecr 3100739561], length 0
	0x0000:  f81a 67cd 576e 7cd1 c394 9eb8 0800 4500  ..g.Wn|.......E.
	0x0010:  0034 29bb 4000 4006 8382 c0a8 0064 ca78  .4).@.@......d.x
	0x0020:  0202 e585 0015 e4c2 269c 1263 4b18 8010  ........&..cK...
	0x0030:  2003 a242 0000 0101 080a 0445 937b b8d1  ...B.......E.{..
	0x0040:  87e9                                     ..
04:46:38.033694 IP 192.168.0.100.58757 > 202.120.2.2.ftp: Flags [P.], seq 104:109, ack 985, win 8195, options [nop,nop,TS val 71668603 ecr 3100739561], length 5
	0x0000:  f81a 67cd 576e 7cd1 c394 9eb8 0800 4500  ..g.Wn|.......E.
	0x0010:  0039 a44b 4000 4006 08ed c0a8 0064 ca78  .9.K@.@......d.x
	0x0020:  0202 e585 0015 e4c2 269c 1263 4b18 8018  ........&..cK...
	0x0030:  2003 03d1 0000 0101 080a 0445 937b b8d1  ...........E.{..
	0x0040:  87e9 5057 440d 0a                        ..PWD..
04:46:38.442961 IP 202.120.2.2.ftp > 192.168.0.100.58757: Flags [P.], seq 985:1019, ack 109, win 46, options [nop,nop,TS val 3100739978 ecr 71668603], length 34
	0x0000:  7cd1 c394 9eb8 f81a 67cd 576e 0800 4500  |.......g.Wn..E.
	0x0010:  0056 89e1 4000 1e06 453a ca78 0202 c0a8  .V..@...E:.x....
	0x0020:  0064 0015 e585 1263 4b18 e4c2 26a1 8018  .d.....cK...&...
	0x0030:  002e c679 0000 0101 080a b8d1 898a 0445  ...y...........E
	0x0040:  937b 3235 3720 222f 2220 6973 2074 6865  .{257."/".is.the
	0x0050:  2063 7572 7265 6e74 2064 6972 6563 746f  .current.directo
	0x0060:  7279 0d0a                                ry..
04:46:38.443041 IP 192.168.0.100.58757 > 202.120.2.2.ftp: Flags [.], ack 1019, win 8193, options [nop,nop,TS val 71669012 ecr 3100739978], length 0
	0x0000:  f81a 67cd 576e 7cd1 c394 9eb8 0800 4500  ..g.Wn|.......E.
	0x0010:  0034 1a19 4000 4006 9324 c0a8 0064 ca78  .4..@.@..$...d.x
	0x0020:  0202 e585 0015 e4c2 26a1 1263 4b3a 8010  ........&..cK:..
	0x0030:  2001 9ee3 0000 0101 080a 0445 9514 b8d1  ...........E....
	0x0040:  898a                                     ..
04:46:40.314852 IP 192.168.0.100.58757 > 202.120.2.2.ftp: Flags [P.], seq 109:120, ack 1019, win 8193, options [nop,nop,TS val 71670883 ecr 3100739978], length 11
	0x0000:  f81a 67cd 576e 7cd1 c394 9eb8 0800 4500  ..g.Wn|.......E.
	0x0010:  003f 4c64 4000 4006 60ce c0a8 0064 ca78  .?Ld@.@.`....d.x
	0x0020:  0202 e585 0015 e4c2 26a1 1263 4b3a 8018  ........&..cK:..
	0x0030:  2001 ef31 0000 0101 080a 0445 9c63 b8d1  ...1.......E.c..
	0x0040:  898a 4357 4420 5465 4e65 740d 0a         ..CWD.TeNet..
04:46:40.692663 IP 202.120.2.2.ftp > 192.168.0.100.58757: Flags [.], ack 120, win 46, options [nop,nop,TS val 3100742301 ecr 71670883], length 0
	0x0000:  7cd1 c394 9eb8 f81a 67cd 576e 0800 4500  |.......g.Wn..E.
	0x0010:  0034 89e2 4000 1e06 455b ca78 0202 c0a8  .4..@...E[.x....
	0x0020:  0064 0015 e585 1263 4b3a e4c2 26ac 8010  .d.....cK:..&...
	0x0030:  002e ae49 0000 0101 080a b8d1 929d 0445  ...I...........E
	0x0040:  9c63                                     .c
04:46:42.533139 IP 202.120.2.2.ftp > 192.168.0.100.58757: Flags [P.], seq 1019:1047, ack 120, win 46, options [nop,nop,TS val 3100744130 ecr 71670883], length 28
	0x0000:  7cd1 c394 9eb8 f81a 67cd 576e 0800 4500  |.......g.Wn..E.
	0x0010:  0050 89e3 4000 1e06 453e ca78 0202 c0a8  .P..@...E>.x....
	0x0020:  0064 0015 e585 1263 4b3a e4c2 26ac 8018  .d.....cK:..&...
	0x0030:  002e f49e 0000 0101 080a b8d1 99c2 0445  ...............E
	0x0040:  9c63 3235 3020 4357 4420 636f 6d6d 616e  .c250.CWD.comman
	0x0050:  6420 7375 6363 6573 7366 756c 0d0a       d.successful..
04:46:42.533212 IP 192.168.0.100.58757 > 202.120.2.2.ftp: Flags [.], ack 1047, win 8191, options [nop,nop,TS val 71673097 ecr 3100744130], length 0
	0x0000:  f81a 67cd 576e 7cd1 c394 9eb8 0800 4500  ..g.Wn|.......E.
	0x0010:  0034 eb58 4000 4006 c1e4 c0a8 0064 ca78  .4.X@.@......d.x
	0x0020:  0202 e585 0015 e4c2 26ac 1263 4b56 8010  ........&..cKV..
	0x0030:  1fff 7e91 0000 0101 080a 0445 a509 b8d1  ..~........E....
	0x0040:  99c2                                     ..
04:46:42.533454 IP 192.168.0.100.58757 > 202.120.2.2.ftp: Flags [P.], seq 120:125, ack 1047, win 8192, options [nop,nop,TS val 71673097 ecr 3100744130], length 5
	0x0000:  f81a 67cd 576e 7cd1 c394 9eb8 0800 4500  ..g.Wn|.......E.
	0x0010:  0039 842b 4000 4006 290d c0a8 0064 ca78  .9.+@.@.)....d.x
	0x0020:  0202 e585 0015 e4c2 26ac 1263 4b56 8018  ........&..cKV..
	0x0030:  2000 e01e 0000 0101 080a 0445 a509 b8d1  ...........E....
	0x0040:  99c2 5057 440d 0a                        ..PWD..
04:46:42.942375 IP 202.120.2.2.ftp > 192.168.0.100.58757: Flags [.], ack 125, win 46, options [nop,nop,TS val 3100744481 ecr 71673097], length 0
	0x0000:  7cd1 c394 9eb8 f81a 67cd 576e 0800 4500  |.......g.Wn..E.
	0x0010:  0034 89e4 4000 1e06 4559 ca78 0202 c0a8  .4..@...EY.x....
	0x0020:  0064 0015 e585 1263 4b56 e4c2 26b1 8010  .d.....cKV..&...
	0x0030:  002e 9cfe 0000 0101 080a b8d1 9b21 0445  .............!.E
	0x0040:  a509                                     ..
04:46:42.942458 IP 202.120.2.2.ftp > 192.168.0.100.58757: Flags [P.], seq 1047:1086, ack 125, win 46, options [nop,nop,TS val 3100744481 ecr 71673097], length 39
	0x0000:  7cd1 c394 9eb8 f81a 67cd 576e 0800 4500  |.......g.Wn..E.
	0x0010:  005b 89e5 4000 1e06 4531 ca78 0202 c0a8  .[..@...E1.x....
	0x0020:  0064 0015 e585 1263 4b56 e4c2 26b1 8018  .d.....cKV..&...
	0x0030:  002e b111 0000 0101 080a b8d1 9b21 0445  .............!.E
	0x0040:  a509 3235 3720 222f 5465 4e65 7422 2069  ..257."/TeNet".i
	0x0050:  7320 7468 6520 6375 7272 656e 7420 6469  s.the.current.di
	0x0060:  7265 6374 6f72 790d 0a                   rectory..
04:46:42.942573 IP 192.168.0.100.58757 > 202.120.2.2.ftp: Flags [.], ack 1086, win 8189, options [nop,nop,TS val 71673505 ecr 3100744481], length 0
	0x0000:  f81a 67cd 576e 7cd1 c394 9eb8 0800 4500  ..g.Wn|.......E.
	0x0010:  0034 5a26 4000 4006 5317 c0a8 0064 ca78  .4Z&@.@.S....d.x
	0x0020:  0202 e585 0015 e4c2 26b1 1263 4b7d 8010  ........&..cK}..
	0x0030:  1ffd 7b70 0000 0101 080a 0445 a6a1 b8d1  ..{p.......E....
	0x0040:  9b21                                     .!
04:46:42.942869 IP 192.168.0.100.58757 > 202.120.2.2.ftp: Flags [P.], seq 125:131, ack 1086, win 8192, options [nop,nop,TS val 71673505 ecr 3100744481], length 6
	0x0000:  f81a 67cd 576e 7cd1 c394 9eb8 0800 4500  ..g.Wn|.......E.
	0x0010:  003a 5976 4000 4006 53c1 c0a8 0064 ca78  .:Yv@.@.S....d.x
	0x0020:  0202 e585 0015 e4c2 26b1 1263 4b7d 8018  ........&..cK}..
	0x0030:  2000 cabd 0000 0101 080a 0445 a6a1 b8d1  ...........E....
	0x0040:  9b21 5041 5356 0d0a                      .!PASV..
04:46:43.351658 IP 202.120.2.2.ftp > 192.168.0.100.58757: Flags [P.], seq 1086:1135, ack 131, win 46, options [nop,nop,TS val 3100744897 ecr 71673505], length 49
	0x0000:  7cd1 c394 9eb8 f81a 67cd 576e 0800 4500  |.......g.Wn..E.
	0x0010:  0065 89e6 4000 1e06 4526 ca78 0202 c0a8  .e..@...E&.x....
	0x0020:  0064 0015 e585 1263 4b7d e4c2 26b7 8018  .d.....cK}..&...
	0x0030:  002e 2a11 0000 0101 080a b8d1 9cc1 0445  ..*............E
	0x0040:  a6a1 3232 3720 456e 7465 7269 6e67 2050  ..227.Entering.P
	0x0050:  6173 7369 7665 204d 6f64 6520 2832 3032  assive.Mode.(202
	0x0060:  2c31 3230 2c32 2c32 2c32 3330 2c31 3829  ,120,2,2,230,18)
	0x0070:  2e0d 0a                                  ...
04:46:43.351736 IP 192.168.0.100.58757 > 202.120.2.2.ftp: Flags [.], ack 1135, win 8188, options [nop,nop,TS val 71673913 ecr 3100744897], length 0
	0x0000:  f81a 67cd 576e 7cd1 c394 9eb8 0800 4500  ..g.Wn|.......E.
	0x0010:  0034 c394 4000 4006 e9a8 c0a8 0064 ca78  .4..@.@......d.x
	0x0020:  0202 e585 0015 e4c2 26b7 1263 4bae 8010  ........&..cK...
	0x0030:  1ffc 7802 0000 0101 080a 0445 a839 b8d1  ..x........E.9..
	0x0040:  9cc1                                     ..
04:46:43.352891 IP 192.168.0.100.58757 > 202.120.2.2.ftp: Flags [P.], seq 131:137, ack 1135, win 8192, options [nop,nop,TS val 71673914 ecr 3100744897], length 6
	0x0000:  f81a 67cd 576e 7cd1 c394 9eb8 0800 4500  ..g.Wn|.......E.
	0x0010:  003a 62c7 4000 4006 4a70 c0a8 0064 ca78  .:b.@.@.Jp...d.x
	0x0020:  0202 e585 0015 e4c2 26b7 1263 4bae 8018  ........&..cK...
	0x0030:  2000 cb47 0000 0101 080a 0445 a83a b8d1  ...G.......E.:..
	0x0040:  9cc1 4c49 5354 0d0a                      ..LIST..
04:46:43.760725 IP 202.120.2.2.ftp > 192.168.0.100.58757: Flags [.], ack 137, win 46, options [nop,nop,TS val 3100745342 ecr 71673914], length 0
	0x0000:  7cd1 c394 9eb8 f81a 67cd 576e 0800 4500  |.......g.Wn..E.
	0x0010:  0034 89e7 4000 1e06 4556 ca78 0202 c0a8  .4..@...EV.x....
	0x0020:  0064 0015 e585 1263 4bae e4c2 26bd 8010  .d.....cK...&...
	0x0030:  002e 960c 0000 0101 080a b8d1 9e7e 0445  .............~.E
	0x0040:  a83a                                     .:
04:46:44.169417 IP 202.120.2.2.ftp > 192.168.0.100.58757: Flags [P.], seq 1135:1189, ack 137, win 46, options [nop,nop,TS val 3100745706 ecr 71673914], length 54
	0x0000:  7cd1 c394 9eb8 f81a 67cd 576e 0800 4500  |.......g.Wn..E.
	0x0010:  006a 89e8 4000 1e06 451f ca78 0202 c0a8  .j..@...E..x....
	0x0020:  0064 0015 e585 1263 4bae e4c2 26bd 8018  .d.....cK...&...
	0x0030:  002e a448 0000 0101 080a b8d1 9fea 0445  ...H...........E
	0x0040:  a83a 3135 3020 4f70 656e 696e 6720 4153  .:150.Opening.AS
	0x0050:  4349 4920 6d6f 6465 2064 6174 6120 636f  CII.mode.data.co
	0x0060:  6e6e 6563 7469 6f6e 2066 6f72 2066 696c  nnection.for.fil
	0x0070:  6520 6c69 7374 0d0a                      e.list..
04:46:44.169490 IP 192.168.0.100.58757 > 202.120.2.2.ftp: Flags [.], ack 1189, win 8188, options [nop,nop,TS val 71674728 ecr 3100745706], length 0
	0x0000:  f81a 67cd 576e 7cd1 c394 9eb8 0800 4500  ..g.Wn|.......E.
	0x0010:  0034 078f 4000 4006 a5ae c0a8 0064 ca78  .4..@.@......d.x
	0x0020:  0202 e585 0015 e4c2 26bd 1263 4be4 8010  ........&..cK...
	0x0030:  1ffc 716e 0000 0101 080a 0445 ab68 b8d1  ..qn.......E.h..
	0x0040:  9fea                                     ..
04:46:45.499161 IP 202.120.2.2.ftp > 192.168.0.100.58757: Flags [P.], seq 1189:1212, ack 137, win 46, options [nop,nop,TS val 3100747040 ecr 71674728], length 23
	0x0000:  7cd1 c394 9eb8 f81a 67cd 576e 0800 4500  |.......g.Wn..E.
	0x0010:  004b 89e9 4000 1e06 453d ca78 0202 c0a8  .K..@...E=.x....
	0x0020:  0064 0015 e585 1263 4be4 e4c2 26bd 8018  .d.....cK...&...
	0x0030:  002e c01c 0000 0101 080a b8d1 a520 0445  ...............E
	0x0040:  ab68 3232 3620 5472 616e 7366 6572 2063  .h226.Transfer.c
	0x0050:  6f6d 706c 6574 650d 0a                   omplete..
04:46:45.499220 IP 192.168.0.100.58757 > 202.120.2.2.ftp: Flags [.], ack 1212, win 8190, options [nop,nop,TS val 71676055 ecr 3100747040], length 0
	0x0000:  f81a 67cd 576e 7cd1 c394 9eb8 0800 4500  ..g.Wn|.......E.
	0x0010:  0034 2c11 4000 4006 812c c0a8 0064 ca78  .4,.@.@..,...d.x
	0x0020:  0202 e585 0015 e4c2 26bd 1263 4bfb 8010  ........&..cK...
	0x0030:  1ffe 66f0 0000 0101 080a 0445 b097 b8d1  ..f........E....
	0x0040:  a520                                     ..
04:46:51.044698 IP 192.168.0.100.58759 > 202.120.2.2.ftp: Flags [P.], seq 122:134, ack 976, win 8196, options [nop,nop,TS val 71681595 ecr 3100735695], length 12
	0x0000:  f81a 67cd 576e 7cd1 c394 9eb8 0800 4500  ..g.Wn|.......E.
	0x0010:  0040 66c6 4000 4006 466b c0a8 0064 ca78  .@f.@.@.Fk...d.x
	0x0020:  0202 e587 0015 2882 cdbf 13cb 3ece 8018  ......(.....>...
	0x0030:  2004 0fec 0000 0101 080a 0445 c63b b8d1  ...........E.;..
	0x0040:  78cf 4357 4420 2f54 654e 6574 0d0a       x.CWD./TeNet..
04:46:51.431300 IP 202.120.2.2.ftp > 192.168.0.100.58759: Flags [.], ack 134, win 46, options [nop,nop,TS val 3100752992 ecr 71681595], length 0
	0x0000:  7cd1 c394 9eb8 f81a 67cd 576e 0800 4500  |.......g.Wn..E.
	0x0010:  0034 169a 4000 1e06 b8a3 ca78 0202 c0a8  .4..@......x....
	0x0020:  0064 0015 e587 13cb 3ece 2882 cdcb 8010  .d......>.(.....
	0x0030:  002e 7ad1 0000 0101 080a b8d1 bc60 0445  ..z..........`.E
	0x0040:  c63b                                     .;
04:46:51.431545 IP 202.120.2.2.ftp > 192.168.0.100.58759: Flags [P.], seq 976:1004, ack 134, win 46, options [nop,nop,TS val 3100752994 ecr 71681595], length 28
	0x0000:  7cd1 c394 9eb8 f81a 67cd 576e 0800 4500  |.......g.Wn..E.
	0x0010:  0050 169b 4000 1e06 b886 ca78 0202 c0a8  .P..@......x....
	0x0020:  0064 0015 e587 13cb 3ece 2882 cdcb 8018  .d......>.(.....
	0x0030:  002e c849 0000 0101 080a b8d1 bc62 0445  ...I.........b.E
	0x0040:  c63b 3235 3020 4357 4420 636f 6d6d 616e  .;250.CWD.comman
	0x0050:  6420 7375 6363 6573 7366 756c 0d0a       d.successful..
04:46:51.431612 IP 192.168.0.100.58759 > 202.120.2.2.ftp: Flags [.], ack 1004, win 8194, options [nop,nop,TS val 71681979 ecr 3100752994], length 0
	0x0000:  f81a 67cd 576e 7cd1 c394 9eb8 0800 4500  ..g.Wn|.......E.
	0x0010:  0034 3bb5 4000 4006 7188 c0a8 0064 ca78  .4;.@.@.q....d.x
	0x0020:  0202 e587 0015 2882 cdcb 13cb 3eea 8010  ......(.....>...
	0x0030:  2002 595f 0000 0101 080a 0445 c7bb b8d1  ..Y_.......E....
	0x0040:  bc62                                     .b
04:46:51.431834 IP 192.168.0.100.58759 > 202.120.2.2.ftp: Flags [P.], seq 134:139, ack 1004, win 8194, options [nop,nop,TS val 71681979 ecr 3100752994], length 5
	0x0000:  f81a 67cd 576e 7cd1 c394 9eb8 0800 4500  ..g.Wn|.......E.
	0x0010:  0039 26d2 4000 4006 8666 c0a8 0064 ca78  .9&.@.@..f...d.x
	0x0020:  0202 e587 0015 2882 cdcb 13cb 3eea 8018  ......(.....>...
	0x0030:  2002 baed 0000 0101 080a 0445 c7bb b8d1  ...........E....
	0x0040:  bc62 5057 440d 0a                        .bPWD..
04:46:51.839980 IP 202.120.2.2.ftp > 192.168.0.100.58759: Flags [P.], seq 1004:1043, ack 139, win 46, options [nop,nop,TS val 3100753379 ecr 71681979], length 39
	0x0000:  7cd1 c394 9eb8 f81a 67cd 576e 0800 4500  |.......g.Wn..E.
	0x0010:  005b 169c 4000 1e06 b87a ca78 0202 c0a8  .[..@....z.x....
	0x0020:  0064 0015 e587 13cb 3eea 2882 cdd0 8018  .d......>.(.....
	0x0030:  002e 8bc0 0000 0101 080a b8d1 bde3 0445  ...............E
	0x0040:  c7bb 3235 3720 222f 5465 4e65 7422 2069  ..257."/TeNet".i
	0x0050:  7320 7468 6520 6375 7272 656e 7420 6469  s.the.current.di
	0x0060:  7265 6374 6f72 790d 0a                   rectory..
04:46:51.840075 IP 192.168.0.100.58759 > 202.120.2.2.ftp: Flags [.], ack 1043, win 8191, options [nop,nop,TS val 71682386 ecr 3100753379], length 0
	0x0000:  f81a 67cd 576e 7cd1 c394 9eb8 0800 4500  ..g.Wn|.......E.
	0x0010:  0034 8c33 4000 4006 210a c0a8 0064 ca78  .4.3@.@.!....d.x
	0x0020:  0202 e587 0015 2882 cdd0 13cb 3f11 8010  ......(.....?...
	0x0030:  1fff 561e 0000 0101 080a 0445 c952 b8d1  ..V........E.R..
	0x0040:  bde3                                     ..
04:46:51.840754 IP 192.168.0.100.58759 > 202.120.2.2.ftp: Flags [P.], seq 139:145, ack 1043, win 8192, options [nop,nop,TS val 71682386 ecr 3100753379], length 6
	0x0000:  f81a 67cd 576e 7cd1 c394 9eb8 0800 4500  ..g.Wn|.......E.
	0x0010:  003a 8ba0 4000 4006 2197 c0a8 0064 ca78  .:..@.@.!....d.x
	0x0020:  0202 e587 0015 2882 cdd0 13cb 3f11 8018  ......(.....?...
	0x0030:  2000 a56d 0000 0101 080a 0445 c952 b8d1  ...m.......E.R..
	0x0040:  bde3 5041 5356 0d0a                      ..PASV..
04:46:52.249478 IP 202.120.2.2.ftp > 192.168.0.100.58759: Flags [P.], seq 1043:1093, ack 145, win 46, options [nop,nop,TS val 3100753790 ecr 71682386], length 50
	0x0000:  7cd1 c394 9eb8 f81a 67cd 576e 0800 4500  |.......g.Wn..E.
	0x0010:  0066 169d 4000 1e06 b86e ca78 0202 c0a8  .f..@....n.x....
	0x0020:  0064 0015 e587 13cb 3f11 2882 cdd6 8018  .d......?.(.....
	0x0030:  002e 0783 0000 0101 080a b8d1 bf7e 0445  .............~.E
	0x0040:  c952 3232 3720 456e 7465 7269 6e67 2050  .R227.Entering.P
	0x0050:  6173 7369 7665 204d 6f64 6520 2832 3032  assive.Mode.(202
	0x0060:  2c31 3230 2c32 2c32 2c31 3538 2c31 3539  ,120,2,2,158,159
	0x0070:  292e 0d0a                                )...
04:46:52.249626 IP 192.168.0.100.58759 > 202.120.2.2.ftp: Flags [.], ack 1093, win 8188, options [nop,nop,TS val 71682795 ecr 3100753790], length 0
	0x0000:  f81a 67cd 576e 7cd1 c394 9eb8 0800 4500  ..g.Wn|.......E.
	0x0010:  0034 2207 4000 4006 8b36 c0a8 0064 ca78  .4".@.@..6...d.x
	0x0020:  0202 e587 0015 2882 cdd6 13cb 3f43 8010  ......(.....?C..
	0x0030:  1ffc 52b5 0000 0101 080a 0445 caeb b8d1  ..R........E....
	0x0040:  bf7e                                     .~
04:46:52.250556 IP 192.168.0.100.58759 > 202.120.2.2.ftp: Flags [P.], seq 145:163, ack 1093, win 8192, options [nop,nop,TS val 71682795 ecr 3100753790], length 18
	0x0000:  f81a 67cd 576e 7cd1 c394 9eb8 0800 4500  ..g.Wn|.......E.
	0x0010:  0046 799e 4000 4006 338d c0a8 0064 ca78  .Fy.@.@.3....d.x
	0x0020:  0202 e587 0015 2882 cdd6 13cb 3f43 8018  ......(.....?C..
	0x0030:  2000 9baf 0000 0101 080a 0445 caeb b8d1  ...........E....
	0x0040:  bf7e 5245 5452 2070 6861 7365 312e 6874  .~RETR.phase1.ht
	0x0050:  6d6c 0d0a                                ml..
04:46:52.658829 IP 202.120.2.2.ftp > 192.168.0.100.58759: Flags [.], ack 163, win 46, options [nop,nop,TS val 3100754238 ecr 71682795], length 0
	0x0000:  7cd1 c394 9eb8 f81a 67cd 576e 0800 4500  |.......g.Wn..E.
	0x0010:  0034 169e 4000 1e06 b89f ca78 0202 c0a8  .4..@......x....
	0x0020:  0064 0015 e587 13cb 3f43 2882 cde8 8010  .d......?C(.....
	0x0030:  002e 70b1 0000 0101 080a b8d1 c13e 0445  ..p..........>.E
	0x0040:  caeb                                     ..
04:46:53.065333 IP 202.120.2.2.ftp > 192.168.0.100.58759: Flags [P.], seq 1093:1162, ack 163, win 46, options [nop,nop,TS val 3100754603 ecr 71682795], length 69
	0x0000:  7cd1 c394 9eb8 f81a 67cd 576e 0800 4500  |.......g.Wn..E.
	0x0010:  0079 169f 4000 1e06 b859 ca78 0202 c0a8  .y..@....Y.x....
	0x0020:  0064 0015 e587 13cb 3f43 2882 cde8 8018  .d......?C(.....
	0x0030:  002e 9d8a 0000 0101 080a b8d1 c2ab 0445  ...............E
	0x0040:  caeb 3135 3020 4f70 656e 696e 6720 4153  ..150.Opening.AS
	0x0050:  4349 4920 6d6f 6465 2064 6174 6120 636f  CII.mode.data.co
	0x0060:  6e6e 6563 7469 6f6e 2066 6f72 2070 6861  nnection.for.pha
	0x0070:  7365 312e 6874 6d6c 2028 3536 3232 2062  se1.html.(5622.b
	0x0080:  7974 6573 290d 0a                        ytes)..
04:46:53.065406 IP 192.168.0.100.58759 > 202.120.2.2.ftp: Flags [.], ack 1162, win 8187, options [nop,nop,TS val 71683609 ecr 3100754603], length 0
	0x0000:  f81a 67cd 576e 7cd1 c394 9eb8 0800 4500  ..g.Wn|.......E.
	0x0010:  0034 f0b4 4000 4006 bc88 c0a8 0064 ca78  .4..@.@......d.x
	0x0020:  0202 e587 0015 2882 cde8 13cb 3f88 8010  ......(.....?...
	0x0030:  1ffb 4c04 0000 0101 080a 0445 ce19 b8d1  ..L........E....
	0x0040:  c2ab                                     ..
04:46:53.487120 IP 202.120.2.2.ftp > 192.168.0.100.58759: Flags [P.], seq 1162:1185, ack 163, win 46, options [nop,nop,TS val 3100755130 ecr 71683609], length 23
	0x0000:  7cd1 c394 9eb8 f81a 67cd 576e 0800 4500  |.......g.Wn..E.
	0x0010:  004b 16a0 4000 1e06 b886 ca78 0202 c0a8  .K..@......x....
	0x0020:  0064 0015 e587 13cb 3f88 2882 cde8 8018  .d......?.(.....
	0x0030:  002e 9dd8 0000 0101 080a b8d1 c4ba 0445  ...............E
	0x0040:  ce19 3232 3620 5472 616e 7366 6572 2063  ..226.Transfer.c
	0x0050:  6f6d 706c 6574 650d 0a                   omplete..
04:46:53.487248 IP 192.168.0.100.58759 > 202.120.2.2.ftp: Flags [.], ack 1185, win 8190, options [nop,nop,TS val 71684028 ecr 3100755130], length 0
	0x0000:  f81a 67cd 576e 7cd1 c394 9eb8 0800 4500  ..g.Wn|.......E.
	0x0010:  0034 cfa7 4000 4006 dd95 c0a8 0064 ca78  .4..@.@......d.x
	0x0020:  0202 e587 0015 2882 cde8 13cb 3f9f 8010  ......(.....?...
	0x0030:  1ffe 4838 0000 0101 080a 0445 cfbc b8d1  ..H8.......E....
	0x0040:  c4ba                                     ..
04:47:09.052783 IP 192.168.0.100.58757 > 202.120.2.2.ftp: Flags [F.], seq 137, ack 1212, win 8192, options [nop,nop,TS val 71699588 ecr 3100747040], length 0
	0x0000:  f81a 67cd 576e 7cd1 c394 9eb8 0800 4500  ..g.Wn|.......E.
	0x0010:  0034 2850 4000 4006 84ed c0a8 0064 ca78  .4(P@.@......d.x
	0x0020:  0202 e585 0015 e4c2 26bd 1263 4bfb 8011  ........&..cK...
	0x0030:  2000 0b00 0000 0101 080a 0446 0c84 b8d1  ...........F....
	0x0040:  a520                                     ..
04:47:09.431160 IP 202.120.2.2.ftp > 192.168.0.100.58757: Flags [F.], seq 1212, ack 138, win 46, options [nop,nop,TS val 3100771003 ecr 71699588], length 0
	0x0000:  7cd1 c394 9eb8 f81a 67cd 576e 0800 4500  |.......g.Wn..E.
	0x0010:  0034 89ea 4000 1e06 4553 ca78 0202 c0a8  .4..@...ES.x....
	0x0020:  0064 0015 e585 1263 4bfb e4c2 26be 8011  .d.....cK...&...
	0x0030:  002e cd35 0000 0101 080a b8d2 02bb 0446  ...5...........F
	0x0040:  0c84                                     ..
04:47:09.431240 IP 192.168.0.100.58757 > 202.120.2.2.ftp: Flags [.], ack 1213, win 8192, options [nop,nop,TS val 71699966 ecr 3100771003], length 0
	0x0000:  f81a 67cd 576e 7cd1 c394 9eb8 0800 4500  ..g.Wn|.......E.
	0x0010:  0034 f725 4000 4006 b617 c0a8 0064 ca78  .4.%@.@......d.x
	0x0020:  0202 e585 0015 e4c2 26be 1263 4bfc 8010  ........&..cK...
	0x0030:  2000 abe9 0000 0101 080a 0446 0dfe b8d2  ...........F....
	0x0040:  02bb                                     ..
04:47:14.335985 IP 192.168.0.100.58759 > 202.120.2.2.ftp: Flags [F.], seq 163, ack 1185, win 8192, options [nop,nop,TS val 71704864 ecr 3100755130], length 0
	0x0000:  f81a 67cd 576e 7cd1 c394 9eb8 0800 4500  ..g.Wn|.......E.
	0x0010:  0034 b1a5 4000 4006 fb97 c0a8 0064 ca78  .4..@.@......d.x
	0x0020:  0202 e587 0015 2882 cde8 13cb 3f9f 8011  ......(.....?...
	0x0030:  2000 f6d0 0000 0101 080a 0446 2120 b8d1  ...........F!...
	0x0040:  c4ba                                     ..
